:10000000F2C00CC18EC80AC109C108C107C106C12E
:1000100049C804C103C102C17EC800C1FFC01E237C
:1000200026282A63000000000000000000000000F5
:1000300000000000000000000000000000000000C0
:1000400000000000000000000000000000000000B0
:1000500000000000000000000000000000000000A0
:100060000000000000000000000000000000000090
:100070000000000000000000000000000000000080
:100080000000000000000000000000000000000070
:10009000000003060A0D1115181C2125292E3237E0
:1000A0003C42474C52585E656B727980878F979FB0
:1000B000A7B0B9C2CBD5DFE9F4FF00000000000013
:1000C0000000000000000000000000000000000030
:1000D0000000000000000000000000000000000020
:1000E0000000000000000000000000000000000010
:1000F00000000000000000000000000B0D101214B2
:1001000017191C1F2225282B2F32363A3E42464B08
:1001100050555A5F646A70767D838A9199A1A9B11E
:10012000B9C2CCD5DFE9F4FFFFFFFFFFFFFFFFFF00
:10013000FFFFFFFFFFFFFFFFFFFFFFFFFFFFFFFFCF
:10014000FFFFFFFFFFFFFFFFFFFFFFFFFFFFFF00BE
:1001500001010202030304050506070809090A0E46
:100160000F10111213141516181A1C1E2022252701
:100170002A2D3033363A3E41454A4E53585D626827
:100180006E747B82899199A1AAB3BCC6D0DBE7F3D8
:10019000FFFFFFFFFFFFFFFFFFFFFFFFFFFFFFFF6F
:1001A000FFFFFFFFFFFFFFFFFFFFFFFFFFFFFFFF5F
:1001B000FFFFFFFFFFFFFFFFFFFFFFFFFFFFFFFF4F
:1001C000FFFFFFFFFFFFFFFFFFFFFFFFFFFFFFFF3F
:1001D000FFFFFFFFFFFFFFFFFFFFFFFFFFFFFFFF2F
:1001E000FFFFFFFFFF0011241FBECFE5D2E0DEBFFF
:1001F000CDBF10E0A0E6B0E0E0E4F4E102C005907D
:100200000D92AE37B107D9F720E0AEE7B0E001C0FC
:100210001D92AE3FB207E1F78AD710C9F1CE482F41
:10022000362F272FEBECF0E090E080E05081511169
:100230000AC063E070E0C3D8FC01E553FF4F408380
:100240003183228305C0019633968031910571F781
:100250000895BC018091FD00E2CF90E822E048EAD9
:1002600057E030E0815008F408950FB6F89496BD39
:1002700026BD0FBEFA013197F1F70FB6F89496BD7F
:1002800036BD0FBEEFCF86B1886486B908950F934F
:100290001F93CF93DF939C0140919600842F90E0B1
:1002A000FC01E458FF4F60816093660086589F4FC1
:1002B000FC018081809365006217130609F07CF5CC
:1002C000821713061CF0411106C0822FDF91CF91D7
:1002D0001F910F910895861BC82FD0E0AE01559550
:1002E000479540939500469550E0F0E0E0E073E0DC
:1002F000CF0196958795860F082F10E0D901A01B96
:10030000B10BB7FF03C0D801A21BB30B4A175B07A1
:10031000ECF67150EC0FFD1F7111EACFD7CF862F8D
:10032000D5CF0F931F93CF93DF9380919600809347
:1003300099008091620080939A008091630080937D
:100340009B008091680080939C008091BD00809309
:100350009D008091640080939E00F89409E910E06C
:10036000C1E0D1E0F80161918F01CE0155D821960D
:10037000C730F1E0DF07B1F765EA80E091E04CD8E3
:100380007894DF91CF911F910F9108951092CA0038
:1003900034B185B120919F003295369536953370F2
:1003A00090E0880F991F880F991F830F911D820F6E
:1003B00080939F008091BF00882309F449C0109268
:1003C000BF008091C8009091A200992319F037983E
:1003D0001092C800811145C0809169006091C000F1
:1003E0007091C100882341F06091C4007091C500F4
:1003F0007093C1006093C000605F7F4FA6E0769568
:100400006795AA95E1F780E098E5EAD76B5F7F4FA3
:10041000769567956093BE00809193008823C9F01C
:100420008150809393008091A200811108C08FEACF
:1004300087B981E08093C8001092C90024DF8091C1
:100440006900882329F080916900815080936900B8
:1004500008956D3140F770E060E084E0E0DE85E013
:10046000E0CF813061F780916900811150C06091C7
:10047000C2007091C300605F7F4F9B0145E03695DD
:1004800027954A95E1F7A091BD0080918200E82F61
:10049000F0E0EE0FFF1FED57FF4F40815181B90192
:1004A000641B750BAB01318320838F5F8770809352
:1004B0008200660F771F660F771F8091680090E0BB
:1004C0008D5E9E4F8A1B9109A7FD9395880F991FFA
:1004D000681B790B620F731F83E0161617060CF06A
:1004E00045C0615071098150C1F7161617060CF00E
:1004F00057C057FD74C0809181001816F4F5861B13
:10050000809381008CE287B91092C80095CF8091CA
:10051000C6009091C7009093C3008093C20040969C
:1005200035E0969587953A95E1F79093840080930E
:100530008300909386008093850090938800809339
:10054000870090938A008093890090938C00809319
:100550008B0090938E0080938D00909390008093F9
:100560008F00909392008093910081CF6115710567
:1005700009F4B9CF6F5F7F4FB6CF660F771F653035
:1005800071055CF0635071097595679588E1861B6C
:100590008093810085E043DEB5CF61E070E0F6CF67
:1005A0006C3F8FEF7807DCF457FF19C08091810012
:1005B00087FF02C08450A3CF84EE861B8093810006
:1005C0008091BE008F3108F49DCF8CEF9FEF9C018E
:1005D000261B370BB9017595679586E0DCCF8091B6
:1005E000BE008E3108F48ECF70E060E087E0D3CF9C
:1005F0008091A100883040F480E892E00FB6F89432
:1006000086BD96BD0FBE0895803118F480E891E054
:10061000F5CF80E890E0F2CF882321F0813029F0F7
:10062000BA9A04C0BA98C2980895BA98C29A08951E
:10063000CF93C82F8093A1008093A0008091A20047
:10064000811101C0E9DFC11105C019BC18BC1BBC78
:10065000CF91CECFC1508C2F90E0FC01E05BFE4FDC
:10066000E491E9BDFC01E654FF4FE491E8BD8C5DE7
:100670009F4FFC0184918BBDEBCF80939700D8CF27
:10068000CF93C091A10089E18C0F873908F080E0F9
:10069000CFDF82E0E2DD8C2FCF91CACFCF93C09124
:1006A000A10080E0C5DF83E0D8DD8C2FCF91C0CFE3
:1006B000E82F8091BE008D3110F480E0ADCFEF7057
:1006C000F0E0E659FF4F8081F9CFFF920F931F931F
:1006D000CF93DF938C01D62FC72FF42E8091BB00D0
:1006E0009091BC00892B31F0E091BB00F091BC00EF
:1006F00089E009951093BC000093BB00012B41F0E9
:10070000E091BB00F091BC006D2F7C2F8F2D0995DF
:1007100081E080939800DF91CF911F910F91FF901E
:1007200008952091AA00283080F4E22FF0E0EE0F27
:10073000FF1FE555FF4F808391832F5F2093AA0011
:1007400048E0C3DF8091AA0008958FEF0895EF92EB
:10075000FF921F93CF93DF931091CB00111106C02E
:10076000DF91CF911F91FF90EF900895E090CC0022
:10077000F090CD00C091AA00C1500C2E000CDD0BF2
:10078000C7FD0EC0FE01EE0FFF1FE555FF4F0190A4
:10079000F081E02DB701812F099521978111F0CFCC
:1007A000EBECF0E083818083848195819283818367
:1007B000339680E0E83FF807A9F71092F80010920E
:1007C000FA001092F900C8CF0F931F93CF93DF93D5
:1007D000D82FC92F8B012091AA00222319F0215074
:1007E0002093AA00E091AA0090E080E0EE2341F07F
:1007F000E150FF0BEE0FFF1FE555FF4F8081918108
:100800004AE070E060E061DFB8018D2F9C2FDF913E
:10081000CF911F910F9185CF813C39F470E060E05A
:1008200084E494E0D1DF80E00895823C29F470E014
:1008300060E08CE896E0F6CF81E00895843011F511
:100840008091BB009091BC0027E08531920731F484
:1008500069E170E083EC94E0B7DF0DC0835C944005
:1008600061F49091A100923040F0892F8695969581
:100870009695890F02DF80E0089570E060E084E4DF
:1008800094E0EACF81E00895CF93DF93EB018830C5
:1008900081F480E0CDDE809164008370BDDECD2BDD
:1008A00021F080E0DF91CF91089581E08093A20054
:1008B000F8CF813051F46931710598F38093A2002B
:1008C000809164008370A8DEECCF833041F4809186
:1008D00064008370833029F7862FEADEE2CF813B04
:1008E000A9F480919600882331F061E070E087E4FC
:1008F00096E06ADFD6CF81E090E0C9DC99DE6897A8
:1009000080F261E070E083EC94E0F3CF813EC9F3C4
:10091000813831F48091670090E0B9DC89DEC1CF85
:100920006091A10070E0813C71F3823B11F486E993
:10093000F5CF823E11F480E0F1CF823C19F466E9F4
:1009400070E0E1CF8339B9F3833C29F470E060E0D3
:100950008CE094E0CECF843C31F492DE70E060E035
:1009600083EB96E0C6CF873C61F49091640081E010
:10097000890F83709C7F982B909364004DDED1DCAF
:1009800090CF81E08FCF1F93CF93DF93482F9B01B0
:10099000E0916600D091650080919600882309F46B
:1009A00071C1C0919500483051F04A30A9F42091AE
:1009B000670030E0811103C0E217130630F4D2174C
:1009C000130619F010F020936700C90160DC55DEB2
:1009D00081E08093610007C0413C51F470E060E029
:1009E00084E494E0F1DE80E0DF91CF911F910895DF
:1009F000423C51F48091A100863918F486E93DDE2D
:100A0000F2CF80916700FBCF443C39F480E010DEE8
:100A100070E060E083EB96E0E5CF9FE4940F9230C6
:100A200008F041C0882331F0C90168E170E0D8D4F2
:100A3000892BC9F68091A1002115310511F5423BA2
:100A4000D1F48FEF809361001091A100809161003B
:100A50006C2F70E0082E000C990BB1D4810F911D02
:100A600016DCC82F80936700181719F08D1301C08A
:100A700015DE8C2FC4CF8D1720F7E81728F381E0FF
:100A8000E1CF273341E0340710F08D17D0F62D3633
:100A90003240D0F2E817C0F2F3DD70E060E083EBA3
:100AA00096E092DED1CF9FE1940F923020F48091B6
:100AB000610081958ECF413009F094C02E3331050D
:100AC00011F4409361003091A0002091A100E32F28
:100AD000E21BFF0BCF0160917E0070917F006F5F82
:100AE0007F4F70937F0060937E00309709F47BCF37
:100AF00040E052E0F7FF06C040E450E0233810F435
:100B000040E051E05695479597FD0196959587955C
:100B10000097C1F74617570708F065CF321708F05E
:100B200042C03FEF320F9FEF930F692F70E0AB0190
:100B3000405B5E4FFA018491921708F039C099B575
:100B4000911136C08F3F09F033C089BDDB01A65437
:100B5000BF4FFD01849198B5981708F036C098B53D
:100B60009F5F98BD6C5D7F4FFB0184919BB598178B
:100B700098F59BB59F5F9BBD89B5FA01449184139D
:100B80000CC098B5FD018491981307C08BB5FB018B
:100B90006491861302C03093A1002ADD10927F0079
:100BA00010927E0020CF231708F0BDCF31E0BACFDE
:100BB00099B5981718F489B58F5FC7CF99B589177C
:100BC00008F0C4CF89B58150C0CF98B5891708F017
:100BD000C9CF98B59150C5CF9BB5891768F69BB51D
:100BE0009150C9CF4530A9F48091A100823408F416
:100BF000FACE90E0821B930B282F813491053CF0B4
:100C00008739910508F026E92093A000ECCE21E475
:100C1000FBCF4630B1F49091A100809197009817D6
:100C200008F0E1CE290F311D90E08217930734F0D0
:100C3000C9012134310514F481E490E08093A000CF
:100C4000D2CE473069F49091A0008091A10089171D
:100C500010F48F5FF3CF981708F0C5CE8150EECF18
:100C6000433C71F491E0811190E09093960059DB40
:100C700015DD8091A10090E00ADB80936700BFCE74
:100C800081E0B2CEC1E0483009F08FCE95CE282F5A
:100C9000CB01322F3D7F383021F481E0EEDC80E063
:100CA0000895213C31F470E060E084E494E08CDD50
:100CB000F6CF223C49F4809165008093670066E995
:100CC00070E083EC94E0F3CF243C39F480E0B0DCB6
:100CD00070E060E083EB96E0EACF213B41F468E10D
:100CE00070E07ED361E070E0892BC9F6EACF81E045
:100CF000233C89F490919600911180E080939600B6
:100D000010DBCCDC8091A10090E0C1DA8093670019
:100D1000682F70E0D6CF0895282FCB01213C39F4FD
:100D200070E060E084E494E04FDD80E00895223CD0
:100D300029F470E060E085E197E0F6CF213B39F4DB
:100D40006EE370E04DD3892B81F79ADCEECF213E24
:100D500041F46EE370E044D36F5F60936300E1DAC7
:100D6000E4CF81E00895CF93C82FCB012C2F2079B9
:100D70002039F1F48C2F8F708230C1F081E058DC83
:100D80006091670070E083EC94E0C43C69F0C43B80
:100D9000C9F576DC1092FD00C091960061E070E02C
:100DA000CC2351F187E496E00FDD1BC084E1E7CF4F
:100DB000203811F480E0E3CFC83039F4809164002A
:100DC0008695869529DCC1E01AC0C13061F469318D
:100DD000710538F0C093A2008091640086958695D5
:100DE0001BDCC0E00CC0C33059F6209164002C70AD
:100DF0002C30B9F75DDCF5CF83EC94E0E5DC8C2F8B
:100E0000CF910895C73CF9F690916400892F86959B
:100E100086958F5F8370282F220F220F9370920F79
:100E200090936400F9DB7DDADCCF883029F481E02F
:100E30008093600080E00895813C31F470E060E0D0
:100E400084E494E0C1DCF6CF823C29F470E060E0F9
:100E50008CE094E0F7CF813B91F480916200909117
:100E60006000890F823038F482E0809362008091C4
:100E70006200DEDBDFCF8937C0F388E7F6CF813E43
:100E800039F4809160008195809360004ADAD2CF76
:100E9000823B49F481E0809360008091620083305E
:100EA00030F38150E2CF823E89F381E008958CE2F5
:100EB00087B91092C8001092C900E5D987EE86B9AB
:100EC00008950F931F93CF931092A5008091FB007C
:100ED0009091FC009C012F5F3F4F88279078822BD8
:100EE000932B9093FC008093FB003091A30096B36A
:100EF00081E0292F287093FD80E08093A3003817AC
:100F0000B1F01092A2008093A3009091FD00892F70
:100F1000211132C080699F709F3061F58093FD0080
:100F200090E080E096D91092FC001092FB000091B6
:100F3000FB001091FC008091A200882351F1B801C0
:100F400083E06DD904DC0F731127012B79F4109223
:100F50008000ADDFC0918000C11104C094D981E050
:100F60008093BF00CF5FCF71C0938000CF911F915E
:100F70000F9108958F5FD2CF8F7E95FD08C0806856
:100F80008093FD008091FB009091FC00CBCF806CA2
:100F9000F7CFC091FD008C2F807F803B39F470E04B
:100FA00060E081E03CD9C80154D9D4CFB80181E0D8
:100FB00036D9C4FF0FC0C5FDF6CF0831110550F278
:100FC0001092FC001092FB00C062C093FD0090E004
:100FD00080E0EACFCC2309F4BDCFC5FF0AC0109250
:100FE000FD001092FC001092FB0081E080939800BD
:100FF000B1CF0231110508F4ADCFC064C093FD003C
:1010000090E080E026D9EBCF8091CA008111BED953
:101010008091A500811155CF0895BF92CF92DF92A4
:10102000EF92FF920F931F93CF93DF93EC0110E8A1
:1010300088E0E82E87E0F82E02E092ECC92EDD244D
:10104000D394B12C209759F481E0DF91CF911F9177
:101050000F91FF90EF90DF90CF90BF900895809117
:10106000980081111DC09091A100983090F40FB6A6
:10107000F89416BD06BD0FBEC6010197F1F78B2D82
:101080000FB6F89416BD86BD0FBEBEDF60DB21979C
:10109000D9CF0FB6F89416BD86BD0FBEC701EDCFF0
:1010A00080E0D3CF2F932FB72F933F938F939F93AE
:1010B000AF93BF93EF93FF938091C9008823E9F02A
:1010C000E091C80024B135B1F0E0EE0FFF1FDF0161
:1010D000AC53BF4F2D933C93E054FF4F80819181DF
:1010E0008217930708F401962817390708F4019727
:1010F0009183808381E08093CA0081E08093C9005E
:10110000FF91EF91BF91AF919F918F913F912F915F
:101110002FBF2F9118958F9381E08093A5008F9119
:1011200018958F9381E08093A4008F911895F8947F
:1011300084B7877F84BF0FB6F894A89581B588617E
:1011400081BD11BC0FBEB89A81E083BF91EA9ABD00
:10115000B99ABC9A80BF80E68CBD8FEF8DBD88E0C8
:1011600088BB85BB8BB780628BBFA89581B5886132
:1011700081BD80E481BD9BDE789481E06ED870E013
:1011800060E08EE194E0CDDA1092980079DAF8947C
:1011900080E091E039D1853A09F47BC0789461E030
:1011A00070E084E494E0BDDA83E4F82EEE24E39466
:1011B00092E0D92E20E4C22ED1E0C9DA8091A800B5
:1011C0009091A900009749F06091A6007091A70046
:1011D000FBDA1092A9001092A8008091A200882347
:1011E00091F180E025DAA89581B5886181BDF1BCD7
:1011F000379896B381E0292F287093FD80E0809383
:10120000A3002223B1F31092FD001092FC00109273
:10121000FB00E09298008BB780628BBF1092CA00EF
:101220001092A5001092A4008091A200811159C0D3
:10123000D09269008BB78F7D8BBF39DEA89581B5C1
:10124000886181BDC1BCE0DE109298008091BB0036
:101250009091BC0027E08531920709F062C0C091EF
:101260006200CC0FC73908F0C6E914E08C2FE0D932
:1012700085E090E0D2DE80916200DAD981E490E0EE
:10128000CCDE115099F780ED92E0C7DE80E0D0D936
:1012900094CF09E910E0C1E0D1E0CE01B5D0F8016A
:1012A00081938F012196C730F1E0DF07B1F7789481
:1012B000809199008093960080919A0080936200BB
:1012C00080919B008093630080919C0080936800D4
:1012D00080919D008093BD0080919E00809364006A
:1012E0005ECF85B7877E806185BF85B7806285BF09
:1012F000889585B78F7D85BF8091A400811110925C
:10130000A2008091CA00882329F0D0936900D0936D
:10131000BF003CD88091A500882309F485CFD1DD9A
:1013200083CFE4E08C309E0739F58091BE00C0E0A9
:10133000EC2FF0E0E25EFF4FE4918E17D8F406EA5E
:10134000C11102C008E0C1E010E089E171D9C80113
:1013500064DE80E06DD98AEF90E05FDEC150A9F7CE
:101360008AE992E05ADE882309F427CF88EE93E0D9
:1013700054DE23CFCF5FDCCF8C589640A9F4809108
:10138000A30081111ACF8091670052D984E690E0C2
:1013900044DE80E04DD98091630090E068EE73E018
:1013A0000ED084569109E4CF85B7877E85BF85B777
:1013B000806285BF889585B78F7D85BFFECE00246E
:1013C000552704C0080E591F880F991F009729F050
:1013D00076956795B8F37105B9F7802D952F089527
:1013E000AA1BBB1B51E107C0AA1FBB1FA617B7074B
:1013F00010F0A61BB70B881F991F5A95A9F7809567
:101400009095BC01CD010895E199FECF9FBB8EBBA5
:10141000E09A99278DB30895262FE199FECF9FBBBF
:101420008EBBE09A01970DB2021639F01CBA2DBBA3
:101430000FB6F894E29AE19A0FBE0895F894FFCFA0
:10144000010141020D8201412D0200010201000053
:0E14500000000000010000000000826E011488
:00000001FF
