:10000000A7C0C1C0E4C7BFC0BEC0BDC0BCC0BBC0EC
:100010009FC7B9C0B8C0B7C0D4C7B5C0B4C01E234D
:1000200026282A63000000000000000000000000F5
:1000300000000000000000000000000000000000C0
:1000400000000000000000000000000000000000B0
:1000500000000000000000000000000000000000A0
:10006000000000000000010304050708090B0C0E46
:100070000F1113141618191B1D1F21232527292BB7
:100080002D30323437393B3E404346484B4E515475
:10009000575A5D606366696D7073777A7E81858972
:1000A0008D9094989CA0A5A9ADB1B6BABFC3C8CD98
:1000B000D1D6DBE0E5EAEFF4FAFF01010202030327
:1000C000040405060708090A0C0D0E0F1113141677
:1000D000181A1D1F2224272A2D3033373B3E424653
:1000E0004B4F54595D63686E73797F868C939AA1E8
:1000F000A8B0B8C0C8D1D9E2ECF5FFFFFFFFFFFF01
:10010000FFFFFFFFFFFFFFFFFFFFFFFFFFFFFFFFFF
:10011000FFFFFFFFFFFFFFFFFFFFFFFFFFFFFFFFEF
:10012000FFFFFFFFFFFFFFFFFFFFFFFFFFFFFFFFDF
:10013000FFFFFFFFFFFFFFFFFFFFFFFFFFFFFFFFCF
:10014000FFFFFFFFFFFFFFFFFFFFFFFFFFFFFF00BE
:1001500011241FBECFE5D2E0DEBFCDBF10E0A0E688
:10016000B0E0E6E0F3E102C005900D92AE37B107D2
:10017000D9F720E0AEE7B0E001C01D92AE3FB20774
:10018000E1F72BD7BEC83CCF482F362F272FEBECFB
:10019000F0E090E080E0508151110AC063E070E02F
:1001A0005ED8FC01E553FF4F40833183228305C0B5
:1001B000019633968031910571F70895BC018091C5
:1001C000FD00E2CF90E822E048EA57E030E08150BD
:1001D00008F408950FB6F89496BD26BD0FBEFA0137
:1001E0003197F1F70FB6F89496BD36BD0FBEEFCF3D
:1001F00086B1886486B90895CF92DF92EF92FF921C
:100200000F931F93CF939C0150919600852F90E000
:10021000FC01E458FF4F40814093660086589F4F91
:10022000FC018081809365004217130609F0C4F534
:10023000821713061CF0511109C0822FCF911F9114
:100240000F91FF90EF90DF90CF900895841BE82EE0
:10025000F12CC70166E070E027D8609395006695A1
:10026000E62FF0E010E000E0C7E086E0C82ED12CD9
:10027000C801B60105D8842F860FA82FB0E0B901B8
:100280006A1B7B0B77FF03C0BD01621B730BE61774
:10029000F707A4F6C1500E0D1F1DC111E9CFCECF37
:1002A000842FCCCF0F931F93CF93DF938091960031
:1002B000809399008091620080939A0080916300FE
:1002C00080939B008091680080939C008091BD008A
:1002D00080939D008091640080939E00F89409E9CA
:1002E00010E0C1E0D1E0F80161918F01CE01F7D7B4
:1002F0002196C730F1E0DF07B1F765EA80E091E0D1
:10030000EED77894DF91CF911F910F9108951092BD
:10031000CA0034B185B120919F003295369536954B
:10032000337090E0880F991F880F991F830F911DDC
:10033000820F80939F008091BF00882309F449C0F9
:100340001092BF008091C8009091A200992319F0EB
:1003500037981092C800811145C080916900609162
:10036000C0007091C100882341F06091C400709179
:10037000C5007093C1006093C000605F7F4FA6E02E
:1003800076956795AA95E1F780E098E579D7695F5A
:100390007F4F769567956093BE0080919300882388
:1003A000C9F08150809393008091A200811108C010
:1003B0008FEA87B981E08093C8001092C90018DFE6
:1003C00080916900882329F0809169008150809391
:1003D000690008956D3140F770E060E084E0D4DE9C
:1003E00085E0E0CF813061F780916900811150C0D4
:1003F0006091C2007091C300605F7F4F9B0145E038
:10040000369527954A95E1F7A091BD00809182002D
:10041000E82FF0E0EE0FFF1FED57FF4F40815181B5
:10042000B901641B750BAB01318320838F5F87702B
:1004300080938200660F771F660F771F8091680098
:1004400090E08D5E9E4F8A1B9109A7FD9395880FC2
:10045000991F681B790B620F731F83E0161617062E
:100460000CF045C0615071098150C1F7161617068E
:100470000CF057C057FD74C0809181001816F4F538
:10048000861B809381008CE287B91092C80095CFBB
:100490008091C6009091C7009093C3008093C200E2
:1004A000409635E0969587953A95E1F790938400CC
:1004B00080938300909386008093850090938800BA
:1004C0008093870090938A008093890090938C009A
:1004D00080938B0090938E0080938D00909390007A
:1004E00080938F00909392008093910081CF61154B
:1004F000710509F4B9CF6F5F7F4FB6CF660F771FD5
:10050000653071055CF0635071097595679588E1F8
:10051000861B8093810085E037DEB5CF61E070E017
:10052000F6CF6C3F8FEF7807DCF457FF19C080914E
:10053000810087FF02C08450A3CF84EE861B809386
:1005400081008091BE008F3108F49DCF8CEF9FEF2A
:100550009C01261B370BB9017595679586E0DCCFAA
:100560008091BE008E3108F48ECF70E060E087E0AD
:10057000D3CF8091A100853040F480E892E00FB69F
:10058000F89486BD96BD0FBE08958E3018F480E8AD
:1005900091E0F5CF80E890E0F2CF882321F0813020
:1005A00029F0BC9A04C0BC98C4980895BC98C49A19
:1005B0000895CF93C82F8093A1008093A0008091CD
:1005C000A20081110AC091E0C11101C090E081E058
:1005D000C23408F480E0890FE0DFC11104C019BC07
:1005E00018BCCF91C6CFC1508C2F90E0FC01E654CF
:1005F000FF4FE491E9BD8C5D9F4FFC01849188BD64
:10060000F0CFCF93C091A10089E18C0F873908F01A
:1006100080E0CFDF82E0D6DD8C2FCF91CACFCF93A1
:10062000C091A10080E0C5DF83E0CCDD8C2FCF91AD
:10063000C0CFE82F8091BE008D3110F480E0ADCFA7
:10064000EF70F0E0E659FF4F8081F9CFFF920F93F2
:100650001F93CF93DF938C01D62FC72FF42E809159
:10066000BB009091BC00892B31F0E091BB00F09170
:10067000BC0089E009951093BC000093BB00012BDE
:1006800041F0E091BB00F091BC006D2F7C2F8F2DCD
:10069000099581E080939800DF91CF911F910F9190
:1006A000FF9008952091AA00283080F4E22FF0E016
:1006B000EE0FFF1FE555FF4F808391832F5F20933F
:1006C000AA0048E0C3DF8091AA0008958FEF089543
:1006D000EF92FF921F93CF93DF931091CB001111F4
:1006E00006C0DF91CF911F91FF90EF900895E090A9
:1006F000CC00F090CD00C091AA00C1500C2E000C8F
:10070000DD0BC7FD0EC0FE01EE0FFF1FE555FF4FCD
:100710000190F081E02DB701812F0995219781117A
:10072000F0CFEBECF0E0838180838481958192832C
:100730008183339680E0E83FF807A9F71092F8002C
:100740001092FA001092F900C8CF0F931F93CF9325
:10075000DF93D82FC92F8B012091AA00222319F0F3
:1007600021502093AA00E091AA0090E080E0EE23BF
:1007700041F0E150FF0BEE0FFF1FE555FF4F808169
:1007800091814AE070E060E061DFB8018D2F9C2F1D
:10079000DF91CF911F910F9185CF813C39F470E0AB
:1007A00060E087E094E0D1DF80E00895823C29F4A6
:1007B00070E060E081E894E0F6CF81E00895843055
:1007C00021F58091BB009091BC0025E08430920718
:1007D00031F469E170E080E595E0B7DF0FC0805546
:1007E000954071F49091A100923050F0892F869538
:1007F00096959695890F80939700DBDE80E00895AB
:1008000070E060E087E094E0E8CF81E00895CF9366
:10081000DF93EB01883081F480E0CBDE80916400CF
:100820008370BBDECD2B21F080E0DF91CF91089566
:1008300081E08093A200F8CF813051F469317105D5
:1008400098F38093A200809164008370A6DEECCFC1
:10085000833041F4809164008370833029F7862FC0
:10086000E8DEE2CF813B81F481E090E0C5DCA1DEEF
:1008700080919600811102C06897B0F261E070E04B
:1008800080E595E062DFD0CF813EC1F3813831F45D
:100890008091670090E0B0DC8CDEC6CF6091A10053
:1008A00070E0813C69F3823B11F486E9F5CF823E2A
:1008B00011F480E0F1CF823C19F466E970E0E0CFFA
:1008C0008339B9F3833C29F470E060E08DEC93E068
:1008D000D9CF843C31F495DE70E060E088EA94E0A2
:1008E000D1CF873C61F49091640081E0890F8370DF
:1008F0009C7F982B9093640050DED4DC95CF81E0F0
:1009000094CF282FCB01213C39F470E060E087E0E0
:1009100094E01BDF80E00895223C29F470E060E061
:1009200084E095E0F6CF213B39F46EE370E0A8D483
:10093000892B81F766DEEECF213E41F46EE370E055
:100940009FD46F5F60936300ADDCE4CF81E00895D6
:10095000CF93C82FCB012C2F20792039C1F48C2FB5
:100960008F70823091F081E024DE6091670070E04A
:10097000C43C39F0C43B81F544DE1092FD0061E0D7
:1009800070E080E595E0E1DE1BC08AE0EDCF203825
:1009900011F480E0E9CFC83039F480916400869585
:1009A0008695FBDD81E00DC0C13069F469317105C8
:1009B00038F0C093A2008091640086958695EDDDA5
:1009C00080E0CF910895C33081F6209164002C70AF
:1009D0002C30B1F72EDEF4CFC53C19F466E970E097
:1009E000D0CFC73CF9F690916400892F8695869503
:1009F0008F5F8370282F220F220F9370920F909396
:100A00006400CBDD4FDCDCCF883029F481E08093BB
:100A1000600080E00895813C31F470E060E087E0A0
:100A200094E093DEF6CF823C29F470E060E08DEC38
:100A300093E0F7CF813B91F4809162009091600048
:100A4000890F823038F482E08093620080916200E6
:100A5000B0DDDFCF8937C0F388E7F6CF813E39F4C8
:100A6000809160008195809360001CDCD2CF823B36
:100A700049F481E08093600080916200833030F31C
:100A80008150E2CF823E89F381E008958CE287B9FC
:100A90001092C8001092C900ABDB87EE86B90895AA
:100AA0001F93CF93DF93482F9B01E0916600D09175
:100AB000650080919600C0919500811101C0C1E050
:100AC000483029F04A30A9F42091670030E0E2175D
:100AD000130630F4D217130619F010F020936700B4
:100AE000C9018ADB8093970064DD81E08093610017
:100AF00007C0413C51F470E060E087E094E025DEFF
:100B000080E0DF91CF911F910895423C59F480918C
:100B1000A100863920F486E9809397003BC080913C
:100B20006700FACF443C39F480E043DD70E060E0D8
:100B300088EA94E0E4CF9FE4940F923008F044C038
:100B4000882331F0C90168E170E09AD3892BC1F69E
:100B50008091A1002115310529F5423BE9F48FEF81
:100B6000809361001091A100809161006C2F70E072
:100B7000082E000C990B73D3810F911D3DDBC82FFC
:100B800080936700181719F08D1301C048DDC093DA
:100B900097008C2F0EDDB4CF8D1708F7E81710F3F0
:100BA00081E0DECF273341E0340710F08D17B8F62F
:100BB0002D363240B8F2E817A8F223DD70E060E08D
:100BC00088EA94E0C2DDCECF9FE1940F923020F40A
:100BD0008091610081958ACF413009F078C02E3331
:100BE000310511F4409361002091A0003091A100E3
:100BF000E22FE31BFF0BCF0160917E0070917F001D
:100C00006F5F7F4F70937F0060937E00309709F491
:100C100077CF40E052E0F7FF06C040E450E03838BC
:100C200010F440E051E05695479597FD0196959553
:100C300087950097C1F74617570708F061CF23172C
:100C400078F52FEF230F7FEF720F872F90E0AC0125
:100C500046545F4FFA016491731730F539B531117D
:100C600023C06F3F09F569BD8C5D9F4FFC01349136
:100C700068B5631730F538B53F5F38BD39B5FA014F
:100C80004491341307C038B5FC018491381302C075
:100C90002093A1006EDC10927F0010927E0030CF76
:100CA000321788F621E0CECF39B5361720F439B5A2
:100CB0003F5F39BDD9CF39B56317B0F639B531507B
:100CC000F8CF68B53617D0F638B53150D6CF4530A5
:100CD000A9F48091A100823408F412CF90E0821B25
:100CE000930B282F813491053CF08739910508F04A
:100CF00026E92093A00004CF21E4FBCF4630B1F4D5
:100D00009091A10080919700981708F0F9CE290FD3
:100D1000311D90E08217930734F0C9012134310569
:100D200014F481E490E08093A000EACE473069F4A7
:100D30009091A0008091A100891710F48F5FF3CFEC
:100D4000981708F0DDCE8150EECF433C71F491E06E
:100D5000811190E090939600A5DA61DC8091A1006A
:100D600090E04ADA80936700D7CE81E0CACE0F9335
:100D70001F93CF931092A5008091FB009091FC00EF
:100D80009C012F5F3F4F88279078822B932B909365
:100D9000FC008093FB003091A30096B381E0292FE3
:100DA000287093FD80E08093A3003817B1F0109273
:100DB000A2008093A3009091FD00892F211132C0E1
:100DC00080699F709F3061F58093FD0090E080E026
:100DD000F5D91092FC001092FB000091FB001091DD
:100DE000FC008091A200882351F1B80183E0CCD9A6
:100DF0006FDC0F731127012B79F41092800046DE0F
:100E0000C0918000C11104C0F3D981E08093BF007C
:100E1000CF5FCF71C0938000CF911F910F91089544
:100E20008F5FD2CF8F7E95FD08C080688093FD00D4
:100E30008091FB009091FC00CBCF806CF7CFC091EC
:100E4000FD008C2F807F803B39F470E060E081E012
:100E50009BD9C801B3D9D4CFB80181E095D9C4FFDB
:100E60000FC0C5FDF6CF0831110550F21092FC00FD
:100E70001092FB00C062C093FD0090E080E0EACFDA
:100E8000CC2309F4BDCFC5FF0AC01092FD0010921B
:100E9000FC001092FB0081E080939800B1CF0231FA
:100EA000110508F4ADCFC064C093FD0090E080E070
:100EB00085D9EBCF8091CA00811129DA8091A500F4
:100EC000811155CF0895BF92CF92DF92EF92FF929A
:100ED0000F931F93CF93DF93EC0110E888E0E82E87
:100EE00087E0F82E02E092ECC92EDD24D394B12CD9
:100EF000209759F481E0DF91CF911F910F91FF90DE
:100F0000EF90DF90CF90BF9008958091980081116D
:100F10001DC09091A100953090F40FB6F89416BDC5
:100F200006BD0FBEC6010197F1F78B2D0FB6F894E1
:100F300016BD86BD0FBEBEDFCBDB2197D9CF0FB666
:100F4000F89416BD86BD0FBEC701EDCF80E0D3CFAC
:100F50002F932FB72F933F938F939F93AF93BF936D
:100F6000EF93FF938091C9008823E9F0E091C800D6
:100F700024B135B1F0E0EE0FFF1FDF01AC53BF4FDE
:100F80002D933C93E054FF4F80819181821793070A
:100F900008F401962817390708F401979183808394
:100FA00081E08093CA0081E08093C900FF91EF91B6
:100FB000BF91AF919F918F913F912F912FBF2F9113
:100FC00018958F9381E08093A5008F9118958F934A
:100FD00081E08093A4008F911895F89484B7877F5F
:100FE00084BF0FB6F894A89581B5886181BD11BC06
:100FF0000FBEB89A81E083BF81EA8ABDB99A88E0C2
:1010000088BB85BB8BB780628BBFA89581B5886193
:1010100081BD80E481BD3ADD789481E0D3D870E071
:1010200060E08FED93E03EDB10929800EADAF894EE
:1010300080E091E04CD1853A09F47BC0789461E07E
:1010400070E087E094E02EDB83E4F82EEE24E39456
:1010500092E0D92E20E4C22ED1E03ADB8091A800A4
:101060009091A900009749F06091A6007091A700A7
:101070006CDB1092A9001092A8008091A200882336
:1010800091F180E096DAA89581B5886181BDF1BCC7
:10109000379896B381E0292F287093FD80E08093E4
:1010A000A3002223B1F31092FD001092FC001092D5
:1010B000FB00E09298008BB780628BBF1092CA0051
:1010C0001092A5001092A4008091A200811159C035
:1010D000D09269008BB78F7D8BBFD8DCA89581B586
:1010E000886181BDC1BCE6DE109298008091BB0092
:1010F0009091BC0025E08430920709F062C0C09155
:101100006200CC0FC73908F0C6E914E08C2F51DA21
:1011100085E090E0D8DE809162004BDA81E490E0D7
:10112000D2DE115099F780ED92E0CDDE80E041DA19
:1011300094CF09E910E0C1E0D1E0CE01C8D0F801B8
:1011400081938F012196C730F1E0DF07B1F77894E2
:10115000809199008093960080919A00809362001C
:1011600080919B008093630080919C008093680035
:1011700080919D008093BD0080919E0080936400CB
:101180005ECF85B7877E806185BF85B7806285BF6A
:10119000889585B78F7D85BF8091A40081111092BD
:1011A000A2008091CA00882329F0D0936900D093CF
:1011B000BF00ADD88091A500882309F485CFD7DD85
:1011C00083CFE3E08D3C9E0739F58091BE00C0E0FF
:1011D000EC2FF0E0E25EFF4FE4918E17D8F406EAC0
:1011E000C11102C008E0C1E010E089E1E2D9C80104
:1011F0006ADE80E0DED98AEF90E065DEC150A9F7B3
:101200008AE992E060DE882309F427CF88EE93E034
:101210005ADE23CFCF5FDCCF81589440A9F4809170
:10122000A30081111ACF80916700C3D984E690E0B2
:101230004ADE80E0BED98091630090E068EE73E002
:101240000ED084569109E4CF85B7877E85BF85B7D8
:10125000806285BF889585B78F7D85BFFECE0024CF
:10126000552704C0080E591F880F991F009729F0B1
:1012700076956795B8F37105B9F7802D952F089588
:10128000AA1BBB1B51E107C0AA1FBB1FA617B707AC
:1012900010F0A61BB70B881F991F5A95A9F78095C8
:1012A0009095BC01CD01089597FB072E16F400948C
:1012B00006D077FD08D0E4DF07FC05D03EF490951A
:1012C00081959F4F0895709561957F4F0895E1999D
:1012D000FECF9FBB8EBBE09A99278DB30895262F32
:1012E000E199FECF9FBB8EBBE09A01970DB202162B
:1012F00039F01CBA2DBB0FB6F894E29AE19A0FBEF2
:061300000895F894FFCFF0
:10130600010141020E7801412D0200010201000097
:0E131600000000000100000000007878010ACD
:00000001FF
