:100000000C94D1000C94EE000C944E080C94EE006D
:100010000C94EE000C9448080C94EE000C94EE0046
:100020000C94EE000C94EE000C94EE000C94EE0098
:100030000C94EE000C94EE000C940F080C94EE005F
:100040000C94EE000C94EE000C94EE000C94EE0078
:100050000C94EE000C94EE000C94EE000C94EE0068
:100060000C94EE000C94EE000C94EE000C94EE0058
:100070001E2326282A630000000000000000000064
:100080000000000000000000000000000000000070
:100090000000000000000000000000000000000060
:1000A0000000000000000000000000000000000050
:1000B0000000000000000000010304050708090B10
:1000C0000C0E0F1113141618191B1D1F21232527A1
:1000D000292B2D30323437393B3E404346484B4E76
:1000E0005154575A5D606366696D7073777A7E818B
:1000F00085898D9094989CA0A5A9ADB1B6BABFC3CF
:10010000C8CDD1D6DBE0E5EAEFF4FAFF0101020247
:100110000303040405060708090A0C0D0E0F11134A
:100120001416181A1D1F2224272A2D3033373B3E60
:1001300042464B4F54595D63686E73797F868C934A
:100140009AA1A8B0B8C0C8D1D9E2ECF5FFFFFFFF73
:10015000FFFFFFFFFFFFFFFFFFFFFFFFFFFFFFFFAF
:10016000FFFFFFFFFFFFFFFFFFFFFFFFFFFFFFFF9F
:10017000FFFFFFFFFFFFFFFFFFFFFFFFFFFFFFFF8F
:10018000FFFFFFFFFFFFFFFFFFFFFFFFFFFFFFFF7F
:10019000FFFFFFFFFFFFFFFFFFFFFFFFFFFFFFFF6F
:1001A000FF0011241FBECFEFD4E0DEBFCDBF11E0B2
:1001B000A0E0B1E0E4EAF3E102C005900D92AE30B8
:1001C000B107D9F721E0AEE0B1E001C01D92AD3832
:1001D000B207E1F70E9454080C94D0090C94000077
:1001E000F89498ED9FBD83BF78940895482F362FDB
:1001F000272FEAE5F1E090E080E0508151110BC03B
:1002000063E070E00E949109FC01E65AFE4F4083D2
:100210003183228305C0019633968031910569F7B9
:100220000895BC0180918C010C94F6000F931F93EC
:10023000CF93C82F08EA17E0C15020F4CF911F9147
:100240000F91089582E00E94F000C8010197F1F734
:1002500080E00E94F000F0CF83B1886483B90895F4
:1002600080913001863018F482E00C94F0008E30DA
:1002700010F481E0FACF80E0F8CF809330018093D2
:100280002F0181110AC010926D0010926C00109223
:100290006B0010926A000C943001815090E0FC01D8
:1002A000E45FFE4FE491F0E0F0936D00E0936C00AA
:1002B0008A589F4FFC01849190E090936B0080934B
:1002C0006A00E9CF0F931F93CF93DF939C01409176
:1002D0002601842F90E0FC01E55FFE4F6081609372
:1002E0000501875F9E4FFC018081809304016217A6
:1002F000130609F09CF5821713061CF0411106C085
:10030000822FDF91CF911F910F910895861BC82FE7
:10031000D0E0AE01559547955595479540932501F9
:10032000469550E0F0E0E0E075E0CF0196958795C6
:1003300096958795860F082F10E0D901A01BB10B69
:10034000B7FF03C0D801A21BB30B4A175B07CCF65B
:100350007150EC0FFD1F7111E8CFD3CF862FD1CF95
:10036000809327010C943D01CF93C091300189E126
:100370008C0F873908F080E00E943D0182E00E94E6
:1003800016018C2FCF910C943D01CF93C091300179
:1003900080E00E943D0183E00E9416018C2FCF91E6
:1003A0000C943D010F931F93CF93DF93809126010F
:1003B000809329018091020180932A018091030199
:1003C00080932B018091070180932C0180914C0137
:1003D00080932D01F89409E211E0C1E8D0E0F80122
:1003E00061918F01CE010E94BE092196C638D105C8
:1003F000B1F765EA80E890E00E94BE097894DF9149
:10040000CF911F910F910895FF920F931F93CF9358
:10041000DF938C01D62FC72FF42E80914A01909143
:100420004B01892B31F0E0914A01F0914B0189E0B9
:10043000099510934B0100934A01012B41F0E09183
:100440004A01F0914B016D2F7C2F8F2D099581E092
:1004500080932801DF91CF911F910F91FF90089514
:1004600020913901283088F4E22FF0E0EE0FFF1FD1
:10047000E65CFE4F808391832F5F2093390148E033
:100480000E9404028091390108958FEF0895EF9240
:10049000FF921F93CF93DF9310915A01111106C061
:1004A000DF91CF911F91FF90EF900895E0905B0155
:1004B000F0905C01C0913901C1500C2E000CDD0B95
:1004C000C7FD0EC0FE01EE0FFF1FE65CFE4F019060
:1004D000F081E02DB701812F099521978111F0CF8F
:1004E000EAE5F1E083818083848195819283818331
:1004F000339681E0E738F807A9F710928701109248
:10050000890110928801C8CF0F931F93CF93DF9377
:10051000D82FC92F8B0120913901222319F02150A6
:1005200020933901E091390190E080E0EE2341F021
:10053000E150FF0BEE0FFF1FE65CFE4F80819181C3
:100540004AE070E060E00E940402B8018D2F9C2F09
:10055000DF91CF911F910F910C943002CF93DF93D5
:10056000EB01883069F480E00E943D01CD2B21F041
:1005700080E0DF91CF91089581E080933101F8CF41
:10058000813021F46931710598F3F7CF813BC1F4D3
:1005900080912601882339F061E070E089E395E0DD
:1005A0000E948402E5CF81E090E00E9462010E94F7
:1005B0003D016897E8F261E070E08AE893E0F0CFEF
:1005C000813EC9F3813841F48091060190E00E9498
:1005D00062010E943D01CCCF6091300170E0813C0E
:1005E00061F3823B11F486E9F4CF823E11F480E09E
:1005F000F0CF823C19F466E970E0DFCF8339B9F3BC
:10060000833C29F470E060E082E193E0C9CF843C50
:1006100039F40E94B40170E060E085E293E0C0CF5D
:1006200081E0A7CF813C41F470E060E08EEA92E087
:100630000E94840280E00895823C29F470E060E02A
:1006400085E895E0F5CF81E00895CF93C82F2C2F52
:100650002079203999F48C2F8F70823069F081E0F5
:100660000E943D01C43CC9F46091060170E08AE833
:1006700093E00E9484020DC084E1F2CF203811F48F
:1006800080E0EECFC13071F76931710510F0C09391
:100690003101C0E08C2FCF910895C43B89F40E94B2
:1006A000B40110928C01C091260161E070E089E3F1
:1006B00095E0C111DECF8AE893E00E948402EACF80
:1006C000C1E0E8CF843021F580914A0190914B013F
:1006D00025E0813B920739F469E170E08AE893E014
:1006E0000E9484020EC08A58934069F490913001B0
:1006F000923048F0892F869596959695890F0E949D
:10070000B00180E0089570E060E08EEA92E0E8CF0A
:1007100081E008951F93CF93DF93482F9B01E091D1
:100720000501D091040180912601882309F49CC120
:10073000C0912501483051F04A30B9F420910601AA
:1007400030E0811103C0E217130630F4D21713060C
:1007500019F010F020930601C9010E9462010E9465
:10076000B00181E08093010108C0413C59F470E080
:1007700060E08EEA92E00E94840280E0DF91CF91F7
:100780001F910895423C59F480913001863920F43C
:1007900086E90E94B001F1CF80910601FACF443C76
:1007A00041F480E00E943D0170E060E085E293E06A
:1007B000E2CF9FE4940F923008F047C0882339F0CD
:1007C000C90168E170E00E94A209892BB1F680910D
:1007D00030012115310529F5423BE9F48FEF809373
:1007E000010110913001809101016C2F70E0082E01
:1007F000000C990B0E949109810F911D0E946201CA
:10080000C82F80930601181721F08D1302C00E9493
:10081000C5018C2FBECF8D1708F7E81710F381E0C4
:10082000DECF273341E0340710F08D17B8F62D36B0
:100830003240B8F2E817A8F20E94B40170E060E01C
:1008400085E293E00E948402CCCF9FE1940F923026
:1008500020F480910101819585CF413009F0B1C02C
:100860002E33310511F44093010120912F01309175
:100870003001E22FE31BFF0BCF0160910E0170915D
:100880000F016F5F7F4F70930F0160930E013097E0
:1008900009F473CF40E052E0F7FF06C040E450E0B7
:1008A000383810F440E051E05695479597FD019691
:1008B000959587950097C1F74617570708F05DCFC4
:1008C000231708F04FC02FEF230F9FEF920F692FD0
:1008D00070E0AB01445F5E4FFA018491931708F01A
:1008E00046C0E0916C00F0916D00EF2B09F03FC025
:1008F0008F3F09F03CC08FEF90E090936D008093A4
:100900006C006A587F4FFB018491E0916A00F0917E
:100910006B0090E0E817F90708F045C080916A0085
:1009200090916B00019690936B0080936A00809188
:100930006C0090916D00FA0144914817190659F422
:1009400080916A0090916B00FB0164916817190611
:1009500011F4209330010E94300110920F01109287
:100960000E010BCF321708F0B0CF21E0ADCFE091F0
:100970006C00F0916D0090E0E817F90730F4809179
:100980006C0090916D000196B8CFE0916C00F091F1
:100990006D008E179F0708F0B4CF80916C00909186
:1009A0006D000197AACFE0916A00F0916B008E175D
:1009B0009F0708F0BCCF80916A0090916B0001976F
:1009C000B2CF4530A9F480913001823408F4D5CEFD
:1009D00090E0821B930B282F813491053CF08739DE
:1009E000910508F026E920932F01C7CE21E4FBCF23
:1009F0004630B1F49091300180912701981708F0AA
:100A0000BCCE290F311D90E08217930734F0C90145
:100A10002134310514F481E490E080932F01ADCEB0
:100A2000473069F490912F0180913001891710F4BB
:100A30008F5FF3CF981708F0A0CE8150EECF433CE4
:100A400089F491E0811190E0909326010E94D201F7
:100A50000E94C5018091300190E00E946201809364
:100A6000060197CE81E08ACEC1E0483009F064CE1D
:100A70006ACE282FCB01322F3D7F383029F481E018
:100A80000E94B00180E00895213C39F470E060E0FC
:100A90008EEA92E00E948402F5CF223C49F48091D4
:100AA00004018093060166E970E08AE893E0F2CFE2
:100AB000243C41F480E00E943D0170E060E085E26A
:100AC00093E0E8CF213B49F468E170E00E94A2097D
:100AD00061E070E0892BB1F6E8CF81E0233CA1F41E
:100AE00090912601911180E0809326010E94D2010D
:100AF0000E94C5018091300190E00E9462018093C4
:100B00000601682F70E0D1CF0895282FCB01213C3A
:100B100041F470E060E08EEA92E00E94840280E09E
:100B20000895223C29F470E060E081EB95E0F5CF78
:100B3000213B49F46EE370E00E94A209892B79F70A
:100B40000E94B401ECCF213E51F46EE370E00E94AC
:100B5000A2096F5F609303010E94D201E0CF81E0A0
:100B60000895883029F481E08093000180E00895A1
:100B7000813C39F470E060E08EEA92E00E948402E9
:100B8000F5CF823C29F470E060E082E193E0F6CF9B
:100B9000813B99F48091020190910001890F82308C
:100BA00040F482E080930201809102010E943D01A5
:100BB000DDCF8937B8F388E7F5CF813E41F48091E6
:100BC00000018195809300010E94D201CFCF823B2A
:100BD00049F481E08093000180910201833020F389
:100BE0008150E0CF823E81F381E008958DE084B9A9
:100BF00010925701109258010E942C01139A87EE0F
:100C000083B908950F931F93CF938091590188233F
:100C100009F45EC01092590130B181B120912E01CA
:100C2000329536953695337090E0880F991F880F6E
:100C3000991F830F911D820F80932E0180914E0189
:100C4000882309F445C010924E018091570181110B
:100C5000A7C08091080160914F01709150018823D5
:100C600041F0609153017091540170935001609371
:100C70004F01605F7F4FA6E076956795AA95E1F7F3
:100C800080E098E50E94A2096C5F7F4F769567959A
:100C900060934D0180912301882309F477C081502E
:100CA0008093230180913101811109C08EE884B9BC
:100CB00081E080935701109258010E942C0180918D
:100CC0000801882329F08091080181508093080150
:100CD00080913401882309F455C010923401809129
:100CE0008A0190918B019C012F5F3F4F882790785C
:100CF000822B932B90938B0180938A013091320148
:100D00009FB181E0292F247092FD80E08093320111
:100D10003817C1F090918C0110923101809332010B
:100D2000892F211109C180699F709F3009F002C18C
:100D300080938C0190E080E00E94110110928B0161
:100D400010928A0100918A0110918B01C0918C014F
:100D50008C2F807F803B09F0FCC070E060E081E078
:100D60000E94F600C8010E941101C0911001C1113A
:100D700005C00E942C0181E080934E01CF5FCF71AE
:100D8000C0931001CF911F910F9108956D3108F01C
:100D900089CF70E060E084E00E94F60085E080CFBB
:100DA000813009F08CCF80910801811151C0609190
:100DB000510170915201605F7F4FCB0145E09695E4
:100DC00087954A95E1F750914C0140911201E42F2B
:100DD000F0E0EE0FFF1FED5EFE4F20813181BC0180
:100DE000621B730B9B01918380834F5F477040931D
:100DF0001201660F771F660F771F680F791F8091AA
:100E0000070190E08D5E9E4F851B910957FD9395DC
:100E10000597880F991F681B790B83E01616170634
:100E20000CF045C0615071098150C1F716161706C4
:100E30000CF058C037FD75C0809111011816F4F5FB
:100E4000861B809311018DE084B91092570133CF36
:100E500080915501909156019093520180935101D8
:100E6000409635E0969587953A95E1F79093140171
:100E700080931301909316018093150190931801AC
:100E80008093170190931A018093190190931C018C
:100E900080931B0190931E0180931D01909320016C
:100EA00080931F01909322018093210180CF6115CF
:100EB000710509F4B9CF6F5F7F4FB6CF660F771F0B
:100EC0006530710564F0635071097595679588E127
:100ED000861B8093110185E00E94F600B4CF61E08B
:100EE00070E0F5CF6C3F8FEF7807DCF437FF19C067
:100EF0008091110187FF02C08450A2CF84EE861B2F
:100F00008093110180914D018F3108F49CCF8CEFBB
:100F10009FEF9C01261B370BB9017595679586E0FD
:100F2000DBCF80914D018E3108F48DCF70E060E011
:100F300087E0D2CF8F5FFCCE8F7E95FD08C08068A2
:100F400080938C0180918A0190918B01F5CE806C09
:100F5000F7CFB80181E00E94F600C4FF10C0C5FDC4
:100F600001CF0831110508F400CF10928B011092C7
:100F70008A01C062C0938C0190E080E0F4CECC2363
:100F800009F4F3CEC5FF0AC010928C0110928B01B8
:100F900010928A0181E080932801E7CE0231110589
:100FA00008F4E3CEC064C0938C0190E080E00E941E
:100FB0001101EACFEF92FF920F931F93CF93DF932C
:100FC000EC0108E017E082ECE82EFF24F394209770
:100FD00041F481E0DF91CF911F910F91FF90EF904D
:100FE000089580912801811118C0809130018630C8
:100FF00078F482E00E94F000C7010197F1F780E0E9
:101000000E94F0000E9402060E9447022197DFCF53
:1010100080E00E94F000C801F0CF80E0DBCF2F938A
:101020002FB72F933F938F939F93AF93BF93EF93DC
:10103000FF93809158018823E9F0E091570120B196
:1010400031B1F0E0EE0FFF1FDF01AD5ABE4F2D931F
:101050003C93E15BFE4F808191818217930708F4F6
:1010600001962817390708F401979183808381E05E
:101070008093590181E080935801FF91EF91BF91D6
:10108000AF919F918F913F912F912FBF2F911895E5
:101090008F9381E0809334018F9118958F9381E035
:1010A000809333018F911895F89485B7877F85BF1A
:1010B00090E088ED0FB6F894A8958FBD90B7977F14
:1010C00090BF0FBE88E08CB98AE780BB81EA80932D
:1010D000720081E08093710084E082BB87BD8CB791
:1010E00088608CBFA89580E480BF0E94F605789444
:1010F00081E00E94160170E060E082E693E00E94C9
:101100003002109228010E94B401F89480E890E027
:101110000E94B609853A09F489C0789461E070E0CC
:101120008EEA92E00E943002D8EDFF24F39482E030
:10113000E82E90E4D92E0E944702809137019091C9
:101140003801009751F060913501709136010E948D
:101150008402109238011092370180913101882366
:1011600009F437C080E00E943D01F894A89585B746
:10117000877F85BFDFBD10BE78941F989FB181E047
:10118000292F247092FD80E0809332012223B1F355
:1011900010928C0110928B0110928A01F09228011A
:1011A0008CB788608CBF1092310186B78F798064CC
:1011B00086BF86B7806186BF889586B78F7E86BFDB
:1011C000E09208018CB7877F8CBF0E94F605A89536
:1011D000D0BE0E9402061092280180914A0190918F
:1011E0004B0125E0813B920709F043C0C091020109
:1011F000CC0FC73908F0C6E914E08C2F0E943D01DE
:1012000085E090E00E94DA07809102010E943D0192
:1012100081E490E00E94DA07115079F780ED92E0C6
:101220000E94DA0780E00E943D0185CFC9E2D1E04B
:1012300001E810E0C8010E94B60989930F5F1F4FB3
:1012400006381105B9F77894809129018093260119
:1012500080912A018093020180912B0180930301E8
:1012600080912C018093070180912D0180934C0186
:1012700055CF23E08231920769F580914D01C0E09E
:10128000EC2FF0E0E059FF4FE4918E1708F506EAE5
:10129000C11102C008E0C1E010E089E10E943D01F7
:1012A000C8010E94DA0780E00E943D018AEF90E0C9
:1012B0000E94DA07C15089F78AE992E00E94DA07B2
:1012C000882309F438CF88EE93E00E94DA0733CF01
:1012D000CF5FD6CF85589540C9F4809132018111F6
:1012E0002ACF809106010E943D0184E690E00E9491
:1012F000DA0780E00E943D018091030190E068EEF2
:1013000073E00E94910984569109DFCF86B78F79E7
:1013100086BF86B7806186BF889586B78F7E86BF79
:101320000ACF0024552704C0080E591F880F991FA3
:10133000009729F076956795B8F37105B9F7802D78
:10134000952F0895AA1BBB1B51E107C0AA1FBB1F05
:10135000A617B70710F0A61BB70B881F991F5A9541
:10136000A9F780959095BC01CD010895E199FECF34
:101370001FBA8EBBE09A99278DB30895262FE19965
:10138000FECF1FBA8EBBE09A81500DB2021639F023
:101390001CBA2DBB0FB6F894E29AE19A0FBE0895DD
:0413A000F894FFCFEF
:0E13A400010141027801412D02786E01140012
:00000001FF
