:100000000C946B010C9488010C9488010C94510A97
:100010000C9488010C944B0A0C9488010C94880170
:100020000C9488010C9488010C9488010C9488012C
:100030000C9488010C9488010C94120A0C94880189
:100040000C9488010C9488010C9488010C9488010C
:100050000C9488010C9488010C9488010C948801FC
:100060000C9488010C9488010C9488010C948801EC
:10007000010504141011151E2326282A6300000010
:100080000000000000000000000000000000000070
:100090000000000000000000000000000000000060
:1000A0000000000000000000000000000000000050
:1000B0000000000000000000000000000000000040
:1000C0000000000000000000000000000000000030
:1000D0000000000000000000000000000000000020
:1000E0000000000000000000000000000000000010
:1000F0000000000000000000000000000000000000
:1001000000000000000000000000000000000000EF
:1001100000000000000000000000000000000000DF
:1001200000000000000000000000000000000000CF
:1001300000000000000000000000000000000000BF
:1001400000000000000000000000000000000000AF
:10015000000000000000000000000000000000009F
:100160000000000000000000000000000016003346
:10017000004F006D008A00A800C600E500040124BD
:1001800001440165018601A701C901EC010F02329A
:100190000256027A029F02C402EA02100336035D8D
:1001A000038503AD03D603FF030000000001000137
:1001B0000002000200030003000400040005000622
:1001C000000700080009000A000B000D000E000FD8
:1001D00000110013001400160018001A001C001E65
:1001E0000021002300260028002B002E00310034BF
:1001F0000037003B003E00420046004A004E0052DD
:100200000056005B006000640069006F00740079B4
:10021000007F0085008B00910097009E00A500AC38
:1002200000B300BA00C100C900D100D900E100EA62
:1002300000F300FB0005010E01180121012B01361E
:100240000140014B01560161016C0178018401906C
:10025000019C01A901B601C301D001DE01EC01FA44
:10026000010902180227023602460255026602768A
:100270000287029802A902BB02CD02DF02F2020449
:100280000318032B033F03530367037C039103A766
:1002900003BC03D203E903FF03FF03FF03FF03FFD4
:1002A00003FF03FF03FF03FF03FF03FF03FF03FF3E
:1002B00003FF03FF03FF03FF03FF03FF03FF03FF2E
:1002C00003FF03FF03FF03FF03FF03FF03FF03FF1E
:1002D00003FF0300000011241FBECFEFD4E0DEBFF8
:1002E000CDBF11E0A0E0B1E0E6E3F8E102C0059087
:1002F0000D92A833B107D9F721E0A8E3B1E001C01E
:100300001D92AB3BB207E1F70E94570A0C94190CFF
:100310000C940000F89498ED9FBD83BF78940895E5
:10032000482F362F272FE8E8F1E090E080E0508159
:1003300051110BC063E070E00E94BA0BFC01E8575A
:10034000FE4F40833183228305C00196339680316E
:10035000910569F70895BC018091BA010C94900150
:100360000F931F93CF93C82F08EA17E0C15020F4D2
:10037000CF911F910F91089582E00E948A01C801D8
:100380000197F1F780E00E948A01F0CF83B1886481
:1003900083B9089580915E01823018F482E00C9454
:1003A0008A018A3010F481E0FACF80E0F8CF882308
:1003B00021F0813031F0829A05C0829892988A9813
:1003C00008958298929A8A9A0895CF93DF9300D0E5
:1003D0000F92CDB7DEB720913401309135014091B5
:1003E000360129833A834B83FE01319650E040E089
:1003F000682F70E0A1E0B0E09B01042E02C03595AB
:1004000027950A94E2F7922F937081919D0101C084
:10041000220F8A95EAF7992329F09130C1F080B331
:10042000822B19C080B32095822380BB82B38223A4
:1004300082BB81B3282321BB4E5F5F4F46305105FD
:10044000D9F60F900F900F90DF91CF91089590B350
:10045000822F8095892380BB82B3822B82BB81B39C
:10046000282BE9CFCF93C82F80935E0180935D0145
:1004700080915F0181110DC00E94E50191E0C111E1
:1004800001C090E081E0CF3208F480E0890F0E9443
:10049000D701C1110CC010926D0010926C00109227
:1004A0006B0010926A006898CF910C94CA01689A08
:1004B000C1508C2F90E0880F991FFC01E755FE4F2B
:1004C0002591349130936D0020936C00FC01E3582A
:1004D000FF4F8591949190936B0080936A00E4CFD5
:1004E000CF92DF92EF92FF920F931F93CF939C01D5
:1004F00050915201852F90E0FC01EE5CFE4F40814F
:1005000040930901805D9E4FFC018081809308012A
:100510004217130609F0D4F5821713061CF0511187
:1005200009C0822FCF911F910F91FF90EF90DF9024
:10053000CF900895841BE82EF12CC70166E070E08F
:100540000E94EB0B609351016695E62FF0E010E0FE
:1005500000E0C7E086E0C82ED12CC801B6010E9499
:10056000D70B842F860FA82FB0E0B9016A1B7B0B35
:1005700077FF03C0BD01621B730BE617F70794F604
:10058000C1500E0D1F1DC111E8CFCCCF842FCACF93
:10059000CF93E82F862F90917B012FEF290F2C31DD
:1005A00038F480E00E94E50180E0CF910C94D701FF
:1005B000CE2FC295CF70EF7020915F01211103C043
:1005C000C33008F0C2E0E73010F4F0E02AC0E730B2
:1005D00009F045C02091390130E02F5F3F4FE09195
:1005E0000201F09103013196FB70F460F093030176
:1005F000E093020180915C018B5A80935C018491AD
:10060000E0915C018E0F65E00E94CB0BA901490FC0
:10061000511DCA0166E070E00E94EB0B8093390126
:10062000FC01E059FF4FE491C33071F4809138012F
:1006300090E0019663E170E00E94D70B809338014F
:10064000835F9E4FDC01CC91CC23E9F1C13011F0E6
:10065000EE0FC2E08E2F0E94E5018C2FA6CFE8306E
:10066000A9F490915F016FE0911101C063E08623CE
:1006700051F48091390190E0019666E070E00E94AB
:10068000EB0B80933901E09139019FCF20915F01FD
:10069000222381F080E09D3118F4E0E0C5CF8E5F29
:1006A000E82FF0E0E05EFE4F20819217C0F731970F
:1006B000E0818BCF869563E00E94CB0BE92FF0E0C1
:1006C000EE0FFF1FAECFE0E0C5CFCF93C0915E012C
:1006D00089E18C0F873908F080E00E94320282E0C5
:1006E0000E94B0018C2FCF910C943202CF93C09115
:1006F0005E0180E00E94320283E00E94B0018C2FF4
:10070000CF910C9432020F931F93CF93DF9380917C
:10071000520180935501809104018093560180918C
:1007200005018093570180910B01809358018091BE
:100730007A01809359018091070180935A01809139
:10074000060180935B0182E00E94B001F89405E508
:1007500011E0C1E8D0E0F80161918F01CE010E9463
:10076000070C2196C838D105B1F765EA80E890E01A
:100770000E94070C7894DF91CF911F910F910895FB
:100780001092870130B181B120915C01329536958C
:100790003695337090E0880F991F880F991F830F4B
:1007A000911D820F80935C0180917C01882309F464
:1007B00041C010927C018091850190915F01992345
:1007C00019F01F9810928501811143C080910C018E
:1007D000882389F1809181019091820190937E011B
:1007E00080937D01409696958795807F9F7761ECF9
:1007F00072E00E94D70B60937B0180914F018823A8
:10080000F9F0815080934F0180915F01811109C0FF
:100810008EE884B981E080938501109286010E9460
:10082000C60180910C01882329F080910C01815030
:1008300080930C01089580917D0190917E01D2CF2B
:100840006D3110F770E060E084E00E94900185E077
:10085000D9CF813031F780910C01811151C0609165
:100860007F0170918001605F7F4FCB0135E09695ED
:1008700087953A95E1F750917A0140913E01E42F36
:10088000F0E0EE0FFF1FE15CFE4F20813181BC01E3
:10089000621B730B9B01918380834F5F4770409372
:1008A0003E01660F771F660F771F680F791F8091D3
:1008B0000B0190E08D5E9E4F851B910957FD93952E
:1008C0000597880F991F681B790B83E0161617068A
:1008D0000CF045C0615071098150C1F7161617061A
:1008E0000CF055C037FD72C080913D011816F4F52B
:1008F000861B80933D0186E884B9109285018DCFD7
:1009000080918301909184019093800180937F0175
:10091000409625E0969587952A95E1F790934001BA
:1009200080933F0190934201809341019093440151
:100930008093430190934601809345019093480131
:100940008093470190934A018093490190934C0111
:1009500080934B0190934E0180934D0180CF6115A0
:10096000710509F4B9CF6F5F7F4FB6CF660F771F60
:10097000635071091616170614F061E070E080E10B
:10098000861B80933D0185E00E949001B4CF6C3FAF
:100990008FEF7807DCF437FF19C080913D0187FFA6
:1009A00002C08450A5CF8CEE861B80933D018091C0
:1009B0007B018F3108F49FCF8CEF9FEF9C01261BAA
:1009C000370BB9017595679586E0DECF80917B0185
:1009D0008E3108F490CF70E060E087E0D5CFFF92D1
:1009E0000F931F93CF93DF938C01D62FC72FF42E35
:1009F0008091780190917901892B31F0E091780113
:100A0000F091790189E009951093790100937801BB
:100A1000012B41F0E0917801F09179016D2F7C2F4D
:100A20008F2D099581E080935401DF91CF911F9123
:100A30000F91FF90089520916701283088F4E22FEC
:100A4000F0E0EE0FFF1FE859FE4F808391832F5F88
:100A50002093670148E00E94EF04809167010895A8
:100A60008FEF0895EF92FF921F93CF93DF93109132
:100A70008801111106C0DF91CF911F91FF90EF9077
:100A80000895E0908901F0908A01C0916701C150FA
:100A90000C2E000CDD0BC7FD0EC0FE01EE0FFF1F7C
:100AA000E859FE4F0190F081E02DB701812F0995A3
:100AB00021978111F0CFE8E8F1E083818083848180
:100AC000958192838183339681E0E53BF807A9F70E
:100AD0001092B5011092B7011092B601C8CF0F93D2
:100AE0001F93CF93DF93D82FC92F8B0120916701DC
:100AF000222319F0215020936701E091670190E0D3
:100B000080E0EE2341F0E150FF0BEE0FFF1FE859AC
:100B1000FE4F808191814AE070E060E00E94EF0426
:100B2000B8018D2F9C2FDF91CF911F910F910C94C5
:100B30001B05813C41F470E060E086ED95E00E9489
:100B40006F0580E00895823C29F470E060E084E75E
:100B500096E0F5CF81E00895843031F580917801F9
:100B60009091790127E08A31920739F469E170E0C8
:100B700080E797E00E946F0510C08057974079F496
:100B800090915E01923058F0892F869596959695B2
:100B9000890F809353010E94320280E0089570E033
:100BA00060E086ED95E0E6CF81E00895CF93DF9396
:100BB000EB01883091F480E00E94320260E0809185
:100BC00007010E94C802CD2B21F080E0DF91CF9178
:100BD000089581E080935F01F8CF813059F4693145
:100BE000710598F380935F016C2F809107010E943B
:100BF000C802EBCF8330C1F3813B99F481E090E0F0
:100C00000E9470020E94320280915201811102C042
:100C10006897D8F261E070E080E797E00E946F0586
:100C2000D4CF813EB9F3813841F480910A0190E03C
:100C30000E9470020E943202C8CF60915E0170E093
:100C4000813C51F3823B11F486E9F4CF823E11F4EA
:100C500080E0F0CF823C19F466E970E0DDCF8339A3
:100C6000B9F3833C29F470E060E089E995E0D6CFE0
:100C7000843C39F40E94650370E060E080EA96E00D
:100C8000CDCF873CA9F490910701892F82958F7071
:100C90008F5F83708295807F9F70892B809307017F
:100CA00060E00E94C8020E9483030E9465038DCF0A
:100CB000873B99F4CE018F739927892B09F094CF44
:100CC00020910701822F8F708F5F207F6BE00E9441
:100CD000CB0B922B9093070187CF873E19F40E948C
:100CE000830373CF81E072CF282FCB01213C41F4E5
:100CF00070E060E086ED95E00E946F0580E0089569
:100D0000223C29F470E060E08AE197E0F5CF213BD6
:100D100049F46EE370E00E94D70B892B79F70E94AB
:100D20006503ECCF213E51F46EE370E00E94D70BD7
:100D30006F5F609305010E948303E0CF81E0089517
:100D40000F931F93CF93C82F8B01873B79F480E0DB
:100D50000E943202C8018F739927892B09F44FC072
:100D6000602F809106010E94C8021BC080798039E3
:100D7000F9F48C2F8F708230C9F083E00E94320228
:100D800060910A0170E0C43C41F0C43B09F50E9447
:100D900065031092BA0161E070E080E797E00E947D
:100DA0006F0580E0CF911F910F9108958AE0E6CF03
:100DB000803811F480E0E2CFC83099F560E080918E
:100DC00006010E94C80281E0EDCFC330C9F6C8CF4A
:100DD000C73C11F590910601892F82958F708F5F26
:100DE00083708295807F9F70892B8093060160E0DD
:100DF0000E94C8020E9483030E946503D2CF209103
:100E00000601822F8F708F5F207F6BE00E94CB0BDB
:100E1000922B90930601A4CFC73EA9F60E948303AC
:100E2000C0CFC13091F60931110508F4BACFC09393
:100E30005F0196CF883029F481E08093000180E043
:100E40000895813C39F470E060E086ED95E00E9401
:100E50006F05F5CF823C29F470E060E089E995E008
:100E6000F6CF813B99F48091040190910001890FA4
:100E7000823040F482E080930401809104010E945A
:100E80003202DDCF8937B8F388E7F5CF813E41F4F0
:100E9000809100018195809300010E948303CFCF50
:100EA000823B49F481E0809300018091040183300A
:100EB00020F38150E0CF823E81F381E0089586E8FF
:100EC00084B910928501109286010E94C601E1E664
:100ED000F0E0808182608083139A87EE83B9089561
:100EE0001F93CF93DF93482F9B01E0910901D0918D
:100EF000080180915201C0915101811101C0C1E0EE
:100F0000483029F04A30B9F420910A0130E0E21764
:100F1000130630F4D217130619F010F020930A01CB
:100F2000C9010E947002809353010E94320281E045
:100F30008093010108C0413C59F470E060E086ED07
:100F400095E00E946F0580E0DF91CF911F91089599
:100F5000423C59F480915E01863920F486E9809301
:100F6000530140C080910A01FACF443C41F480E033
:100F70000E94320270E060E080EA96E0E2CF9FE4F7
:100F8000940F923008F04BC0882339F0C90168E112
:100F900070E00E94D70B892BB1F680915E0121157C
:100FA000310549F5423B09F58FEF8093010110911E
:100FB0005E01809101016C2F70E0082E000C990BEE
:100FC0000E94BA0B810F911D0E947002C82F80935E
:100FD0000A01181721F08D1302C00E947603C093F6
:100FE00053018C2F0E943202AECF8D17E8F6E8171E
:100FF000F0F281E0DACF273341E0340710F08D17AB
:1010000098F62D36324098F2E81788F20E94650370
:1010100070E060E080EA96E00E946F05C8CF9FE133
:10102000940F923020F480910101819581CF41305D
:1010300009F0B9C02E33310511F44093010130910C
:101040005D0120915E01432F421B550BCA01609147
:101050003A0170913B016F5F7F4F70933B0160934A
:101060003A01009709F46FCF40E052E097FF06C0C5
:1010700040E450E0253610F440E051E056954795A5
:1010800097FD0196959587950097C1F746175707E5
:1010900008F059CF321708F055C03FEF320FAFEFCD
:1010A000A30F8A2F90E0880F991FAC0147555E4F20
:1010B000FA0165917491A21708F049C0E0916C00A3
:1010C000F0916D00EF2B09F042C06F3F23E07207F3
:1010D00009F03DC070936D0060936C0083589F4F82
:1010E000FC0165917491E0916A00F0916B00E61744
:1010F000F70708F049C060916A0070916B006F5F5C
:101100007F4F70936B0060936A0060916C007091E8
:101110006D00FA01459154916417750761F440918F
:101120006A0050916B00FC01859194914817590712
:1011300011F430935E010E94CA0110923B0110929B
:101140003A0101CF231708F0AACF31E0A7CFE091F1
:101150006C00F0916D00E617F70738F460916C00B1
:1011600070916D006F5F7F4FB5CFE0916C00F09193
:101170006D006E177F0708F0B1CF60916C00709121
:101180006D0061507109A6CFE0916A00F0916B008B
:101190006E177F0708F0B9CF60916A0070916B00FD
:1011A00061507109AECF4530A9F480915E018F3254
:1011B00008F4C9CE90E0821B930B282F8E32910544
:1011C0003CF08739910508F026E920935D01BBCEFC
:1011D0002EE2FBCF4630B1F490915E018091530135
:1011E000981708F0B0CE290F311D90E082179307B1
:1011F00034F0C9012E32310514F48EE290E0809370
:101200005D01A1CE473069F490915D0180915E014E
:10121000891710F48F5FF3CF981708F094CE8150A0
:10122000EECF433C89F491E0811190E0909352011C
:101230000E9483030E94760380915E0190E00E94E9
:10124000700280930A018BCE81E07ECE0F931F93B4
:10125000CF93109262018091B8019091B9019C01E5
:101260002F5F3F4F88279078822B932B9093B90163
:101270008093B801309160019BB181E0292F2470E7
:1012800092FD80E0809360013817B9F010925F0101
:10129000809360019091BA01892F211137C0806934
:1012A0009F709F3089F58093BA0190E080E00E94A2
:1012B000AB011092B9011092B8010091B8011091E0
:1012C000B90180915F01882371F1B80183E00E9428
:1012D00090010E9432050F731127012B89F410929F
:1012E0003C010E945F07C0913C01C11105C00E94F2
:1012F000C60181E080937C01CF5FCF71C0933C0138
:10130000CF911F910F9108958F5FCDCF8F7E95FD67
:1013100008C080688093BA018091B8019091B901AA
:10132000C6CF806CF7CFC091BA018C2F807F803BF5
:1013300049F470E060E081E00E949001C8010E94E1
:10134000AB01D1CFB80181E00E949001C4FF0FC072
:10135000C5FDF4CF0831110530F21092B901109299
:10136000B801C062C093BA0190E080E0E8CFCC231E
:1013700009F4B9CFC5FF0AC01092BA011092B901A1
:101380001092B80181E080935401ADCF0231110574
:1013900008F4A9CFC064C093BA0190E080E00E9435
:1013A000AB01EACF8091870181110E94C003809137
:1013B000620181110C9426090895EF92FF920F9318
:1013C0001F93CF93DF93EC0108E017E082ECE82E47
:1013D000FF24F394209741F481E0DF91CF911F9196
:1013E0000F91FF90EF90089580915401811118C0E2
:1013F00080915E01823078F482E00E948A01C70108
:101400000197F1F780E00E948A010E94D2090E94B0
:1014100032052197DFCF80E00E948A01C801F0CF1A
:1014200080E0DBCF2F932FB72F933F938F939F9322
:10143000AF93BF93EF93FF93809186018823E9F0E8
:10144000E091850120B131B1F0E0EE0FFF1FDF0127
:10145000AF57BE4F2D933C93E358FE4F808191814F
:101460008217930708F401962817390708F40197A3
:101470009183808381E08093870181E0809386015E
:10148000FF91EF91BF91AF919F918F913F912F91DC
:101490002FBF2F9118958F9381E0809362018F91D8
:1014A00018958F9381E0809361018F911895F8943E
:1014B00085B7877F85BF90E088ED0FB6F894A89533
:1014C0008FBD90B7977F90BF0FBE89E08CB98CE736
:1014D00080BB83EA8093720081E08093710084E096
:1014E0008EB988BD8CB780618CBFA89580E480BF21
:1014F0000E945F07789481E00E94B00170E060E094
:101500008CEA95E00E941B05109254010E9465032D
:1015100082E00E94B001F89480E890E00E94FF0B06
:10152000853A09F481C0789461E070E086ED95E039
:101530000E941B0583E4F82EEE24E39492E0D92E5A
:1015400020E4C22ED1E00E94320580916501909185
:101550006601009751F060916301709164010E94EF
:101560006F05109266011092650180915F018823DA
:1015700071F180E00E943202A895F0BE1F989BB1E5
:1015800081E0292F247092FD80E080936001222366
:10159000B1F31092BA011092B9011092B801E09221
:1015A00054018CB780618CBF109287011092620148
:1015B0001092610180915F01811162C0D0920C0193
:1015C0008CB78F7E8CBF0E945F07A895C0BE0E941B
:1015D000D209109254018091780190917901F7E03D
:1015E0008A319F0709F06EC0C0910401CC0FC73942
:1015F00008F0C6E914E08C2F0E94320285E090E0EA
:101600000E94DD09809104010E94320281E490E091
:101610000E94DD09115079F780ED92E00E94DD090A
:1016200080E00E9432028FCF05E511E0C1E8D0E0F2
:10163000CE010E94FF0BF80181938F012196C838DB
:10164000D105B1F778948091550180935201809132
:101650005601809304018091570180930501809188
:10166000580180930B018091590180937A018091F8
:101670005A018093070180915B018093060154CF4A
:1016800086B78F79806486BF86B7806186BF88956C
:1016900086B78F7E86BF80916101811110925F01B4
:1016A00080918701882331F0D0930C01D0937C0185
:1016B0000E94C00380916201882309F47BCF0E94BD
:1016C000260978CF25E08939920769F580917B0159
:1016D000C0E0EC2FF0E0E958FF4FE4918E1708F5D9
:1016E00006EAC11102C008E0C1E010E089E10E94F1
:1016F0003202C8010E94DD0980E00E9432028AEFB6
:1017000090E00E94DD09C15089F78AE992E00E94C9
:10171000DD09882309F417CF88EE93E00E94DD09E4
:1017200012CFCF5FD6CF84579640C9F48091600125
:10173000811109CF80910A010E94320284E690E073
:101740000E94DD0980E00E9432028091050190E054
:1017500068EE73E00E94BA0B84569109DFCF86B71A
:101760008F7986BF86B7806186BF889586B78F7E62
:1017700086BFE9CE0024552704C0080E591F880FE4
:10178000991F009729F076956795B8F37105B9F719
:10179000802D952F0895991B79E004C0991F961705
:1017A00008F0961B881F7A95C9F780950895AA1BA3
:1017B000BB1B51E107C0AA1FBB1FA617B70710F03C
:1017C000A61BB70B881F991F5A95A9F7809590956E
:1017D000BC01CD01089597FB072E16F4009407D0A5
:1017E00077FD09D00E94D70B07FC05D03EF49095F9
:1017F00081959F4F0895709561957F4F0895E19968
:10180000FECF1FBA8EBBE09A99278DB30895262F7D
:10181000E199FECF1FBA8EBBE09A81500DB202163D
:1018200039F01CBA2DBB0FB6F894E29AE19A0FBEBC
:061830000895F894FFCFBB
:10183600010100047802371978032E2D02020100F7
:101846000000000000000100000000000000000190
:101856000000210123022503270429052C06FF0683
:081866007878030A0504030071
:00000001FF
