:100000000C946B010C9488010C94640A0C94880184
:100010000C9488010C945E0A0C9488010C9488015D
:100020000C9488010C9488010C9488010C9488012C
:100030000C9488010C9488010C94250A0C94880176
:100040000C9488010C9488010C9488010C9488010C
:100050000C9488010C9488010C9488010C948801FC
:100060000C9488010C9488010C9488010C948801EC
:10007000010504141011151E2326282A6300000010
:100080000000000000000000000000000000000070
:100090000000000000000000000000000000000060
:1000A0000000000000000000000000000000000050
:1000B0000000000000000000000000000000000040
:1000C0000000000000000000000000000000000030
:1000D0000000000000000000000000000000000020
:1000E0000000000000000000000000000000000010
:1000F0000000000000000000000000000000000000
:1001000000000000000000000000000000000000EF
:1001100000000000000000000000000000000000DF
:1001200000000000000000000000000000000000CF
:1001300000000000000000000000000000000000BF
:1001400000000000000000000000000000000000AF
:10015000000000000000000000000000000000009F
:10016000000000000000000000000000000000008F
:10017000000000000000000000000000000000007F
:10018000000000000000000000000000000000006F
:10019000000000000000000000000000000000005F
:1001A00000000000000000FF030100010001000149
:1001B000000200020002000200030003000300042A
:1001C00000040005000500060006000700080008FE
:1001D0000009000A000B000C000D000E000F0010BB
:1001E000001100120014001500170018001A001B5F
:1001F000001D001F00210023002500270029002BDF
:10020000002D0030003200350038003A003D00403B
:1002100000430046004A004D005000540058005B67
:10022000005F00630067006C007000740079007D5F
:1002300000820087008C00910096009C00A100A71E
:1002400000AD00B200B800BF00C500CB00D200D99D
:1002500000DF00E600EE00F500FC0004010C0113D5
:10026000011B0124012C0134013D0146014F0158BD
:100270000161016B0174017E01880192019D01A75A
:1002800001B201BD01C801D301DE01EA01F601029C
:10029000020E021A022702330240024D025B02687C
:1002A00002760284029202A002AF02BE02CD02DCFC
:1002B00002EB02FB020A031A032B033B034C035D10
:1002C000036E037F039103A303B503C703D903ECB4
:1002D00003FF0300000011241FBECFEFD4E0DEBFF8
:1002E000CDBF11E0A0E0B1E0ECE5F8E102C005907F
:1002F0000D92A833B107D9F721E0A8E3B1E001C01E
:100300001D92AB3BB207E1F70E946A0A0C942C0CD9
:100310000C940000482F362F272FE8E8F1E090E0FA
:1003200080E0508151110BC063E070E00E94CD0B62
:10033000FC01E857FE4F40833183228305C00196BC
:1003400033968031910569F70895BC018091BA0117
:100350000C948A0128E13FE1815008F40895F901E5
:100360003197F1F7F9CF83B1886483B90895CF93BA
:10037000DF9300D00F92CDB7DEB7209134013091DA
:1003800035014091360129833A834B83FE01319632
:1003900050E040E0682F70E0A1E0B0E09B01042E47
:1003A00002C0359527950A94E2F7922F93708191B8
:1003B0009D0101C0220F8A95EAF7992329F0913017
:1003C000C1F080B3822B19C080B32095822380BBFB
:1003D00082B3822382BB81B3282321BB4E5F5F4F50
:1003E00046305105D9F60F900F900F90DF91CF91C5
:1003F000089590B3822F8095892380BB82B3822B8E
:1004000082BB81B3282BE9CFCF92DF92EF92FF928C
:100410000F931F93CF939C0150915201852F90E031
:10042000FC01EE5CFE4F408140930901805D9E4FD0
:10043000FC018081809308014217130609F0D4F56E
:10044000821713061CF0511109C0822FCF911F9102
:100450000F91FF90EF90DF90CF900895841BE82ECE
:10046000F12CC70163E070E00E94FE0B6093510124
:100470006695E62FF0E010E000E0C4E083E0C82ECF
:10048000D12CC801B6010E94EA0B842F860FA82F39
:10049000B0E0B9016A1B7B0B77FF03C0BD01621B93
:1004A000730BE617F70794F6C1500E0D1F1DC1110F
:1004B000E8CFCCCF842FCACFE82F862F90917B0135
:1004C0002FEF290F2C3118F480E00C94B7012E2F58
:1004D00022952F70EF7030915F01311103C02330EE
:1004E00008F022E0E73010F4F0E02AC0E73009F02D
:1004F00042C04091390150E04F5F5F4FE0910201EF
:10050000F09103013196FB70F460F0930301E093E6
:10051000020180915C018B5A80935C018491E0918F
:100520005C018E0F65E00E94DE0BBA01690F711D40
:10053000CB0166E070E00E94FE0B80933901FC0164
:10054000E059FF4FE491233071F48091380190E03D
:10055000019663E170E00E94EA0B80933801835FAB
:100560009E4FDC012C91222321F02130C1F12E2F4E
:10057000220F822FAACFE830A9F490915F016FE09B
:10058000911101C063E0862351F48091390190E01C
:10059000019666E070E00E94FE0B80933901E091C5
:1005A0003901A2CF30915F01332381F080E09D318A
:1005B00018F4E0E0C8CF8E5FE82FF0E0E05EFE4F79
:1005C00030819317C0F73197E0818ECF869563E035
:1005D0000E94DE0BE92FF0E0EE0FFF1FB1CF2E2FB0
:1005E000C8CF0F931F93CF93DF93809152018093D5
:1005F00055018091040180935601809105018093FB
:10060000570180910B018093580180917A0180936A
:1006100059018091070180935A01809106018093CE
:100620005B0182E00E94AA01F89405E511E0C1E8AF
:10063000D0E0F80161918F01CE010E941A0C219641
:10064000C838D105B1F765EA80E890E00E941A0C3D
:100650007894DF91CF911F910F91089510928701A7
:1006600030B181B120915C01329536953695337069
:1006700090E0880F991F880F991F830F911D820F9B
:1006800080935C0180917C01882309F441C0109221
:100690007C018091850190915F01992319F01F9849
:1006A00010928501811143C080910C01882389F14A
:1006B000809181019091820190937E0180937D01D0
:1006C000409696958795807F9F776EE872E00E94AE
:1006D000EA0B60937B0180914F018823F9F08150F0
:1006E00080934F0180915F01811109C08BE084B933
:1006F00081E080938501109286010E94B301809170
:100700000C01882329F080910C01815080930C0109
:10071000089580917D0190917E01D2CF6D3110F7C7
:1007200070E060E084E00E948A0185E0D9CF8130EA
:1007300031F780910C01811150C060917F0170915F
:100740008001605F7F4F9B0145E0369527954A9574
:10075000E1F7A0917A0180913E01E82FF0E0EE0FE1
:10076000FF1FE15CFE4F40815181B901641B750B95
:10077000AB01318320838F5F877080933E01660FCA
:10078000771F660F771F80910B0190E08D5E9E4F63
:100790008A1B9109A7FD9395880F991F681B790BF8
:1007A000620F731F83E0161617060CF045C06150E8
:1007B00071098150C1F7161617060CF058C057FD85
:1007C00075C080913D011816F4F5861B80933D019C
:1007D00085E084B9109285018ECF8091830190913C
:1007E00084019093800180937F01409635E0969537
:1007F00087953A95E1F79093400180933F0190935C
:10080000420180934101909344018093430190936E
:10081000460180934501909348018093470190934E
:100820004A018093490190934C0180934B0190932E
:100830004E0180934D0181CF6115710509F4B9CF47
:100840006F5F7F4FB6CF660F771F6530710564F01D
:10085000635071097595679588E1861B80933D010A
:1008600085E00E948A01B4CF61E070E0F5CF6C3F73
:100870008FEF7807DCF457FF19C080913D0187FFA7
:1008800002C08450A2CF84EE861B80933D018091EC
:100890007B018F3108F49CCF8CEF9FEF9C01261BCE
:1008A000370BB9017595679586E0DBCF80917B01A9
:1008B0008E3108F48DCF70E060E087E0D2CFCF9327
:1008C000C82F80935E0180935D0180915F0181114B
:1008D00002C00E94B701C1110BC010926B001092B0
:1008E0006A0010926D0010926C008F98CF9108955D
:1008F000C150C539C0F48F9A8C2F90E0880F991F92
:10090000FC01E755FE4F2591349130936B00209305
:100910006A00FC01E358FF4F8591949190936D001C
:1009200080936C00E3CF8F98E7CF809353010C94B2
:100930005F04CF93C0915E0189E18C0F873908F085
:1009400080E00E945F0482E00E94AA018C2FCF9178
:100950000C945F04CF93C0915E0180E00E945F041D
:1009600083E00E94AA018C2FCF910C945F04FF9228
:100970000F931F93CF93DF938C01D62FC72FF42EA5
:100980008091780190917901892B31F0E091780183
:10099000F091790189E0099510937901009378012C
:1009A000012B41F0E0917801F09179016D2F7C2FBE
:1009B0008F2D099581E080935401DF91CF911F9194
:1009C0000F91FF90089520916701283088F4E22F5D
:1009D000F0E0EE0FFF1FE859FE4F808391832F5FF9
:1009E0002093670148E00E94B70480916701089551
:1009F0008FEF0895EF92FF921F93CF93DF931091A3
:100A00008801111106C0DF91CF911F91FF90EF90E7
:100A10000895E0908901F0908A01C0916701C1506A
:100A20000C2E000CDD0BC7FD0EC0FE01EE0FFF1FEC
:100A3000E859FE4F0190F081E02DB701812F099513
:100A400021978111F0CFE8E8F1E0838180838481F0
:100A5000958192838183339681E0E53BF807A9F77E
:100A60001092B5011092B7011092B601C8CF0F9342
:100A70001F93CF93DF93D82FC92F8B01209167014C
:100A8000222319F0215020936701E091670190E043
:100A900080E0EE2341F0E150FF0BEE0FFF1FE8591D
:100AA000FE4F808191814AE070E060E00E94B704CF
:100AB000B8018D2F9C2FDF91CF911F910F910C9436
:100AC000E304813C41F470E060E08CE995E00E9431
:100AD000370580E00895823C29F470E060E088E406
:100AE00098E0F5CF81E00895843021F58091780178
:100AF0009091790128E08A3F920739F469E170E02A
:100B00008FE396E00E9437050EC08F53964069F43C
:100B100090915E01923048F0892F86959695969532
:100B2000890F0E94950480E0089570E060E08CE9F0
:100B300095E0E8CF81E00895CF93DF93EB01883013
:100B400091F480E00E945F0460E0809107010E94C0
:100B50005C02CD2B21F080E0DF91CF91089581E000
:100B600080935F01F8CF813059F46931710598F3B2
:100B700080935F016C2F809107010E945C02EBCF94
:100B80008330C1F3813BC1F480915201882339F055
:100B900061E070E08CEF97E00E943705DCCF81E0E8
:100BA00090E00E9404020E945F046897A0F261E056
:100BB00070E08FE396E0F0CF813EC9F3813841F4D5
:100BC00080910A0190E00E9404020E945F04C3CF5A
:100BD00060915E0170E0813C61F3823B11F486E933
:100BE000F4CF823E11F480E0F0CF823C19F466E944
:100BF00070E0DFCF8339B9F3833C29F470E060E023
:100C000081E695E0C9CF843C39F40E94990470E0F4
:100C100060E084E798E0C0CF873CA9F49091070199
:100C2000892F82958F708F5F83708295807F9F70F0
:100C3000892B8093070160E00E945C020E94F10210
:100C40000E94990488CF873B99F4CE018F7399272E
:100C5000892B09F08FCF20910701822F8F708F5F32
:100C6000207F6BE00E94DE0B922B9093070182CFD6
:100C7000873E19F40E94F1026ECF81E06DCF1F9381
:100C8000CF93DF93482F9B01E0910901D091080198
:100C900080915201882309F4AAC1C09151014830C2
:100CA00051F04A30B9F420910A0130E0811103C0BB
:100CB000E217130630F4D217130619F010F0209340
:100CC0000A01C9010E9404020E94950481E08093F8
:100CD000010108C0413C59F470E060E08CE995E006
:100CE0000E94370580E0DF91CF911F910895423C2B
:100CF00059F480915E01863920F486E90E949504BA
:100D0000F1CF80910A01FACF443C41F480E00E9487
:100D10005F0470E060E084E798E0E2CF9FE4940F26
:100D2000923008F047C0882339F0C90168E170E0CB
:100D30000E94EA0B892BB1F680915E0121153105E5
:100D400029F5423BE9F48FEF8093010110915E0198
:100D5000809101016C2F70E0082E000C990B0E940D
:100D6000CD0B810F911D0E940402C82F80930A01B0
:100D7000181721F08D1302C00E94AA048C2FBECF39
:100D80008D1708F7E81710F381E0DECF273341E035
:100D9000340710F08D17B8F62D363240B8F2E81748
:100DA000A8F20E94990470E060E084E798E00E9455
:100DB0003705CCCF9FE1940F923020F48091010150
:100DC000819585CF413009F0BFC02E33310511F434
:100DD0004093010120915D0130915E01422F431B40
:100DE000550BCA0160913A0170913B016F5F7F4FD3
:100DF00070933B0160933A01009709F473CF40E090
:100E000052E097FF06C040E450E03D3810F440E067
:100E100051E05695479597FD0196959587950097D2
:100E2000C1F74617570708F05DCF231708F059C0E0
:100E30002FEF230F3FEF320F353908F057C08F9A4D
:100E4000632F70E0660F771FCB0187559E4FFC0123
:100E500045915491E0915E013E1708F049C0E09140
:100E60006A00F0916B00EF2B09F042C04F3F33E076
:100E7000530709F03DC050936B0040936A006358DC
:100E80007F4FFB0145915491E0916C00F0916D0012
:100E9000E417F50708F049C040916C0050916D00CF
:100EA0004F5F5F4F50936D0040936C0040916A001C
:100EB00050916B00FC01859194914817590761F49A
:100EC00040916C0050916D00FB0185919491481701
:100ED000590711F420935E0110923B0110923A01E0
:100EE00001CF321708F0A6CF21E0A3CF8F98A8CF6B
:100EF000E0916A00F0916B00E417F50738F4409137
:100F00006A0050916B004F5F5F4FB5CFE0916A0070
:100F1000F0916B004E175F0708F0B1CF40916A0067
:100F200050916B0041505109A6CFE0916C00F091B7
:100F30006D004E175F0708F0B9CF40916C005091DB
:100F40006D0041505109AECF4530A9F480915E014A
:100F5000863908F4C7CE90E0821B930B282F853981
:100F600091053CF08739910508F026E920935D0151
:100F7000B9CE25E9FBCF4630B1F490915E01809166
:100F80005301981708F0AECE290F311D90E082175B
:100F9000930734F0C9012539310514F485E990E04F
:100FA00080935D019FCE473069F490915D018091FF
:100FB0005E01891710F48F5FF3CF981708F092CE77
:100FC0008150EECF433C89F491E0811190E0909301
:100FD00052010E94F1020E94AA0480915E0190E0F9
:100FE0000E94040280930A0189CE81E07CCEC1E098
:100FF000483009F056CE5CCE282FCB01322F3D7FF2
:10100000383029F481E00E94950480E00895213C65
:1010100039F470E060E08CE995E00E943705F5CF87
:10102000223C49F48091080180930A0166E970E04E
:101030008FE396E0F2CF243C41F480E00E945F040D
:1010400070E060E084E798E0E8CF213B49F468E194
:1010500070E00E94EA0B61E070E0892BB1F6E8CF06
:1010600081E0233CA1F490915201911180E08093A2
:1010700052010E94F1020E94AA0480915E0190E058
:101080000E94040280930A01682F70E0D1CF089576
:10109000282FCB01213C41F470E060E08CE995E021
:1010A0000E94370580E00895223C29F470E060E05A
:1010B0008AEF98E0F5CF213B49F46EE370E00E949F
:1010C000EA0B892B79F70E949904ECCF213E51F469
:1010D0006EE370E00E94EA0B6F5F609305010E946F
:1010E000F102E0CF81E008950F931F93CF93C82FB3
:1010F0008B01873B79F480E00E945F04C8018F7305
:101100009927892B09F45BC0602F809106010E940A
:101110005C0221C08079803911F58C2F8F7082306C
:10112000E1F081E00E945F0460910A0170E08FE3CA
:1011300096E0C43C71F0C43B59F50E9499041092AA
:10114000BA01C091520161E070E0CC23C1F08CEF94
:1011500097E00E943705C0E016C08AE0E3CF8038F0
:1011600011F480E0DFCFC830E1F560E08091060146
:101170000E945C02C1E007C0C330B1F6C5CF8FE367
:1011800096E00E9437058C2FCF911F910F91089503
:10119000C73C11F590910601892F82958F708F5F62
:1011A00083708295807F9F70892B8093060160E019
:1011B0000E945C020E94F1020E949904CCCF20910F
:1011C0000601822F8F708F5F207F6BE00E94DE0B05
:1011D000922B9093060198CFC73E61F60E94F102D0
:1011E000BACFC13049F60931110508F4B4CFC09324
:1011F0005F018ACF883029F481E08093000180E08C
:101200000895813C39F470E060E08CE995E00E943B
:101210003705F5CF823C29F470E060E081E695E087
:10122000F6CF813B99F48091040190910001890FE0
:10123000823040F482E080930401809104010E9496
:101240005F04DDCF8937B8F388E7F5CF813E41F4FD
:10125000809100018195809300010E94F102CFCF1F
:10126000823B49F481E08093000180910401833046
:1012700020F38150E0CF823E81F381E0089585E044
:1012800084B910928501109286010E94B301E1E6B3
:10129000F0E0808181608083139A86EE83B908959F
:1012A0000F931F93CF93109262018091B801909198
:1012B000B9019C012F5F3F4F88279078822B932B99
:1012C0009093B9018093B801309160019FB181E0A2
:1012D000292F247092FD80E0809360013817B9F0C7
:1012E00010925F01809360019091BA01892F2111C2
:1012F00037C080699F709F3089F58093BA0190E074
:1013000080E00E94A5011092B9011092B8010091ED
:10131000B8011091B90180915F01882371F1B80182
:1013200083E00E948A010E94FA040F731127012BA7
:1013300089F410923C010E943F09C0913C01C11107
:1013400005C00E94B30181E080937C01CF5FCF7123
:10135000C0933C01CF911F910F9108958F5FCDCF26
:101360008F7E95FD08C080688093BA018091B80196
:101370009091B901C6CF806CF7CFC091BA018C2F84
:10138000807F803B49F470E060E081E00E948A0148
:10139000C8010E94A501D1CFB80181E00E948A0155
:1013A000C4FF0FC0C5FDF4CF0831110530F2109213
:1013B000B9011092B801C062C093BA0190E080E018
:1013C000E8CFCC2309F4B9CFC5FF0AC01092BA0107
:1013D0001092B9011092B80181E080935401ADCF11
:1013E0000231110508F4A9CFC064C093BA0190E09E
:1013F00080E00E94A501EACF8091870181110E94BF
:101400002E038091620181110C94500908950F936D
:101410001F93CF93DF93EC0108E017E0209731F49E
:1014200081E0DF91CF911F910F9108958091540138
:101430002197811108C0C8010197F1F70E94FC09AA
:101440000E94FA04EBCF80E0ECCF2F932FB72F93BD
:101450003F938F939F93AF93BF93EF93FF938091AD
:1014600086018823E9F0E091850120B131B1F0E0F7
:10147000EE0FFF1FDF01AF57BE4F2D933C93E35894
:10148000FE4F808191818217930708F401962817F7
:10149000390708F401979183808381E08093870165
:1014A00081E080938601FF91EF91BF91AF919F9171
:1014B0008F913F912F912FBF2F9118958F9381E09E
:1014C000809362018F9118958F9381E080936101E1
:1014D0008F911895F89485B7877F85BF90E088ED48
:1014E0000FB6F894A8958FBD90B7977F90BF0FBEA9
:1014F00088E08CB988EF80BB83EA8093720081E03A
:101500008093710084E082BB87BD8CB788608CBFFC
:10151000A89580E480BF0E943F09789481E00E94F2
:10152000AA0170E060E084E795E00E94E304109275
:1015300054010E94990482E00E94AA01F89480E874
:1015400090E00E94120C853A09F481C0789461E021
:1015500070E08CE995E00E94E30483E4F82EEE2429
:10156000E39492E0D92E20E4C22ED1E00E94FA0446
:101570008091650190916601009751F0609163013F
:10158000709164010E943705109266011092650106
:1015900080915F01882371F180E00E945F04A8952B
:1015A000F0BE1F989FB181E0292F247092FD80E04A
:1015B000809360012223B1F31092BA011092B90115
:1015C0001092B801E09254018CB788608CBF1092E1
:1015D0008701109262011092610180915F01811177
:1015E00062C0D0920C018CB7877F8CBF0E943F09EC
:1015F000A895C0BE0E94FC09109254018091780108
:1016000090917901F8E08A3F9F0709F06EC0C09180
:101610000401CC0FC73908F0C6E914E08C2F0E94F2
:101620005F0485E090E00E94070A809104010E9417
:101630005F0481E490E00E94070A115079F780ED81
:1016400092E00E94070A80E00E945F048FCF05E5C8
:1016500011E0C1E8D0E0CE010E94120CF8018193A4
:101660008F012196C838D105B1F778948091550142
:10167000809352018091560180930401809157011B
:10168000809305018091580180930B01809159014D
:1016900080937A0180915A018093070180915B01C8
:1016A0008093060154CF86B78F79806486BF86B752
:1016B000806186BF889586B78F7E86BF80916101E5
:1016C000811110925F0180918701882331F0D093BE
:1016D0000C01D0937C010E942E038091620188232B
:1016E00009F47BCF0E94500978CF25E0813692071C
:1016F00069F580917B01C0E0EC2FF0E0E958FF4FE5
:10170000E4918E1708F506EAC11102C008E0C1E0B5
:1017100010E089E10E945F04C8010E94070A80E08E
:101720000E945F048AEF90E00E94070AC15089F787
:101730008AE992E00E94070A882309F417CF88EE0D
:1017400093E00E94070A12CFCF5FD6CF885498400B
:10175000C9F480916001811109CF80910A010E9432
:101760005F0484E690E00E94070A80E00E945F0424
:101770008091050190E068EE73E00E94CD0B8456E5
:101780009109DFCF86B78F7986BF86B7806186BF24
:10179000889586B78F7E86BFE9CE0024552704C082
:1017A000080E591F880F991F009729F076956795A5
:1017B000B8F37105B9F7802D952F0895991B79E03D
:1017C00004C0991F961708F0961B881F7A95C9F7D1
:1017D00080950895AA1BBB1B51E107C0AA1FBB1F20
:1017E000A617B70710F0A61BB70B881F991F5A95AD
:1017F000A9F780959095BC01CD01089597FB072E20
:1018000016F4009407D077FD09D00E94EA0B07FC7C
:1018100005D03EF4909581959F4F08957095619500
:101820007F4F0895E199FECF1FBA8EBBE09A9927AA
:101830008DB30895262FE199FECF1FBA8EBBE09A93
:1018400081500DB2021639F01CBA2DBB0FB6F894B8
:0C185000E29AE19A0FBE0895F894FFCFD1
:10185C00010100049502371895013832020201008B
:10186C00000000000000010000000000000000016A
:10187C000000210123022503270429052C06FF065D
:08188C009595010A0504030013
:00000001FF
