:100000000C94D5000C94F2000C94F2000C94BC09F2
:100010000C94F2000C94B6090C94F2000C94F200CB
:100020000C94F2000C94F2000C94F2000C94F20088
:100030000C94F2000C94F2000C947D090C94F200E4
:100040000C94F2000C94F2000C94F2000C94F20068
:100050000C94F2000C94F2000C94F2000C94F20058
:100060000C94F2000C94F2000C94F2000C94F20048
:10007000010504141011151E2326282A6300000010
:10008000000100010002000200030003000400045C
:10009000000500050006000700080009000A000B23
:1000A000000C000D000F00100011001200140015CC
:1000B00000170018001A001B001D001F002100235C
:1000C000002500270029002B002D003000320035CC
:1000D0000037003A003D003F004200450048004B19
:1000E000004F005200550059005C00600064006839
:1000F000006C007000740078007D00810086008A2A
:10010000008F00940099009E00A300A900AE00B4E7
:1001100000B900BF00C500CB00D100D700DE00E46D
:1001200000EB00F200F800FF0007010E0115011DB1
:100130000124012C0134013C0144014D0155015EB3
:100140000167017001790182018B0195019E01A86F
:1001500001B201BC01C601D101DB01E601F101FCE4
:1001600001070213021E022A02360242024E025BFD
:10017000026702740281028E029B02A802B602C4C8
:1001800002D202E002EE02FD020B031A0329033938
:1001900003480358036803780388039803A903BA44
:1001A00003CB03DC03ED03FF030011241FBECFEFDD
:1001B000D4E0DEBFCDBF11E0A0E0B1E0ECE0F7E1BC
:1001C00002C005900D92A833B107D9F721E0A8E34A
:1001D000B1E001C01D92AB3BB207E1F70E94C2093A
:1001E0000C94840B0C940000F89498ED9FBD83BF91
:1001F00078940895482F362F272FE8E8F1E090E013
:1002000080E0508151110BC063E070E00E94250B2B
:10021000FC01E857FE4F40833183228305C00196DD
:1002200033968031910569F70895BC018091BA0138
:100230000C94FA000F931F93CF93C82F08EA17E08E
:10024000C15020F4CF911F910F91089582E00E9438
:10025000F400C8010197F1F780E00E94F400F0CFAC
:1002600083B1886483B9089580915E01823018F467
:1002700082E00C94F4008A3010F481E0FACF80E040
:10028000F8CF882321F0813031F0829A05C082981E
:1002900092988A9808958298929A8A9A0895CF930C
:1002A000DF9300D00F92CDB7DEB7209133013091AC
:1002B00034014091350129833A834B83FE01319605
:1002C00050E040E0682F70E0A1E0B0E09B01042E18
:1002D00002C0359527950A94E2F7922F9370819189
:1002E0009D0101C0220F8A95EAF7992329F09130E8
:1002F000C1F080B3822B19C080B32095822380BBCC
:1003000082B3822382BB81B3282321BB4E5F5F4F20
:1003100046305105D9F60F900F900F90DF91CF9195
:10032000089590B3822F8095892380BB82B3822B5E
:1003300082BB81B3282BE9CFCF93C82F80935E0176
:1003400080935D0180915F0181110DC00E944F017A
:1003500091E0C11101C090E081E0C33308F480E076
:10036000890F0E944101C11108C010926D001092C6
:100370006C006898CF910C943401689AC150EC2FAE
:10038000F0E0EE0FFF1FE358FF4F8591949190939B
:100390006D0080936C00EECFCF92DF92EF92FF92D0
:1003A0000F931F93CF939C0150915201852F90E0A2
:1003B000FC01EF5CFE4F408140930801815D9E4F40
:1003C000FC018081809307014217130609F0D4F5E0
:1003D000821713061CF0511109C0822FCF911F9173
:1003E0000F91FF90EF90DF90CF900895841BE82E3F
:1003F000F12CC70163E070E00E94560B609351013D
:100400006695E62FF0E010E000E0C4E083E0C82E3F
:10041000D12CC801B6010E94420B842F860FA82F51
:10042000B0E0B9016A1B7B0B77FF03C0BD01621B03
:10043000730BE617F70794F6C1500E0D1F1DC1117F
:10044000E8CFCCCF842FCACF809353010C949C016A
:10045000CF93E82F862F90917B012FEF290F2C311E
:1004600038F480E00E944F0180E0CF910C9441016C
:10047000CE2FC295CF70EF7020915F01211103C084
:10048000C33008F0C2E0E73010F4F0E02AC0E730F3
:1004900009F045C02091390130E02F5F3F4FE091D6
:1004A0000101F09102013196FB70F460F0930201BA
:1004B000E093010180915C018B5A80935C018491EF
:1004C000E0915C018E0F65E00E94360BA901490F97
:1004D000511DCA0166E070E00E94560B80933901FD
:1004E000FC01E059FF4FE491C33071F48091380171
:1004F00090E0019663E170E00E94420B8093380126
:10050000845F9E4FDC01CC91CC23E9F1C13011F026
:10051000EE0FC2E08E2F0E944F018C2FA6CFE83045
:10052000A9F490915F016FE0911101C063E086230F
:1005300051F48091390190E0019666E070E00E94EC
:10054000560B80933901E09139019FCF20915F01D3
:10055000222381F080E09D3118F4E0E0C5CF8E5F6A
:10056000E82FF0E0E15EFE4F20819217C0F731974F
:10057000E0818BCF869563E00E94360BE92FF0E097
:10058000EE0FFF1FAECFE0E0C5CFCF93C0915E016D
:1005900089E18C0F873908F080E00E949C0182E09D
:1005A0000E941A018C2FCF910C949C01CF93C09183
:1005B0005E0180E00E949C0183E00E941A018C2F62
:1005C000CF910C949C010F931F93CF93DF93809155
:1005D00052018093550180910301809356018091CF
:1005E00004018093570180910A0180935801809102
:1005F0007A01809359018091060180935A0180917C
:10060000050180935B0182E00E941A01F89405E5E0
:1006100011E0C1E8D0E0F80161918F01CE010E94A4
:10062000720B2196C838D105B1F765EA80E890E0F1
:100630000E94720B7894DF91CF911F910F910895D2
:100640001092870130B181B120915C0132953695CD
:100650003695337090E0880F991F880F991F830F8C
:10066000911D820F80935C0180917C01882309F4A5
:1006700041C010927C018091850190915F01992386
:1006800019F01F9810928501811143C080910B01D0
:10069000882389F1809181019091820190937E015C
:1006A00080937D01409696958795807F9F7761EC3A
:1006B00072E00E94420B60937B0180914F0188237E
:1006C000F9F0815080934F0180915F01811109C041
:1006D0008EE884B981E080938501109286010E94A2
:1006E000300180910B01882329F080910B0181500A
:1006F00080930B01089580917D0190917E01D2CF6E
:100700006D3110F770E060E084E00E94FA0085E04F
:10071000D9CF813031F780910B01811151C06091A7
:100720007F0170918001605F7F4FCB0135E096952E
:1007300087953A95E1F750917A0140913E01E42F77
:10074000F0E0EE0FFF1FE15CFE4F20813181BC0124
:10075000621B730B9B01918380834F5F47704093B3
:100760003E01660F771F660F771F680F791F809114
:100770000A0190E08D5E9E4F851B910957FD939570
:100780000597880F991F681B790B83E016161706CB
:100790000CF045C0615071098150C1F7161617065B
:1007A0000CF055C037FD72C080913D011816F4F56C
:1007B000861B80933D0186E884B9109285018DCF18
:1007C00080918301909184019093800180937F01B7
:1007D000409625E0969587952A95E1F790934001FC
:1007E00080933F0190934201809341019093440193
:1007F0008093430190934601809345019093480173
:100800008093470190934A018093490190934C0152
:1008100080934B0190934E0180934D0180CF6115E1
:10082000710509F4B9CF6F5F7F4FB6CF660F771FA1
:10083000635071091616170614F061E070E080E14C
:10084000861B80933D0185E00E94FA00B4CF6C3F87
:100850008FEF7807DCF437FF19C080913D0187FFE7
:1008600002C08450A5CF8CEE861B80933D01809101
:100870007B018F3108F49FCF8CEF9FEF9C01261BEB
:10088000370BB9017595679586E0DECF80917B01C6
:100890008E3108F490CF70E060E087E0D5CFFF9212
:1008A0000F931F93CF93DF938C01D62FC72FF42E76
:1008B0008091780190917901892B31F0E091780154
:1008C000F091790189E009951093790100937801FD
:1008D000012B41F0E0917801F09179016D2F7C2F8F
:1008E0008F2D099581E080935401DF91CF911F9165
:1008F0000F91FF90089520916701283088F4E22F2E
:10090000F0E0EE0FFF1FE859FE4F808391832F5FC9
:100910002093670148E00E944F0480916701089589
:100920008FEF0895EF92FF921F93CF93DF93109173
:100930008801111106C0DF91CF911F91FF90EF90B8
:100940000895E0908901F0908A01C0916701C1503B
:100950000C2E000CDD0BC7FD0EC0FE01EE0FFF1FBD
:10096000E859FE4F0190F081E02DB701812F0995E4
:1009700021978111F0CFE8E8F1E0838180838481C1
:10098000958192838183339681E0E53BF807A9F74F
:100990001092B5011092B7011092B601C8CF0F9313
:1009A0001F93CF93DF93D82FC92F8B01209167011D
:1009B000222319F0215020936701E091670190E014
:1009C00080E0EE2341F0E150FF0BEE0FFF1FE859EE
:1009D000FE4F808191814AE070E060E00E944F0408
:1009E000B8018D2F9C2FDF91CF911F910F910C9407
:1009F0007B04813C41F470E060E084E395E00E9478
:100A0000CF0480E00895823C29F470E060E08FE834
:100A100097E0F5CF81E00895843021F58091780149
:100A20009091790128E08134920739F469E170E00E
:100A300087ED95E00E94CF040EC0875D954069F474
:100A400090915E01923048F0892F86959695969503
:100A5000890F0E94240280E0089570E060E084E342
:100A600095E0E8CF81E00895CF93DF93EB018830E4
:100A700091F480E00E949C0160E0809106010E9458
:100A80002802CD2B21F080E0DF91CF91089581E005
:100A900080935F01F8CF813059F46931710598F383
:100AA00080935F016C2F809106010E942802EBCF9A
:100AB0008330C1F3813BC1F480915201882339F026
:100AC00061E070E083E497E00E94CF04DCCF81E036
:100AD00090E00E94CC010E949C016897A0F261E026
:100AE00070E087ED95E0F0CF813EC9F3813841F4A5
:100AF0008091090190E00E94CC010E949C01C3CF2B
:100B000060915E0170E0813C61F3823B11F486E903
:100B1000F4CF823E11F480E0F0CF823C19F466E914
:100B200070E0DFCF8339B9F3833C29F470E060E0F3
:100B300089EF94E0C9CF843C39F40E94C50270E08B
:100B400060E08BEB97E0C0CF873CA9F49091060161
:100B5000892F82958F708F5F83708295807F9F70C1
:100B6000892B8093060160E00E9428020E94E30224
:100B70000E94C50288CF873B99F4CE018F739927D5
:100B8000892B09F08FCF20910601822F8F708F5F04
:100B9000207F6BE00E94360B922B9093060182CF50
:100BA000873E19F40E94E3026ECF81E06DCF1F9360
:100BB000CF93DF93482F9B01D09107018091520181
:100BC000882309F45BC1E0915101483061F04A305B
:100BD000E9F42091090130E0811105C080910801FC
:100BE0008217130630F4D217130619F010F0209371
:100BF0000901C9010E94CC010E94240281E0809376
:100C0000000180E0DF91CF911F910895413C39F4BC
:100C100070E060E084E395E00E94CF04F2CF423CB4
:100C200059F480915E01863920F486E90E942402FD
:100C3000E8CF80910901FACF443C41F480E00E9462
:100C40009C0170E060E08BEB97E0E6CF9FE4940FAF
:100C50009230D8F4882309F4EFC0C90168E170E04C
:100C60000E94420B892B69F62115310509F4E6C073
:100C70002F33310508F4E8C080915E018D1708F428
:100C8000E3C081E080935E01DFC09FE1940F92306A
:100C900008F4B7CF413009F07CC030915D0120915C
:100CA0005E01432F421B550BCA0160913A017091BE
:100CB0003B016F5F7F4F70933B0160933A01009758
:100CC00009F49FCF40E052E097FF06C040E450E0B7
:100CD000203910F440E051E05695479597FD019674
:100CE000959587950097C1F74617570708F089CF64
:100CF000321788F53FEF320F6FEF630FE62FF0E00A
:100D0000EE0FFF1FAF0143585F4FFA018591949199
:100D1000621728F560916C0070916D00672BF9F4F3
:100D20008F3F23E09207D9F490936D0080936C007D
:100D300060916C0070916D00FA0185919491681733
:100D4000790711F430935E010E94340110923B0147
:100D500010923A0156CF231778F631E0CCCF60914C
:100D60006C0070916D006817790730F480916C0009
:100D700090916D000196D8CF60916C0070916D00DC
:100D800086179707A8F680916C0090916D000197E7
:100D9000CBCF4530A9F480915E01833308F431CF85
:100DA00090E0821B930B282F823391053CF087390A
:100DB000910508F026E920935D0123CF22E3FBCFC4
:100DC0004630B1F490915E0180915301981708F07C
:100DD00018CF290F311D90E08217930734F0C90115
:100DE0002233310514F482E390E080935D0109CF52
:100DF000473069F490915D0180915E01891710F48C
:100E00008F5FF3CF981708F0FCCE8150EECF433CB4
:100E100089F491E0811190E0909352010E94E302E5
:100E20000E94D60280915E0190E00E94CC018093E6
:100E30000901FCCE81E0E6CE232B31F48FEF423B5B
:100E400009F081E08093000110915E018091000122
:100E50006E2F70E0082E000C990B0E94250B810F5D
:100E6000911D0E94CC01C82F80930901181721F011
:100E70008D1302C00E94D6028C2FD8CEE1E04830FC
:100E800009F0A5CEABCE282FCB01322F3D7F3830D5
:100E900029F483E00E94240280E00895213C39F483
:100EA00070E060E084E395E00E94CF04F5CF223C3F
:100EB00049F4809107018093090166E970E087EDAC
:100EC00095E0F2CF243C41F480E00E949C0170E068
:100ED00060E08BEB97E0E8CF213B49F468E170E0FC
:100EE0000E94420B61E070E0892BB1F6E8CF81E00F
:100EF000233CA1F490915201911180E08093520122
:100F00000E94E3020E94D60280915E0190E00E945E
:100F1000CC0180930901682F70E0D1CF0895282F6C
:100F2000CB01213C41F470E060E084E395E00E9455
:100F3000CF0480E00895223C29F470E060E081E471
:100F400098E0F5CF213B49F46EE370E00E94420B3C
:100F5000892B79F70E94C502ECCF213E51F46EE354
:100F600070E00E94420B6F5F609304010E94E302F5
:100F7000E0CF81E008950F931F93CF93C82F8B018B
:100F8000873B79F480E00E949C01C8018F73992708
:100F9000892B09F45BC0602F809105010E94280213
:100FA00021C08079803911F58C2F8F708230E1F06B
:100FB00083E00E949C016091090170E087ED95E05B
:100FC000C43C71F0C43B59F50E94C5021092BA01AD
:100FD000C091520161E070E0CC23C1F083E497E05E
:100FE0000E94CF04C0E016C08AE0E3CF803811F43D
:100FF00080E0DFCFC830E1F560E0809105010E941C
:101000002802C1E007C0C330B1F6C5CF87ED95E037
:101010000E94CF048C2FCF911F910F910895C73C50
:1010200011F590910501892F82958F708F5F8370E4
:101030008295807F9F70892B8093050160E00E94DC
:1010400028020E94E3020E94C502CCCF2091050134
:10105000822F8F708F5F207F6BE00E94360B922B68
:101060009093050198CFC73E61F60E94E302BACF84
:10107000C13049F60931110508F4B4CFC0935F01BE
:101080008ACF883041F0813C41F470E060E084E335
:1010900095E00E94CF0480E00895823C29F470E03E
:1010A00060E089EF94E0F5CF813B81F4809103010A
:1010B0008F5F8F3010F48FE002C08937D8F48093AF
:1010C0000301809103010E949C01E5CF813E19F448
:1010D0000E94E302E0CF823B79F4809103018230E9
:1010E00018F0815080930301809103018F3018F331
:1010F000893738F388E7E3CF823E51F381E00895E2
:1011000086E884B910928501109286010E94300110
:10111000E1E6F0E0808182608083139A87EE83B9F4
:1011200008950F931F93CF93109262018091B8019D
:101130009091B9019C012F5F3F4F88279078822BB7
:10114000932B9093B9018093B801309160019BB1CA
:1011500081E0292F247092FD80E080936001381790
:10116000B9F010925F01809360019091BA01892FCC
:10117000211137C080699F709F3089F58093BA0133
:1011800090E080E00E9415011092B9011092B80120
:101190000091B8011091B90180915F01882371F12C
:1011A000B80183E00E94FA000E9492040F73112795
:1011B000012B89F410923C010E948008C0913C01EF
:1011C000C11105C00E94300181E080937C01CF5F96
:1011D000CF71C0933C01CF911F910F9108958F5F04
:1011E000CDCF8F7E95FD08C080688093BA01809135
:1011F000B8019091B901C6CF806CF7CFC091BA0108
:101200008C2F807F803B49F470E060E081E00E9499
:10121000FA00C8010E941501D1CFB80181E00E94F7
:10122000FA00C4FF0FC0C5FDF4CF0831110530F23C
:101230001092B9011092B801C062C093BA0190E057
:1012400080E0E8CFCC2309F4B9CFC5FF0AC01092E3
:10125000BA011092B9011092B80181E08093540153
:10126000ADCF0231110508F4A9CFC064C093BA0113
:1012700090E080E00E941501EACF80918701811102
:101280000E9420038091620181110C9491080895BD
:10129000EF92FF920F931F93CF93DF93EC0108E03F
:1012A00017E082ECE82EFF24F394209741F481E0CC
:1012B000DF91CF911F910F91FF90EF900895809152
:1012C0005401811118C080915E01823078F482E06F
:1012D0000E94F400C7010197F1F780E00E94F4003A
:1012E0000E943D090E9492042197DFCF80E00E9476
:1012F000F400C801F0CF80E0DBCF2F932FB72F93FE
:101300003F938F939F93AF93BF93EF93FF938091FE
:1013100086018823E9F0E091850120B131B1F0E048
:10132000EE0FFF1FDF01AF57BE4F2D933C93E358E5
:10133000FE4F808191818217930708F40196281748
:10134000390708F401979183808381E080938701B6
:1013500081E080938601FF91EF91BF91AF919F91C2
:101360008F913F912F912FBF2F9118958F9381E0EF
:10137000809362018F9118958F9381E08093610132
:101380008F911895F89485B7877F85BF90E088ED99
:101390000FB6F894A8958FBD90B7977F90BF0FBEFA
:1013A00089E08CB98CE780BB83EA8093720081E08E
:1013B0008093710084E08EB988BD8CB780618CBF4A
:1013C000A89580E480BF0E948008789481E00E9404
:1013D0001A0170E060E08CE095E00E947B041092BE
:1013E00054010E94C50282E00E941A01F89480E82C
:1013F00090E00E946A0B853A09F481C0789461E01C
:1014000070E084E395E00E947B0483E4F82EEE24F0
:10141000E39492E0D92E20E4C22ED1E00E949204FF
:101420008091650190916601009751F06091630190
:10143000709164010E94CF041092660110926501C0
:1014400080915F01882371F180E00E949C01A89542
:10145000F0BE1F989BB181E0292F247092FD80E09F
:10146000809360012223B1F31092BA011092B90166
:101470001092B801E09254018CB780618CBF109239
:101480008701109262011092610180915F018111C8
:1014900062C0D0920B018CB78F7E8CBF0E948008F7
:1014A000A895C0BE0E943D09109254018091780118
:1014B00090917901F8E081349F0709F06EC0C091E6
:1014C0000301CC0FC73908F0C6E914E08C2F0E9445
:1014D0009C0185E090E00E944809809103010E94F0
:1014E0009C0181E490E00E944809115079F780ED59
:1014F00092E00E94480980E00E949C018FCF05E5A0
:1015000011E0C1E8D0E0CE010E946A0BF80181939E
:101510008F012196C838D105B1F778948091550193
:10152000809352018091560180930301809157016D
:10153000809304018091580180930A0180915901A0
:1015400080937A0180915A018093060180915B011A
:101550008093050154CF86B78F79806486BF86B7A4
:10156000806186BF889586B78F7E86BF8091610136
:10157000811110925F0180918701882331F0D0930F
:101580000B01D0937C010E9420038091620188238B
:1015900009F47BCF0E94910878CF24E0893F92071D
:1015A00069F580917B01C0E0EC2FF0E0E958FF4F36
:1015B000E4918E1708F506EAC11102C008E0C1E007
:1015C00010E089E10E949C01C8010E94480980E066
:1015D0000E949C018AEF90E00E944809C15089F75F
:1015E0008AE992E00E944809882309F417CF88EE1F
:1015F00093E00E94480912CFCF5FD6CF8F58974013
:10160000C9F480916001811109CF809109010E9484
:101610009C0184E690E00E94480980E00E949C01C1
:101620008091040190E068EE73E00E94250B8456DF
:101630009109DFCF86B78F7986BF86B7806186BF75
:10164000889586B78F7E86BFE9CE0024552704C0D3
:10165000080E591F880F991F009729F076956795F6
:10166000B8F37105B9F7802D952F0895991B79E08E
:1016700004C0991F961708F0961B881F7A95C9F722
:1016800080950895AA1BBB1B51E107C0AA1FBB1F71
:10169000A617B70710F0A61BB70B881F991F5A95FE
:1016A000A9F780959095BC01CD01089597FB072E71
:1016B00016F4009407D077FD09D00E94420B07FC76
:1016C00005D03EF4909581959F4F08957095619552
:1016D0007F4F0895E199FECF1FBA8EBBE09A9927FC
:1016E0008DB30895262FE199FECF1FBA8EBBE09AE5
:1016F00081500DB2021639F01CBA2DBB0FB6F8940A
:0C170000E29AE19A0FBE0895F894FFCF22
:10170C00010004960219198203322D020201000015
:10171C0000000000000100000000000000000100BB
:10172C0000210123022503270429052C06FF06822C
:08173C0082030A05040300000A
:00000001FF
