:10000000A7C0C1C01FC8BFC0BEC0BDC0BCC0BBC0B0
:10001000DAC7B9C0B8C0B7C00FC8B5C0B4C01E23D6
:1000200026282A63000000000000000000000000F5
:1000300000000000000000000000000000000000C0
:1000400000000000000000000000000000000000B0
:1000500000000000000000000000000000000000A0
:10006000000000000000010304050708090B0C0E46
:100070000F1113141618191B1D1F21232527292BB7
:100080002D30323437393B3E404346484B4E515475
:10009000575A5D606366696D7073777A7E81858972
:1000A0008D9094989CA0A5A9ADB1B6BABFC3C8CD98
:1000B000D1D6DBE0E5EAEFF4FAFF01010202030327
:1000C000040405060708090A0C0D0E0F1113141677
:1000D000181A1D1F2224272A2D3033373B3E424653
:1000E0004B4F54595D63686E73797F868C939AA1E8
:1000F000A8B0B8C0C8D1D9E2ECF5FFFFFFFFFFFF01
:10010000FFFFFFFFFFFFFFFFFFFFFFFFFFFFFFFFFF
:10011000FFFFFFFFFFFFFFFFFFFFFFFFFFFFFFFFEF
:10012000FFFFFFFFFFFFFFFFFFFFFFFFFFFFFFFFDF
:10013000FFFFFFFFFFFFFFFFFFFFFFFFFFFFFFFFCF
:10014000FFFFFFFFFFFFFFFFFFFFFFFFFFFFFF00BE
:1001500011241FBECFE5D2E0DEBFCDBF10E0A0E688
:10016000B0E0E6E5F3E102C005900D92AE37B107CD
:10017000D9F720E0AEE7B0E001C01D92AE3FB20774
:10018000E1F766D7E6C83CCF482F362F272FEBEC98
:10019000F0E090E080E0508151110AC063E070E02F
:1001A00099D8FC01E553FF4F40833183228305C07A
:1001B000019633968031910571F70895BC018091C5
:1001C000FD00E2CF90E822E048EA57E030E08150BD
:1001D00008F408950FB6F89496BD26BD0FBEFA0137
:1001E0003197F1F70FB6F89496BD36BD0FBEEFCF3D
:1001F00086B1886486B908950F931F93CF93DF93D8
:100200009C0140919600842F90E0FC01E458FF4F40
:1002100060816093660086589F4FFC0180818093C7
:1002200065006217130609F09CF5821713061CF08F
:10023000411106C0822FDF91CF911F910F91089538
:10024000861BC82FD0E0AE0155954795559547952B
:1002500040939500469550E0F0E0E0E075E0CF0176
:100260009695879596958795860F082F10E0D9016A
:10027000A01BB10BB7FF03C0D801A21BB30B4A17D9
:100280005B07CCF67150EC0FFD1F7111E8CFD3CF97
:10029000862FD1CF0F931F93CF93DF93809196003A
:1002A000809399008091620080939A00809163000E
:1002B00080939B008091680080939C008091BD009A
:1002C00080939D008091640080939E00F89409E9DA
:1002D00010E0C1E0D1E0F80161918F01CE0127D893
:1002E0002196C730F1E0DF07B1F765EA80E091E0E1
:1002F0001ED87894DF91CF911F910F91089510929D
:10030000CA0034B185B120919F003295369536955B
:10031000337090E0880F991F880F991F830F911DEC
:10032000820F80939F008091BF00882309F449C009
:100330001092BF008091C8009091A200992319F0FB
:1003400037981092C800811145C080916900609172
:10035000C0007091C100882341F06091C400709189
:10036000C5007093C1006093C000605F7F4FA6E03E
:1003700076956795AA95E1F780E098E5BCD76B5F25
:100380007F4F769567956093BE0080919300882398
:10039000C9F08150809393008091A200811108C020
:1003A0008FEA87B981E08093C8001092C90020DFEE
:1003B00080916900882329F08091690081508093A1
:1003C000690008956D3140F770E060E084E0DCDEA4
:1003D00085E0E0CF813061F780916900811150C0E4
:1003E0006091C2007091C300605F7F4F9B0145E048
:1003F000369527954A95E1F7A091BD00809182003E
:10040000E82FF0E0EE0FFF1FED57FF4F40815181C5
:10041000B901641B750BAB01318320838F5F87703B
:1004200080938200660F771F660F771F80916800A8
:1004300090E08D5E9E4F8A1B9109A7FD9395880FD2
:10044000991F681B790B620F731F83E0161617063E
:100450000CF045C0615071098150C1F7161617069E
:100460000CF057C057FD74C0809181001816F4F548
:10047000861B809381008CE287B91092C80095CFCB
:100480008091C6009091C7009093C3008093C200F2
:10049000409635E0969587953A95E1F790938400DC
:1004A00080938300909386008093850090938800CA
:1004B0008093870090938A008093890090938C00AA
:1004C00080938B0090938E0080938D00909390008A
:1004D00080938F00909392008093910081CF61155B
:1004E000710509F4B9CF6F5F7F4FB6CF660F771FE5
:1004F000653071055CF0635071097595679588E109
:10050000861B8093810085E03FDEB5CF61E070E01F
:10051000F6CF6C3F8FEF7807DCF457FF19C080915E
:10052000810087FF02C08450A3CF84EE861B809396
:1005300081008091BE008F3108F49DCF8CEF9FEF3A
:100540009C01261B370BB9017595679586E0DCCFBA
:100550008091BE008E3108F48ECF70E060E087E0BD
:10056000D3CF8091A100853040F480E892E00FB6AF
:10057000F89486BD96BD0FBE08958E3018F480E8BD
:1005800091E0F5CF80E890E0F2CF882321F0813030
:1005900029F0BC9A04C0BC98C4980895BC98C49A29
:1005A0000895CF93C82F8093A1008093A0008091DD
:1005B000A20081110AC091E0C11101C090E081E068
:1005C000C23408F480E0890FE0DFC11104C019BC17
:1005D00018BCCF91C6CFC1508C2F90E0FC01E654DF
:1005E000FF4FE491E9BD8C5D9F4FFC01849188BD74
:1005F000F0CF80939700D5CFCF93C091A10089E130
:100600008C0F873908F080E0CCDF82E0DBDD8C2FB7
:10061000CF91C7CFCF93C091A10080E0C2DF83E02C
:10062000D1DD8C2FCF91BDCFE82F8091BE008D31D1
:1006300010F480E0AACFEF70F0E0E659FF4F808120
:10064000F9CFFF920F931F93CF93DF938C01D62F97
:10065000C72FF42E8091BB009091BC00892B31F004
:10066000E091BB00F091BC0089E009951093BC00BB
:100670000093BB00012B41F0E091BB00F091BC0066
:100680006D2F7C2F8F2D099581E080939800DF914D
:10069000CF911F910F91FF9008952091AA002830CB
:1006A00080F4E22FF0E0EE0FFF1FE555FF4F80834F
:1006B00091832F5F2093AA0048E0C3DF8091AA00B6
:1006C00008958FEF0895EF92FF921F93CF93DF93DA
:1006D0001091CB00111106C0DF91CF911F91FF90B7
:1006E000EF900895E090CC00F090CD00C091AA006A
:1006F000C1500C2E000CDD0BC7FD0EC0FE01EE0F2D
:10070000FF1FE555FF4F0190F081E02DB701812FCC
:10071000099521978111F0CFEBECF0E08381808384
:100720008481958192838183339680E0E83FF80746
:10073000A9F71092F8001092FA001092F900C8CFB1
:100740000F931F93CF93DF93D82FC92F8B01209145
:10075000AA00222319F021502093AA00E091AA00B8
:1007600090E080E0EE2341F0E150FF0BEE0FFF1F21
:10077000E555FF4F808191814AE070E060E061DFE4
:10078000B8018D2F9C2FDF91CF911F910F9185CFB5
:10079000813C39F470E060E080E094E0D1DF80E0FB
:1007A0000895823C29F470E060E08DE196E0F6CF98
:1007B00081E00895843011F58091BB009091BC00D8
:1007C00026E0863A920731F469E170E08FE794E021
:1007D000B7DF0DC08F57944061F49091A100923023
:1007E00040F0892F869596959695890F02DF80E0D7
:1007F000089570E060E080E094E0EACF81E0089541
:10080000CF93DF93EB01883081F480E0CADE8091E2
:1008100064008370BADECD2B21F080E0DF91CF91B0
:10082000089581E08093A200F8CF813051F46931BE
:10083000710598F38093A200809164008370A5DE17
:10084000ECCF833041F4809164008370833029F7CA
:10085000862FEADEE2CF813BA9F4809196008823BF
:1008600031F061E070E088ED95E06ADFD6CF81E09D
:1008700090E0C2DC96DE689780F261E070E08FE77E
:1008800094E0F3CF813EC9F3813831F48091670061
:1008900090E0B2DC86DEC1CF6091A10070E0813CC7
:1008A00071F3823B11F486E9F5CF823E11F480E0CA
:1008B000F1CF823C19F466E970E0E1CF8339B9F3F6
:1008C000833C29F470E060E088EC93E0CECF843C78
:1008D00031F492DE70E060E084E496E0C6CF873CBD
:1008E00061F49091640081E0890F83709C7F982B64
:1008F000909364004ADECEDC90CF81E08FCFCF931F
:10090000482F9B01F0916600E09165008091960070
:10091000882309F448C1C0919500483051F04A300D
:10092000A9F42091670030E0811103C0F21713068B
:1009300030F4E217130619F010F020936700C90194
:100940005BDC57DE81E08093610007C0413C41F4ED
:1009500070E060E080E094E0F3DE80E0CF91089505
:10096000423C51F48091A100863918F486E941DEB9
:10097000F4CF80916700FBCF443C39F480E011DE76
:1009800070E060E084E496E0E7CF9FE4940F92305B
:10099000D0F5882331F0C90168E170E0ACD4892B2F
:1009A000E1F68091A10021153105D9F4423B99F47B
:1009B0008FEF80936100809161006C2F70E0082EB2
:1009C000000C990B87D42091A100820F911D14DC9B
:1009D00080936700CCCF8E1758F7F81760F381E04B
:1009E000E8CF273341E0340710F08E1708F72D3693
:1009F000324008F3F817F8F2FFDD70E060E084E4BD
:100A000096E09EDED8CF9FE1940F923020F4809143
:100A10006100819598CF413009F078C02E333105BF
:100A200011F4409361002091A0003091A100E22FC9
:100A3000E31BFF0BCF0160917E0070917F006F5F21
:100A40007F4F70937F0060937E00309709F485CFCD
:100A500040E052E0F7FF06C040E450E0333810F4C5
:100A600040E051E05695479597FD019695958795FD
:100A70000097C1F74617570708F06FCF231778F58F
:100A80002FEF230F7FEF720F872F90E0AC014654BA
:100A90005F4FFA016491731730F539B5311123C0F6
:100AA0006F3F09F569BD8C5D9F4FFC01349168B5BE
:100AB000631730F538B53F5F38BD39B5FA01449159
:100AC000341307C038B5FC018491381302C0209359
:100AD000A10047DD10927F0010927E003ECF3217BA
:100AE00088F621E0CECF39B5361720F439B53F5F0F
:100AF00039BDD9CF39B56317B0F639B53150F8CF14
:100B000068B53617D0F638B53150D6CF4530A9F490
:100B10008091A100823408F420CF90E0821B930BD7
:100B2000282F813491053CF08739910508F026E99A
:100B30002093A00012CF21E4FBCF4630B1F4909176
:100B4000A10080919700981708F007CF290F311D59
:100B500090E08217930734F0C9012134310514F471
:100B600081E490E08093A000F8CE473069F4909142
:100B7000A0008091A100891710F48F5FF3CF981720
:100B800008F0EBCE8150EECF433C59F491E0811157
:100B900090E0909396007EDB3DDD8091A10090E097
:100BA00016CF81E0DBCEC1E0483009F0B8CEBECE32
:100BB000282FCB01322F3D7F383021F481E019DD21
:100BC00080E00895213C31F470E060E080E094E042
:100BD000B7DDF6CF223C49F4809165008093670031
:100BE00066E970E08FE794E0F3CF243C39F480E0CD
:100BF000D8DC70E060E084E496E0EACF213B41F489
:100C000068E170E078D361E070E0892BC9F6EACF43
:100C100081E0233C89F490919600911180E08093CB
:100C2000960038DBF7DC8091A10090E0E5DA809354
:100C30006700682F70E0D6CF0895282FCB01213CA4
:100C400039F470E060E080E094E07ADD80E00895BF
:100C5000223C29F470E060E086EA96E0F6CF213B82
:100C600039F46EE370E047D3892B81F7C5DCEECF12
:100C7000213E41F46EE370E03ED36F5F609363000A
:100C800009DBE4CF81E00895CF93C82FCB012C2F4F
:100C900020792039F1F48C2F8F708230C1F081E0FF
:100CA00080DC6091670070E08FE794E0C43C69F0FD
:100CB000C43BC9F5A1DC1092FD00C091960061E033
:100CC00070E0CC2351F188ED95E03ADD1BC084E162
:100CD000E7CF203811F480E0E3CFC83039F48091B9
:100CE00064008695869551DCC1E01AC0C13061F47C
:100CF0006931710538F0C093A20080916400869537
:100D0000869543DCC0E00CC0C33059F620916400E6
:100D10002C702C30B9F788DCF5CF8FE794E010DD2C
:100D20008C2FCF910895C73CF9F690916400892FDC
:100D3000869586958F5F8370282F220F220F9370E0
:100D4000920F9093640021DCA5DADCCF883029F47F
:100D500081E08093600080E00895813C31F470E090
:100D600060E080E094E0ECDCF6CF823C29F470E0B7
:100D700060E088EC93E0F7CF813B91F480916200D2
:100D800090916000890F823038F482E08093620095
:100D90008091620006DCDFCF8937C0F388E7F6CFA9
:100DA000813E39F48091600081958093600072DA11
:100DB000D2CF823B49F481E0809360008091620051
:100DC000833030F38150E2CF823E89F381E0089591
:100DD0008CE287B91092C8001092C90009DA87EE38
:100DE00086B908950F931F93CF931092A500809119
:100DF000FB009091FC009C012F5F3F4F882790786B
:100E0000822B932B9093FC008093FB003091A300E6
:100E100096B381E0292F287093FD80E08093A30092
:100E20003817B1F01092A2008093A3009091FD00BA
:100E3000892F211132C080699F709F3061F58093A6
:100E4000FD0090E080E0BAD91092FC001092FB0007
:100E50000091FB001091FC008091A200882351F1C9
:100E6000B80183E091D92FDC0F731127012B79F49E
:100E700010928000ADDFC0918000C11104C0B8D9CC
:100E800081E08093BF00CF5FCF71C0938000CF918E
:100E90001F910F9108958F5FD2CF8F7E95FD08C06F
:100EA00080688093FD008091FB009091FC00CBCF87
:100EB000806CF7CFC091FD008C2F807F803B39F490
:100EC00070E060E081E060D9C80178D9D4CFB80182
:100ED00081E05AD9C4FF0FC0C5FDF6CF0831110516
:100EE00050F21092FC001092FB00C062C093FD0013
:100EF00090E080E0EACFCC2309F4BDCFC5FF0AC063
:100F00001092FD001092FC001092FB0081E0809393
:100F10009800B1CF0231110508F4ADCFC064C09381
:100F2000FD0090E080E04AD9EBCF8091CA008111AA
:100F3000E6D98091A500811155CF0895BF92CF9237
:100F4000DF92EF92FF920F931F93CF93DF93EC0109
:100F500010E888E0E82E87E0F82E02E092ECC92E37
:100F6000DD24D394B12C209759F481E0DF91CF9107
:100F70001F910F91FF90EF90DF90CF90BF90089559
:100F80008091980081111DC09091A100953090F43E
:100F90000FB6F89416BD06BD0FBEC6010197F1F756
:100FA0008B2D0FB6F89416BD86BD0FBEBEDF8BDB52
:100FB0002197D9CF0FB6F89416BD86BD0FBEC701D5
:100FC000EDCF80E0D3CF2F932FB72F933F938F9305
:100FD0009F93AF93BF93EF93FF938091C9008823B2
:100FE000E9F0E091C80024B135B1F0E0EE0FFF1F49
:100FF000DF01AC53BF4F2D933C93E054FF4F8081F2
:1010000091818217930708F401962817390708F48D
:1010100001979183808381E08093CA0081E080936F
:10102000C900FF91EF91BF91AF919F918F913F9137
:101030002F912FBF2F9118958F9381E08093A5005A
:101040008F9118958F9381E08093A4008F911895CC
:10105000F89484B7877F84BF0FB6F894A89581B5BC
:10106000886181BD11BC0FBEB89A81E083BF81EA5F
:101070008ABDB99A88E088BB85BB8BB780628BBF7D
:10108000A89581B5886181BD80E481BDA1DE789499
:1010900081E098D870E060E08AED93E0FEDA10928B
:1010A0009800AADAF89480E091E039D1853A09F401
:1010B0007BC0789461E070E080E094E0EEDA83E455
:1010C000F82EEE24E39492E0D92E20E4C22ED1E053
:1010D000FADA8091A8009091A900009749F06091F8
:1010E000A6007091A7002CDB1092A9001092A80016
:1010F0008091A200882391F180E053DAA89581B510
:10110000886181BDF1BC379896B381E0292F2870A2
:1011100093FD80E08093A3002223B1F31092FD00A1
:101120001092FC001092FB00E09298008BB7806256
:101130008BBF1092CA001092A5001092A40080915B
:10114000A200811159C0D09269008BB78F7D8BBFEF
:101150003FDEA89581B5886181BDC1BCE6DE1092F5
:1011600098008091BB009091BC0026E0863A9207DF
:1011700009F062C0C0916200CC0FC73908F0C6E91F
:1011800014E08C2F0EDA85E090E0D8DE80916200CA
:1011900008DA81E490E0D2DE115099F780ED92E018
:1011A000CDDE80E0FED994CF09E910E0C1E0D1E0C6
:1011B000CE01B5D0F80181938F012196C730F1E0BF
:1011C000DF07B1F778948091990080939600809121
:1011D0009A008093620080919B00809363008091CD
:1011E0009C008093680080919D008093BD00809159
:1011F0009E00809364005ECF85B7877E806185BF47
:1012000085B7806285BF889585B78F7D85BF8091C2
:10121000A40081111092A2008091CA00882329F0B5
:10122000D0936900D093BF006AD88091A50088232D
:1012300009F485CFD7DD83CFE3E0883C9E0739F5FD
:101240008091BE00C0E0EC2FF0E0E25EFF4FE49141
:101250008E17D8F406EAC11102C008E0C1E010E020
:1012600089E19FD9C8016ADE80E09BD98AEF90E0CE
:1012700065DEC150A9F78AE992E060DE882309F4AF
:1012800027CF88EE93E05ADE23CFCF5FDCCF8D519E
:101290009640A9F48091A30081111ACF8091670034
:1012A00080D984E690E04ADE80E07BD980916300BB
:1012B00090E068EE73E00ED084569109E4CF85B7D4
:1012C000877E85BF85B7806285BF889585B78F7D0E
:1012D00085BFFECE0024552704C0080E591F880F75
:1012E000991F009729F076956795B8F37105B9F7BE
:1012F000802D952F0895AA1BBB1B51E107C0AA1F83
:10130000BB1FA617B70710F0A61BB70B881F991FA6
:101310005A95A9F780959095BC01CD010895E19962
:10132000FECF9FBB8EBBE09A99278DB30895262FE1
:10133000E199FECF9FBB8EBBE09A01970DB20216DA
:1013400039F01CBA2DBB0FB6F894E29AE19A0FBEA1
:061350000895F894FFCFA0
:10135600010141020D7801412D0200010201000048
:0E13660000000000010000000000786E01147D
:00000001FF
