:100000000C94D5000C94F2000C9431090C94F2007D
:100010000C94F2000C942B090C94F2000C94F20056
:100020000C94F2000C94F2000C94F2000C94F20088
:100030000C94F2000C94F2000C94F2080C94F20070
:100040000C94F2000C94F2000C94F2000C94F20068
:100050000C94F2000C94F2000C94F2000C94F20058
:100060000C94F2000C94F2000C94F2000C94F20048
:10007000010504141011151E2326282A6300000010
:10008000000100010002000200030003000400055B
:1000900000050006000700080009000A000B000C1C
:1000A000000D000E000F00100011001300140016C8
:1000B00000170019001A001C001E001F0021002359
:1000C00000250027002A002C002E003000330035C8
:1000D0000038003B003D0040004300460049004C12
:1000E000005000530056005A005E00610065006930
:1000F000006D00710075007A007E00820087008C20
:1001000000900095009A009F00A500AA00AF00B5DE
:1001100000BB00C100C600CC00D300D900DF00E660
:1001200000EC00F300FA00010108010F0117011EA5
:100130000126012E0136013E0146014E0157015FA5
:1001400001680171017A0183018D019601A001AA64
:1001500001B401BE01C801D201DD01E801F301FED5
:10016000010902140220022B02370243024F025CF3
:10017000026802750282028F029C02AA02B702C5BF
:1001800002D302E102EF02FE020C031B032A033931
:1001900003490358036803780388039903A903BA42
:1001A00003CB03DC03ED03FF030011241FBECFEFDD
:1001B000D4E0DEBFCDBF11E0A0E0B1E0EAE0F6E1BF
:1001C00002C005900D92A833B107D9F721E0A8E34A
:1001D000B1E001C01D92AC3BB207E1F70E943709C4
:1001E0000C94030B0C940000482F362F272FE9E8BE
:1001F000F1E090E080E0508151110BC063E070E0CD
:100200000E94A40AFC01E757FE4F408331832283FA
:1002100005C0019633968031910569F70895BC01B8
:100220008091BB010C94F40028E13FE1815008F477
:100230000895F9013197F1F7F9CF83B1886483B953
:100240000895CF93DF9300D00F92CDB7DEB7209102
:100250003401309135014091360129833A834B8333
:10026000FE01319650E040E0682F70E0A1E0B0E080
:100270009B01042E02C0359527950A94E2F7922F30
:10028000937081919D0101C0220F8A95EAF799230D
:1002900029F09130C1F080B3822B19C080B3209532
:1002A000822380BB82B3822382BB81B3282321BBFC
:1002B0004E5F5F4F46305105D9F60F900F900F906B
:1002C000DF91CF91089590B3822F8095892380BBD1
:1002D00082B3822B82BB81B3282BE9CFCF92DF92EE
:1002E000EF92FF920F931F93CF939C015091530174
:1002F000852F90E0FC01EE5CFE4F408140930901A8
:10030000805D9E4FFC018081809308014217130697
:1003100009F0D4F5821713061CF0511109C0822F81
:10032000CF911F910F91FF90EF90DF90CF900895A4
:10033000841BE82EF12CC70166E070E00E94D50A0C
:10034000609352016695E62FF0E010E000E0C7E010
:1003500086E0C82ED12CC801B6010E94C10A842FA4
:10036000860FA82FB0E0B9016A1B7B0B77FF03C093
:10037000BD01621B730BE617F70794F6C1500E0D13
:100380001F1DC111E8CFCCCF842FCACF90917C0123
:1003900080E09D3180F0E82FF0E0E05EFE4F2081AC
:1003A000921738F43197E081F0E0E059FF4F8491E3
:1003B00008958E5FF0CF0895CF93E82F862F909108
:1003C0007C0191509C3120F480E0CF910C9421016C
:1003D000CE2FC295CF70EF7090916001911103C044
:1003E000C33008F0C2E0E73010F4F0E029C0E73095
:1003F00059F52091390130E02F5F3F4FE091020124
:10040000F09103013196FB70F460F0930301E093E7
:10041000020180915D018B5A80935D018491E0918E
:100420005D018E0F65E00E94B50AA901490F511DBB
:10043000CA0166E070E00E94D50A80933901FC0190
:10044000E059FF4FE4911CC090916001E83099F4AD
:100450006FE0911101C063E0862351F4809139016E
:1004600090E0019666E070E00E94D50A8093390121
:10047000E0913901BACF9923D9F00E94C601E82F43
:10048000C33071F48091380190E0019663E170E02F
:100490000E94C10A80933801835F9E4FDC01CC919A
:1004A000CC2321F0C13069F0CE2FCC0F8C2F8DCF13
:1004B000869563E00E94B50AE92FF0E0EE0FFF1F7A
:1004C000BFCFCE2FF3CF0F931F93CF93DF938091A6
:1004D00053018093560180910401809357018091CC
:1004E00005018093580180910B01809359018091FF
:1004F0007B0180935A018091070180935B01809179
:10050000060180935C0182E00E941401F89406E5E4
:1005100011E0C1E8D0E0F80161918F01CE010E94A5
:10052000F10A2196C838D105B1F765EA80E890E074
:100530000E94F10A7894DF91CF911F910F91089555
:100540001092880130B181B120915D0132953695CC
:100550003695337090E0880F991F880F991F830F8D
:10056000911D820F80935D0180917D01882309F4A4
:1005700041C010927D018091860190916001992384
:1005800019F01F9810928601811143C080910C01CF
:10059000882389F1809182019091830190937F015A
:1005A00080937E01409696958795807F9F7761EC3A
:1005B00072E00E94C10A60937C0180914F01882300
:1005C000F9F0815080934F0180916001811109C041
:1005D0008EE884B981E080938601109287010E94A1
:1005E0001D0180910C01882329F080910C0181501C
:1005F00080930C01089580917E0190917F01D2CF6C
:100600006D3110F770E060E084E00E94F40085E056
:10061000D9CF813031F780910C01811151C06091A7
:10062000800170918101605F7F4FCB0145E096951D
:1006300087954A95E1F750917B0140913E01E42F67
:10064000F0E0EE0FFF1FE15CFE4F20813181BC0125
:10065000621B730B9B01918380834F5F47704093B4
:100660003E01660F771F660F771F680F791F809115
:100670000B0190E08D5E9E4F851B910957FD939570
:100680000597880F991F681B790B83E016161706CC
:100690000CF045C0615071098150C1F7161617065C
:1006A0000CF05AC037FD77C080913D011816F4F563
:1006B000861B80933D0186E884B9109286018DCF18
:1006C00080918401909185019093810180938001B4
:1006D000409635E0969587953A95E1F790934001DD
:1006E00080933F0190934201809341019093440194
:1006F0008093430190934601809345019093480174
:100700008093470190934A018093490190934C0153
:1007100080934B0190934E0180934D0180CF6115E2
:10072000710509F4B9CF6F5F7F4FB6CF660F771FA2
:100730006730710574F0635071097595679575950B
:10074000679580E2861B80933D0185E00E94F4005E
:10075000B2CF61E070E0F5CF6C3F8FEF7807DCF44B
:1007600037FF19C080913D0187FF02C08450A0CFA0
:100770008CED861B80933D0180917C018F3108F4C4
:100780009ACF8CEF9FEF9C01261B370BB901759513
:10079000679586E0DBCF80917C018E3108F48BCFAA
:1007A00070E060E087E0D2CFE82F80935F01809314
:1007B0005E01811107C010926D0010926C00689864
:1007C00048980895689A489AE150F0E0EE0FFF1FAC
:1007D000E358FF4F8591949190936D0080936C0046
:1007E0000895CF93C0915F0189E18C0F873908F09C
:1007F00080E00E94D40382E00E9414018C2FCF91EC
:100800000C94D403CF93C0915F0180E00E94D40385
:1008100083E00E9414018C2FCF910C94D403FF929B
:100820000F931F93CF93DF938C01D62FC72FF42EF6
:100830008091790190917A01892B31F0E0917901D1
:10084000F0917A0189E0099510937A01009379017A
:10085000012B41F0E0917901F0917A016D2F7C2F0D
:100860008F2D099581E080935501DF91CF911F91E4
:100870000F91FF90089520916801283088F4E22FAD
:10088000F0E0EE0FFF1FE759FE4F808391832F5F4B
:100890002093680148E00E940F0480916801089548
:1008A0008FEF0895EF92FF921F93CF93DF931091F4
:1008B0008901111106C0DF91CF911F91FF90EF9038
:1008C0000895E0908A01F0908B01C0916801C150B9
:1008D0000C2E000CDD0BC7FD0EC0FE01EE0FFF1F3E
:1008E000E759FE4F0190F081E02DB701812F099566
:1008F00021978111F0CFE9E8F1E083818083848141
:10090000958192838183339681E0E63BF807A9F7CE
:100910001092B6011092B8011092B701C8CF0F9390
:100920001F93CF93DF93D82FC92F8B01209168019C
:10093000222319F0215020936801E091680190E092
:1009400080E0EE2341F0E150FF0BEE0FFF1FE7596F
:10095000FE4F808191814AE070E060E00E940F04C8
:10096000B8018D2F9C2FDF91CF911F910F910C9487
:100970003B04813C41F470E060E086EF94E00E942B
:100980008F0480E00895823C29F470E060E089E9FA
:1009900095E0F5CF81E00895843031F580917901BB
:1009A00090917A0126E08934920739F469E170E088
:1009B0008FE996E00E948F0410C08F59964079F419
:1009C00090915F01923058F0892F86959695969573
:1009D000890F809354010E94D40380E0089570E051
:1009E00060E086EF94E0E6CF81E00895CF93DF9357
:1009F000EB01883091F480E00E94D40360E08091A4
:100A000007010E94DC01CD2B21F080E0DF91CF9126
:100A1000089581E080936001F8CF813059F4693105
:100A2000710598F3809360016C2F809107010E94FB
:100A3000DC01EBCF8330C1F3813B99F481E090E09E
:100A40000E946E010E94D40380915301811102C063
:100A50006897D8F261E070E08FE996E00E948F0419
:100A6000D4CF813EB9F3813841F480910A0190E0FE
:100A70000E946E010E94D403C8CF60915F0170E0B4
:100A8000813C51F3823B11F486E9F4CF823E11F4AC
:100A900080E0F0CF823C19F466E970E0DDCF833965
:100AA000B9F3833C29F470E060E089EB94E0D6CFA1
:100AB000843C39F40E94F10370E060E085EC95E03D
:100AC000CDCF873CA9F490910701892F82958F7033
:100AD0008F5F83708295807F9F70892B8093070141
:100AE00060E00E94DC010E9463020E94F1038DCF4E
:100AF000873BB1F481E080935101CE018F73992738
:100B0000892B09F091CF20910701822F8F708F5F81
:100B1000207F6BE00E94B50A922B9093070184CF4F
:100B2000873E29F4109251010E9463026ECF81E04A
:100B30006DCF282FCB01213C41F470E060E086EFBF
:100B400094E00E948F0480E00895223C29F470E034
:100B500060E089E496E0F5CF213B49F46EE370E074
:100B60000E94C10A892B79F70E94F103ECCF213E44
:100B700051F46EE370E00E94C10A6F5F609305015B
:100B80000E946302E0CF81E008950F931F93CF93FB
:100B9000C82F8B01873B91F480E00E94D40381E051
:100BA00080935101C8018F739927892B09F454C090
:100BB000602F809106010E94DC011BC08079803982
:100BC000F9F48C2F8F708230C9F081E00E94D40339
:100BD00060910A0170E0C43C41F0C43B09F50E94F9
:100BE000F1031092BB0161E070E08FE996E00E9492
:100BF0008F0480E0CF911F910F9108958AE0E6CF96
:100C0000803811F480E0E2CFC830D1F560E0809107
:100C100006010E94DC0181E0EDCFC330C9F6C8CFE8
:100C2000C53C19F466E970E0E0CFC73C11F590913E
:100C30000601892F82958F708F5F83708295807FE8
:100C40009F70892B8093060160E00E94DC010E9466
:100C500063020E94F103CDCF20910601822F8F7095
:100C60008F5F207F6BE00E94B50A922B9093060164
:100C70009FCFC73E81F6109251010E946302B9CF07
:100C8000C13059F60931110508F4B3CFC0936001A2
:100C90008FCF883029F481E08093000180E00895AF
:100CA000813C39F470E060E086EF94E00E948F04AC
:100CB000F5CF823C29F470E060E089EB94E0F6CF58
:100CC000813B99F48091040190910001890F823059
:100CD00040F482E080930401809104010E94D403D7
:100CE000DDCF8937B8F388E7F5CF813E41F48091B5
:100CF00000018195809300010E946302CFCF823B67
:100D000049F481E08093000180910401833020F355
:100D10008150E0CF823E81F381E0089586E884B976
:100D200010928601109287010E941D01E1E6F0E019
:100D3000808182608083139A87EE83B908951F9320
:100D4000CF93DF93482F9B01E0910901D0910801D7
:100D500080915301C0915201811101C0C1E048301E
:100D600029F04A30B9F420910A0130E0E217130665
:100D700030F4D217130619F010F020930A01C901BC
:100D80000E946E01809354010E94D40381E08093FD
:100D9000010108C0413C59F470E060E086EF94E046
:100DA0000E948F0480E0DF91CF911F910895423C13
:100DB00059F480915F01863920F486E980935401CB
:100DC00040C080910A01FACF443C41F480E00E9487
:100DD000D40370E060E085EC95E0E2CF9FE4940FEF
:100DE000923008F04BC0882339F0C90168E170E007
:100DF0000E94C10A892BB1F680915F01211531054E
:100E000049F5423B09F58FEF8093010110915F0195
:100E1000809101016C2F70E0082E000C990B0E944C
:100E2000A40A810F911D0E946E01C82F80930A01B0
:100E3000181721F08D1302C00E940204C0935401C0
:100E40008C2F0E94D403AECF8D17E8F6E817F0F28E
:100E500081E0DACF273341E0340710F08D1798F6A0
:100E60002D36324098F2E81788F20E94F10370E0C4
:100E700060E085EC95E00E948F04C8CF9FE1940F5D
:100E8000923020F480910101819581CF413009F0A9
:100E900081C02E33310511F44093010130915E0180
:100EA00020915F01432F421B550BCA0160913A010B
:100EB00070913B016F5F7F4F70933B0160933A01EC
:100EC000009709F46FCF40E052E097FF06C040E47E
:100ED00050E0233810F440E051E05695479597FDD7
:100EE0000196959587950097C1F74617570708F023
:100EF00059CF321778F53FEF320F6FEF630FE62FC0
:100F0000F0E0EE0FFF1FCF0183589F4FFC0145918A
:100F10005491621718F560916C0070916D00672B09
:100F2000E9F44F3F23E05207C9F450936D0040931A
:100F30006C0040916C0050916D00FC018591949182
:100F40004817590711F430935F0110923B0110923A
:100F50003A0128CF231788F631E0CECF60916C009C
:100F600070916D006417750738F440916C005091D2
:100F70006D004F5F5F4FD9CF60916C0070916D0035
:100F800046175707B0F640916C0050916D004150E4
:100F90005109CBCF4530A9F480915F01833308F428
:100FA00001CF90E0821B930B282F823391053CF0F8
:100FB0008739910508F026E920935E01F3CE22E3FC
:100FC000FBCF4630B1F490915F01809154019817A6
:100FD00008F0E8CE290F311D90E08217930734F016
:100FE000C9012233310514F482E390E080935E015D
:100FF000D9CE473069F490915E0180915F018917E5
:1010000010F48F5FF3CF981708F0CCCE8150EECF5D
:10101000433C89F491E0811190E0909353010E9448
:1010200063020E94020480915F0190E00E946E01C1
:1010300080930A01C3CE81E0B6CE0F931F93CF9366
:10104000109263018091B9019091BA019C012F5FC8
:101050003F4F88279078822B932B9093BA018093EF
:10106000B901909161012FB1822F8095881F882747
:10107000881F809361019817B9F0109260018093E6
:1010800061019091BB01892F27FD37C080699F7056
:101090009F3089F58093BB0190E080E00E940F01B2
:1010A0001092BA011092B9010091B9011091BA01E0
:1010B00080916001882371F1B80183E00E94F400FF
:1010C0000E9452040F731127012B89F410923C01E6
:1010D0000E948E06C0913C01C11105C00E941D01F5
:1010E00081E080937D01CF5FCF71C0933C01CF91B0
:1010F0001F910F9108958F5FCDCF8F7E95FD08C012
:1011000080688093BB018091B9019091BA01C6CFEC
:10111000806CF7CFC091BB018C2F807F803B49F45E
:1011200070E060E081E00E94F400C8010E940F01BD
:10113000D1CFB80181E00E94F400C4FF0FC0C5FD0B
:10114000F4CF0831110530F21092BA011092B901B2
:10115000C062C093BB0190E080E0E8CFCC2309F4EB
:10116000B9CFC5FF0AC01092BB011092BA0110920C
:10117000B90181E080935501ADCF0231110508F42A
:10118000A9CFC064C093BB0190E080E00E940F0132
:10119000EACF8091880181110E94A00280916301B1
:1011A00081110C941D0808950F931F93CF93DF9323
:1011B000EC0108E017E0209731F481E0DF91CF9156
:1011C0001F910F910895809155012197811108C0B9
:1011D000C8010197F1F70E94C9080E945204EBCFA1
:1011E00080E0ECCF2F932FB72F933F938F939F9354
:1011F000AF93BF93EF93FF93809187018823E9F02A
:10120000E091860120B131B1F0E0EE0FFF1FDF0168
:10121000AE57BE4F2D933C93E258FE4F8081918193
:101220008217930708F401962817390708F40197E5
:101230009183808381E08093880181E0809387019E
:10124000FF91EF91BF91AF919F918F913F912F911E
:101250002FBF2F9118958F9381E0809363018F9119
:1012600018958F9381E0809362018F911895F8947F
:1012700085B7877F85BF90E088ED0FB6F894A89575
:101280008FBD90B7977F90BF0FBE81E088B999E07E
:101290009CB998E390BB93E890937200809371009F
:1012A00080E882BB87BD8CB788608CBFA89580E43E
:1012B00080BF0E948E06789481E00E94140170E045
:1012C00060E08CEC94E00E943B04109255010E9477
:1012D000F10382E00E941401F89480E890E00E94FB
:1012E000E90A853A09F48AC0789461E070E086EFF3
:1012F00094E00E943B0483E4F82EEE24E39492E011
:10130000D92E20E4C22ED1E00E94520480916601C1
:1013100090916701009751F06091640170916501AF
:101320000E948F0410926701109266018091600103
:10133000882371F180E00E94D403A895F0BE1F9825
:101340009FB1892F8095881F8827881F809361010E
:1013500097FFF6CF1092BB011092BA011092B9011B
:10136000E09255018CB788608CBF10928801109272
:101370006301109262018091600181116BC0D09273
:101380000C018CB7877F8CBF0E948E06A895C0BECB
:101390000E94C908109255010091790110917A01BB
:1013A00080915101811105C00E94C601880F0E94E1
:1013B0002101F6E009341F0709F06EC0C091040155
:1013C000CC0FC73908F0C6E914E08C2F0E94D40373
:1013D00085E090E00E94D408809104010E94D4032B
:1013E00081E490E00E94D408115079F780ED92E0FA
:1013F0000E94D40880E00E94D40386CF06E511E065
:10140000C1E8D0E0CE010E94E90AF80181938F0182
:101410002196C838D105B1F7789480915601809310
:10142000530180915701809304018091580180936A
:1014300005018091590180930B0180915A0180939D
:101440007B0180915B018093070180915C01809317
:1014500006014BCF86B78F79806486BF86B78061DF
:1014600086BF889586B78F7E86BF80916201811185
:101470001092600180918801882331F0D0930C0193
:10148000D0937D010E94A00280916301882309F41A
:1014900072CF0E941D086FCF84E0093B180769F5E1
:1014A00080917C01C0E0EC2FF0E0E958FF4FE4911F
:1014B0008E1708F506EAC11102C008E0C1E010E08D
:1014C00089E10E94D403C8010E94D40880E00E94F0
:1014D000D4038AEF90E00E94D408C15089F78AE9CA
:1014E00092E00E94D408882309F40ECF88EE93E09E
:1014F0000E94D40809CFCF5FD6CF09591540C9F44F
:1015000080916101811100CF80910A010E94D40372
:1015100084E690E00E94D40880E00E94D403809189
:10152000050190E068EE73E00E94A40A84569109D8
:10153000DFCF86B78F7986BF86B7806186BF8895F3
:1015400086B78F7E86BFE0CE0024552704C0080EE4
:10155000591F880F991F009729F076956795B8F362
:101560007105B9F7802D952F0895991B79E004C076
:10157000991F961708F0961B881F7A95C9F78095D2
:101580000895AA1BBB1B51E107C0AA1FBB1FA617CA
:10159000B70710F0A61BB70B881F991F5A95A9F71C
:1015A00080959095BC01CD01089597FB072E16F408
:1015B000009407D077FD09D00E94C10A07FC05D02E
:1015C0003EF4909581959F4F0895709561957F4F5A
:1015D0000895E199FECF1FBA8EBBE09A99278DB38B
:1015E0000895262FE199FECF1FBA8EBBE09A815055
:1015F0000DB2021639F01CBA2DBB0FB6F894E29A60
:0A160000E19A0FBE0895F894FFCFA1
:10160A0001010004320237198201322D020201005F
:10161A0000000000000001000000000000000001BE
:10162A000000210123022503270429052C06FF06B1
:08163A008282010A050403008D
:00000001FF
