:10000000F2C00CC1BCC70AC109C108C107C106C101
:1000100077C704C103C102C1ACC700C1FFC01E2322
:1000200026282A63000000000000000000000000F5
:1000300000000000000000000000000000000000C0
:1000400000000000000000000000000000000000B0
:1000500000000000000000000000000000000000A0
:100060000000000000000000000000000000000090
:100070000000000000000000000000000000000080
:1000800000000000000000000507090B0D0F12140E
:1000900017191C1F2225282C2F33363A3E42464B77
:1000A0004F54595E63686E73797F868C939AA1A8CA
:1000B000B0B7BFC8D0D9E2EBF5FF000000000000E8
:1000C0000000000000000000000000000000000030
:1000D0000000000000000000000000000000000020
:1000E00000000000000000000000000007080A0BEC
:1000F0000D0E10121315171A1C1E212326292C2F42
:1001000033363A3E42464B4F545A5F656A70777EAB
:10011000858C939BA4ACB5BEC8D2DDE8F3FFFFFF8E
:10012000FFFFFFFFFFFFFFFFFFFFFFFFFFFFFFFFDF
:10013000FFFFFFFFFFFFFFFFFFFFFFFFFFFFFFFFCF
:10014000FFFFFFFFFFFFFFFFFFFFFFFFFFFFFF00BE
:100150000101020203040405060708090A0B0F1037
:10016000121416181A1C1E2124272B2F33383D4237
:10017000484E555C636B747D87919CA8B4C2D0DEF9
:10018000EEFFFFFFFFFFFFFFFFFFFFFFFFFFFFFF90
:10019000FFFFFFFFFFFFFFFFFFFFFFFFFFFFFFFF6F
:1001A000FFFFFFFFFFFFFFFFFFFFFFFFFFFFFFFF5F
:1001B000FFFFFFFFFFFFFFFFFFFFFFFFFFFFFFFF4F
:1001C000FFFFFFFFFFFFFFFFFFFFFFFFFFFFFFFF3F
:1001D000FFFFFFFFFFFFFFFFFFFFFFFFFFFFFFFF2F
:1001E000FFFFFFFFFF0011241FBECFE5D2E0DEBFFF
:1001F000CDBF10E0A0E6B0E0E4EAF2E102C0059075
:100200000D92AE36B107D9F720E0AEE6B0E001C0FE
:100210001D92AD3EB207E1F7B8D642C8F1CE482FE5
:10022000362F272FEAEBF0E090E080E0508151116B
:100230000AC063E070E0E2D7FC01E654FF4F408360
:100240003183228305C0019633968031910571F781
:100250000895BC018091EC00E2CF90E822E048EAEA
:1002600057E030E0815008F408950FB6F89496BD39
:1002700026BD0FBEFA013197F1F70FB6F89496BD7F
:1002800036BD0FBEEFCF86B1886486B90895CF9290
:10029000DF92EF92FF920F931F93CF939C015091A7
:1002A0008600852F90E0FC01E559FF4F4081409387
:1002B000650087599F4FFC0180818093640042173D
:1002C000130609F0C4F5821713061CF0511109C07A
:1002D000822FCF911F910F91FF90EF90DF90CF90E1
:1002E0000895841BE82EF12CC70166E070E0ABD7BF
:1002F000609385006695E62FF0E010E000E0C7E02F
:1003000086E0C82ED12CC801B60189D7842F860F6C
:10031000A82FB0E0B9016A1B7B0B77FF03C0BD01BA
:10032000621B730BE617F707A4F6C1500E0D1F1DD5
:10033000C111E9CFCECF842FCCCF0F931F93CF9392
:10034000DF93809186008093890080916200809382
:100350008A008091630080938B0080916700809376
:100360008C008091AC0080938D00F89409E810E037
:10037000C1E0D1E0F80161918F01CE017FD72196D4
:10038000C630F1E0DF07B1F765EA80E091E076D7AB
:100390007894DF91CF911F910F91089580919000F3
:1003A000863040F480E892E00FB6F89486BD96BDA2
:1003B0000FBE08958F3018F480E891E0F5CF80E803
:1003C00090E0F2CF8093900080938F00811104C061
:1003D00019BC18BC1BBCE2CF815090E0FC01E05B73
:1003E000FE4FE491E9BDFC01E654FF4FE491E8BD06
:1003F0008C5D9F4FFC0184918BBDEDCFCF93C0915D
:10040000900089E18C0F873908F080E0DBDF82E023
:1004100024DF8C2FCF91D6CFCF93C091900080E076
:10042000D1DF83E01ADF8C2FCF91CCCFFF920F93D7
:100430001F93CF93DF938C01D62FC72FF42E80917B
:10044000AA009091AB00892B31F0E091AA00F091C5
:10045000AB0089E009951093AB000093AA00012B33
:1004600041F0E091AA00F091AB006D2F7C2F8F2D11
:10047000099581E080938800DF91CF911F910F91C2
:10048000FF90089520919900283080F4E22FF0E049
:10049000EE0FFF1FE656FF4F808391832F5F20935F
:1004A000990048E0C3DF8091990008958FEF089587
:1004B000EF92FF921F93CF93DF931091BA00111127
:1004C00006C0DF91CF911F91FF90EF900895E090CB
:1004D000BB00F090BC00C0919900C1500C2E000CE4
:1004E000DD0BC7FD0EC0FE01EE0FFF1FE656FF4FEE
:1004F0000190F081E02DB701812F0995219781119D
:10050000F0CFEAEBF0E08381808384819581928350
:100510008183339680E0E73EF807A9F71092E70061
:100520001092E9001092E800C8CF0F931F93CF9369
:10053000DF93D82FC92F8B0120919900222319F026
:10054000215020939900E091990090E080E0EE2303
:1005500041F0E150FF0BEE0FFF1FE656FF4F808189
:1005600091814AE070E060E061DFB8018D2F9C2F3F
:10057000DF91CF911F910F9185CFCF93DF93EB0147
:10058000883061F480E01EDFCD2B21F080E0DF9128
:10059000CF91089581E080939100F8CF813021F4CC
:1005A0006931710598F3F7CF813B81F481E090E0E8
:1005B0006EDE08DF80918600811102C0689730F3FB
:1005C00061E070E08AEE93E0B0DFE0CF813EC1F3FE
:1005D000813831F48091660090E059DEF3DED6CFA9
:1005E0006091900070E0813C69F3823B11F486E9F0
:1005F000F5CF823E11F480E0F1CF823C19F466E938
:1006000070E0E0CF8339B9F3833C29F470E060E017
:1006100085E193E0D9CF843C31F4F0DE70E060E016
:1006200087E293E0D1CF81E0B2CF813C39F470E032
:1006300060E08DEB92E079DF80E00895823C29F460
:1006400070E060E081E893E0F6CF81E00895CF9319
:10065000C82F2C2F20792039C1F48C2F8F70823035
:1006600091F081E0AFDE6091660070E0C43C39F04B
:10067000C43BC9F4C3DE1092EC0061E070E08AEE86
:1006800093E053DF0DC084E1EDCF203811F480E01A
:10069000E9CFC13041F76931710510F0C093910085
:1006A00080E0CF91089581E0C53CD9F766E970E01C
:1006B000E6CF843021F58091AA009091AB0023E031
:1006C000883A920731F469E170E08AEE93E02DDF19
:1006D0000FC08A5E934071F490919000923050F078
:1006E000892F869596959695890F809387006ADE67
:1006F00080E0089570E060E08DEB92E0E8CF81E06B
:100700000895282FCB01213C39F470E060E08DEB97
:1007100092E00BDF80E00895223C29F470E060E075
:1007200088EA93E0F6CF213B39F46EE370E077D5A9
:10073000892B81F763DEEECF213E41F46EE370E05A
:100740006ED56F5F60936300F8DDE4CF81E00895BC
:10075000883029F481E08093600080E00895813C36
:1007600031F470E060E08DEB92E0DFDEF6CF823CAA
:1007700029F470E060E085E193E0F7CF813B91F4EC
:100780008091620090916000890F823038F482E09D
:10079000809362008091620015DEDFCF8937C0F35D
:1007A00088E7F6CF813E39F480916000819580938F
:1007B0006000C3DDD2CF823B49F481E080936000CA
:1007C00080916200833030F38150E2CF823E89F322
:1007D00081E008951F93CF93DF93482F9B01E09111
:1007E0006500D091640080918600C09185008111E0
:1007F00001C0C1E0483029F04A30A9F420916600D8
:1008000030E0E217130630F4D217130619F010F097
:1008100020936600C9013BDD80938700D3DD81E032
:100820008093610007C0413C51F470E060E08DEBC3
:1008300092E07BDE80E0DF91CF911F910895423CF2
:1008400059F480919000863920F486E980938700DE
:100850003BC080916600FACF443C39F480E0B2DDC1
:1008600070E060E087E293E0E4CF9FE4940F923081
:1008700008F044C0882331F0C90168E170E0CFD4AA
:10088000892BC1F6809190002115310529F5423B55
:10089000E9F48FEF809361001091900080916100E6
:1008A0006C2F70E0082E000C990BA8D4810F911DBD
:1008B000EEDCC82F80936600181719F08D1301C065
:1008C000ABDDC09387008C2F7DDDB4CF8D1708F78B
:1008D000E81710F381E0DECF273341E0340710F052
:1008E0008D17B8F62D363240B8F2E817A8F286DD3B
:1008F00070E060E087E293E018DECECF9FE1940FD6
:10090000923020F48091610081958ACF413009F0C6
:1009100095C02E33310511F44093610030918F0062
:1009200020919000E32FE21BFF0BCF0160916E003E
:1009300070916F006F5F7F4F70936F0060936E00D8
:10094000309709F477CF40E052E0F7FF06C040E46B
:1009500050E02E3710F440E051E05695479597FD52
:100960000196959587950097C1F74617570708F0A8
:1009700061CF321708F042C03FEF320F5FEF530FE5
:10098000852F90E0BC01605B7E4FFB0144915217C4
:1009900008F039C029B5211136C04F3F09F033C0E6
:1009A00049BDAC0146545F4FFA012491E8B5E21706
:1009B00008F037C028B52F5F28BD8C5D9F4FFC0124
:1009C0002491EBB5E217A0F52BB52F5F2BBD29B510
:1009D000FB01649126130CC028B5FA01449124133D
:1009E00007C02BB5FC018491281302C030939000FE
:1009F000D5DC10926F0010926E001CCF231708F008
:100A0000BDCF31E0BACF29B5241720F429B52F5F27
:100A100029BDC7CF29B5421708F0C3CF29B521504A
:100A2000F7CFE8B52E1708F0C8CF28B52150C4CFAE
:100A3000EBB52E1760F62BB52150C8CF4530A9F481
:100A400080919000833308F4F5CE90E0821B930BE5
:100A5000282F823391053CF08739910508F026E96B
:100A600020938F00E7CE22E3FBCF4630B1F4909184
:100A7000900080918700981708F0DCCE290F311D77
:100A800090E08217930734F0C9012233310514F442
:100A900082E390E080938F00CDCE473069F490914F
:100AA0008F0080919000891710F48F5FF3CF981713
:100AB00008F0C0CE8150EECF433C71F491E081113B
:100AC00090E09093860039DCA7DC8091900090E064
:100AD000DEDB80936600BACE81E0ADCE0F931F932C
:100AE000CF938091B900882309F45CC01092B900BB
:100AF00034B185B120918E0032953695369533709C
:100B000090E0880F991F880F991F830F911D820F06
:100B100080938E008091AE00882309F443C0109228
:100B2000AE008091B7008111A0C0809168006091F3
:100B3000AF007091B000882341F06091B3007091D4
:100B4000B4007093B0006093AF00605F7F4FA6E089
:100B500076956795AA95E1F780E098E560D36B5F9D
:100B60007F4F769567956093AD00809183008823D1
:100B700009F472C0815080938300809191008111AB
:100B800008C08FEA87B981E08093B7001092B8005F
:100B90007ADB80916800882329F080916800815079
:100BA0008093680080919400882309F451C01092CA
:100BB00094008091EA009091EB009C012F5F3F4FE1
:100BC00088279078822B932B9093EB008093EA00F8
:100BD0003091920096B381E0292F287093FD80E038
:100BE000809392003817B9F09091EC001092910028
:100BF00080939200892F211102C180699F709F30DC
:100C000009F0FBC08093EC0090E080E022DB1092C2
:100C1000EB001092EA000091EA001091EB00C09105
:100C2000EC008C2F807F803B09F0F6C070E060E024
:100C300081E0F5DAC8010DDBC0917000C11104C07C
:100C400022DB81E08093AE00CF5FCF71C093700054
:100C5000CF911F910F9108956D3108F08ECF70E004
:100C600060E084E0DCDA85E086CF813009F091CF66
:100C700080916800811150C06091B1007091B20004
:100C8000605F7F4F9B0145E0369527954A95E1F7D8
:100C9000A091AC0080917200E82FF0E0EE0FFF1FF2
:100CA000ED58FF4F40815181B901641B750BAB01B9
:100CB000318320838F5F877080937200660F771F68
:100CC000660F771F8091670090E08D5E9E4F8A1BB4
:100CD0009109A7FD9395880F991F681B790B620FE7
:100CE000731F83E0161617060CF045C0615071099A
:100CF0008150C1F7161617060CF057C057FD74C087
:100D0000809171001816F4F5861B809371008CE2B7
:100D100087B91092B7003ACF8091B5009091B60094
:100D20009093B2008093B100409635E096958795F8
:100D30003A95E1F790937400809373009093760056
:100D400080937500909378008093770090937A0059
:100D50008093790090937C0080937B0090937E0039
:100D600080937D009093800080937F009093820019
:100D70008093810081CF6115710509F4B9CF6F5F50
:100D80007F4FB6CF660F771F653071055CF06350FB
:100D900071097595679588E1861B8093710085E0E0
:100DA0003EDAB5CF61E070E0F6CF6C3F8FEF7807A9
:100DB000DCF457FF19C08091710087FF02C0845096
:100DC000A3CF84EE861B809371008091AD008F319C
:100DD00008F49DCF8CEF9FEF9C01261B370BB901C8
:100DE0007595679586E0DCCF8091AD008E3108F473
:100DF0008ECF70E060E087E0D3CF8F5F03CF8F7E30
:100E000095FD08C080688093EC008091EA00909185
:100E1000EB00FCCE806CF7CFB80181E000DAC4FFB4
:100E200010C0C5FD07CF0831110508F405CF109299
:100E3000EB001092EA00C062C093EC0090E080E00A
:100E4000FACECC2309F4F8CEC5FF0AC01092EC000C
:100E50001092EB001092EA0081E080938800ECCEC3
:100E60000231110508F4E8CEC064C093EC0090E0B4
:100E700080E0EFD9EBCFBF92CF92DF92EF92FF925B
:100E80000F931F93CF93DF93EC0110E888E0E82ED7
:100E900087E0F82E02E092ECC92EDD24D394B12C29
:100EA000209759F481E0DF91CF911F910F91FF902E
:100EB000EF90DF90CF90BF900895809188008111CE
:100EC0001DC090919000963090F40FB6F89416BD26
:100ED00006BD0FBEC6010197F1F78B2D0FB6F89432
:100EE00016BD86BD0FBEFADDE3DA2197D9CF0FB666
:100EF000F89416BD86BD0FBEC701EDCF80E0D3CFFD
:100F00002F932FB72F933F938F939F93AF93BF93BD
:100F1000EF93FF938091B8008823E9F0E091B70048
:100F200024B135B1F0E0EE0FFF1FDF01AD54BF4F2C
:100F30002D933C93E155FF4F808191818217930758
:100F400008F401962817390708F4019791838083E4
:100F500081E08093B90081E08093B800FF91EF9128
:100F6000BF91AF919F918F913F912F912FBF2F9163
:100F700018958F9381E0809394008F9118958F93AB
:100F800081E0809393008F911895F89484B7877FC0
:100F900084BF0FB6F894A89581B5886181BD11BC56
:100FA0000FBEB89A81E083BF91EA9ABDB99ABC9A04
:100FB00080BF80E68CBD8FEF8DBD88E088BB85BB90
:100FC0008BB780628BBFA89581B5886181BD80E4B5
:100FD00081BD8CE287B91092B7001092B80053D946
:100FE00087EE86B9789481E038D970E060E089E5D1
:100FF00093E048DA1092880001DAF89480E091E0FA
:1010000035D1853A09F488C0789461E070E08DEBC1
:1010100092E038DAD1E082E0F82E9CE2E92E27EE69
:10102000D22E30E4C32E44DA80919700909198003C
:10103000009749F0609195007091960076DA1092D1
:1010400098001092970080919100882309F43EC087
:1010500080E0B8D9A89584B7877F84BF81B58861BF
:1010600081BD11BC379896B381E0292F287093FD7C
:1010700080E0809392002223B1F31092EC00109252
:10108000EB001092EA00D09388008BB780628BBF90
:101090001092910085B7877E806185BF85B7806299
:1010A00085BF889585B78F7D85BFF09268008BB727
:1010B0008F7D8BBFE7B81092B7001092B800E3D8CD
:1010C000D6B8A89581B5886181BDC1BC07DD1092F5
:1010D00088008091AA009091AB0023E0883A9207A3
:1010E00009F03EC0C0916200CC0FC73908F0C6E9D4
:1010F00014E08C2F67D985E090E0BDDE809162001E
:1011000061D981E490E0B7DE115099F780ED92E06B
:10111000B2DE80E057D987CF09E810E0C1E0D1E026
:10112000CE01A4D0F80181938F012196C630F1E061
:10113000DF07B1F7789480918900809386008091D1
:101140008A008093620080918B008093630080917D
:101150008C008093670080918D008093AC0055CF08
:10116000E3E085319E0739F58091AD00C0E0EC2FBA
:10117000F0E0E25EFF4FE4918E17D8F406EAC11169
:1011800002C008E0C1E010E089E11CD9C80173DEAB
:1011900080E018D98AEF90E06EDEC150A9F78AE9A5
:1011A00092E069DE882309F43ECF88EE93E063DEA7
:1011B0003ACFCF5FDCCF81589340A9F48091920061
:1011C000811131CF80916600FDD884E690E053DE36
:1011D00080E0F8D88091630090E068EE73E00ED074
:1011E00084569109E4CF85B7877E85BF85B7806235
:1011F00085BF889585B78F7D85BF15CF002455277E
:1012000004C0080E591F880F991F009729F0769582
:101210006795B8F37105B9F7802D952F0895AA1B2E
:10122000BB1B51E107C0AA1FBB1FA617B70710F0D1
:10123000A61BB70B881F991F5A95A9F78095909503
:10124000BC01CD01089597FB072E16F4009406D03B
:1012500077FD08D0E4DF07FC05D03EF4909581953A
:101260009F4F0895709561957F4F0895E199FECF46
:101270009FBB8EBBE09A99278DB30895262FE199E5
:10128000FECF9FBB8EBBE09A01970DB2021639F0DC
:101290001CBA2DBB0FB6F894E29AE19A0FBE0895DE
:0412A000F894FFCFF0
:0E12A400010132027501322D02757501140030
:00000001FF
