:100000000C946B010C9488010C94040A0C948801E4
:100010000C9488010C94FE090C9488010C948801BE
:100020000C9488010C9488010C9488010C9488012C
:100030000C9488010C9488010C94C5090C948801D7
:100040000C9488010C9488010C9488010C9488010C
:100050000C9488010C9488010C9488010C948801FC
:100060000C9488010C9488010C9488010C948801EC
:10007000010504141011151E2326282A6300000010
:100080000000000000000000000000000000000070
:100090000000000000000000000000000000000060
:1000A0000000000000000000000000000000000050
:1000B0000000000000000000000000000000000040
:1000C0000000000000000000000000000000000030
:1000D0000000000000000000000000000000000020
:1000E0000000000000000000000000000000000010
:1000F0000000000000000000000000000000000000
:1001000000000000000000000000000000000000EF
:1001100000000000000000000000000000000000DF
:1001200000000000000000000000000000000000CF
:1001300000000000000000000000000000000000BF
:1001400000000000000000000000000000000000AF
:10015000000000000000000000000000000000009F
:10016000000000000000000000000000000000008F
:10017000000000000000000000000000000000007F
:10018000000000000000000000000000000000006F
:10019000000000000000000000000000000000005F
:1001A00000000000000000FF030100010001000149
:1001B000000200020002000200030003000300042A
:1001C00000040005000500060006000700080008FE
:1001D0000009000A000B000C000D000E000F0010BB
:1001E000001100120014001500170018001A001B5F
:1001F000001D001F00210023002500270029002BDF
:10020000002D0030003200350038003A003D00403B
:1002100000430046004A004D005000540058005B67
:10022000005F00630067006C007000740079007D5F
:1002300000820087008C00910096009C00A100A71E
:1002400000AD00B200B800BF00C500CB00D200D99D
:1002500000DF00E600EE00F500FC0004010C0113D5
:10026000011B0124012C0134013D0146014F0158BD
:100270000161016B0174017E01880192019D01A75A
:1002800001B201BD01C801D301DE01EA01F601029C
:10029000020E021A022702330240024D025B02687C
:1002A00002760284029202A002AF02BE02CD02DCFC
:1002B00002EB02FB020A031A032B033B034C035D10
:1002C000036E037F039103A303B503C703D903ECB4
:1002D00003FF0300000011241FBECFEFD4E0DEBFF8
:1002E000CDBF11E0A0E0B1E0ECE9F7E102C005907C
:1002F0000D92A833B107D9F721E0A8E3B1E001C01E
:100300001D92AB3BB207E1F70E940A0A0C94CC0B9A
:100310000C940000482F362F272FE8E8F1E090E0FA
:1003200080E0508151110BC063E070E00E946D0BC2
:10033000FC01E857FE4F40833183228305C00196BC
:1003400033968031910569F70895BC018091BA0117
:100350000C948A0128E13FE1815008F40895F901E5
:100360003197F1F7F9CF83B1886483B90895CF93BA
:10037000DF9300D00F92CDB7DEB7209134013091DA
:1003800035014091360129833A834B83FE01319632
:1003900050E040E0682F70E0A1E0B0E09B01042E47
:1003A00002C0359527950A94E2F7922F93708191B8
:1003B0009D0101C0220F8A95EAF7992329F0913017
:1003C000C1F080B3822B19C080B32095822380BBFB
:1003D00082B3822382BB81B3282321BB4E5F5F4F50
:1003E00046305105D9F60F900F900F90DF91CF91C5
:1003F000089590B3822F8095892380BB82B3822B8E
:1004000082BB81B3282BE9CFCF92DF92EF92FF928C
:100410000F931F93CF939C0150915201852F90E031
:10042000FC01EE5CFE4F408140930901805D9E4FD0
:10043000FC018081809308014217130609F0D4F56E
:10044000821713061CF0511109C0822FCF911F9102
:100450000F91FF90EF90DF90CF900895841BE82ECE
:10046000F12CC70166E070E00E949E0B6093510181
:100470006695E62FF0E010E000E0C7E086E0C82EC9
:10048000D12CC801B6010E948A0B842F860FA82F99
:10049000B0E0B9016A1B7B0B77FF03C0BD01621B93
:1004A000730BE617F70794F6C1500E0D1F1DC1110F
:1004B000E8CFCCCF842FCACFE82F862F90917B0135
:1004C0002FEF290F2C3118F480E00C94B7012E2F58
:1004D00022952F70EF7030915F01311103C02330EE
:1004E00008F022E0E73010F4F0E02AC0E73009F02D
:1004F00042C04091390150E04F5F5F4FE0910201EF
:10050000F09103013196FB70F460F0930301E093E6
:10051000020180915C018B5A80935C018491E0918F
:100520005C018E0F65E00E947E0BBA01690F711DA0
:10053000CB0166E070E00E949E0B80933901FC01C4
:10054000E059FF4FE491233071F48091380190E03D
:10055000019663E170E00E948A0B80933801835F0B
:100560009E4FDC012C91222321F02130C1F12E2F4E
:10057000220F822FAACFE830A9F490915F016FE09B
:10058000911101C063E0862351F48091390190E01C
:10059000019666E070E00E949E0B80933901E09125
:1005A0003901A2CF30915F01332381F080E09D318A
:1005B00018F4E0E0C8CF8E5FE82FF0E0E05EFE4F79
:1005C00030819317C0F73197E0818ECF869563E035
:1005D0000E947E0BE92FF0E0EE0FFF1FB1CF2E2F10
:1005E000C8CF0F931F93CF93DF93809152018093D5
:1005F00055018091040180935601809105018093FB
:10060000570180910B018093580180917A0180936A
:1006100059018091070180935A01809106018093CE
:100620005B0182E00E94AA01F89405E511E0C1E8AF
:10063000D0E0F80161918F01CE010E94BA0B2196A2
:10064000C838D105B1F765EA80E890E00E94BA0B9E
:100650007894DF91CF911F910F91089510928701A7
:1006600030B181B120915C01329536953695337069
:1006700090E0880F991F880F991F830F911D820F9B
:1006800080935C0180917C01882309F441C0109221
:100690007C018091850190915F01992319F01F9849
:1006A00010928501811143C080910C01882389F14A
:1006B000809181019091820190937E0180937D01D0
:1006C000409696958795807F9F776EE872E00E94AE
:1006D0008A0B60937B0180914F018823F9F0815050
:1006E00080934F0180915F01811109C08BE084B933
:1006F00081E080938501109286010E94B301809170
:100700000C01882329F080910C01815080930C0109
:10071000089580917D0190917E01D2CF6D3110F7C7
:1007200070E060E084E00E948A0185E0D9CF8130EA
:1007300031F780910C01811150C060917F0170915F
:100740008001605F7F4F9B0145E0369527954A9574
:10075000E1F7A0917A0180913E01E82FF0E0EE0FE1
:10076000FF1FE15CFE4F40815181B901641B750B95
:10077000AB01318320838F5F877080933E01660FCA
:10078000771F660F771F80910B0190E08D5E9E4F63
:100790008A1B9109A7FD9395880F991F681B790BF8
:1007A000620F731F83E0161617060CF045C06150E8
:1007B00071098150C1F7161617060CF058C057FD85
:1007C00075C080913D011816F4F5861B80933D019C
:1007D00085E084B9109285018ECF8091830190913C
:1007E00084019093800180937F01409635E0969537
:1007F00087953A95E1F79093400180933F0190935C
:10080000420180934101909344018093430190936E
:10081000460180934501909348018093470190934E
:100820004A018093490190934C0180934B0190932E
:100830004E0180934D0181CF6115710509F4B9CF47
:100840006F5F7F4FB6CF660F771F6530710564F01D
:10085000635071097595679588E1861B80933D010A
:1008600085E00E948A01B4CF61E070E0F5CF6C3F73
:100870008FEF7807DCF457FF19C080913D0187FFA7
:1008800002C08450A2CF84EE861B80933D018091EC
:100890007B018F3108F49CCF8CEF9FEF9C01261BCE
:1008A000370BB9017595679586E0DBCF80917B01A9
:1008B0008E3108F48DCF70E060E087E0D2CFCF9327
:1008C000C82F80935E0180935D0180915F0181114B
:1008D00002C00E94B701C1110BC010926B001092B0
:1008E0006A0010926D0010926C008F98CF9108955D
:1008F000C150C539C0F48F9A8C2F90E0880F991F92
:10090000FC01E755FE4F2591349130936B00209305
:100910006A00FC01E358FF4F8591949190936D001C
:1009200080936C00E3CF8F98E7CFCF93C0915E01A7
:1009300089E18C0F873908F080E00E945F0482E033
:100940000E94AA018C2FCF910C945F04CF93C09189
:100950005E0180E00E945F0483E00E94AA018C2F68
:10096000CF910C945F04FF920F931F93CF93DF936B
:100970008C01D62FC72FF42E8091780190917901A8
:10098000892B31F0E0917801F091790189E00995A6
:100990001093790100937801012B41F0E0917801E7
:1009A000F09179016D2F7C2F8F2D099581E0809337
:1009B0005401DF91CF911F910F91FF9008952091E5
:1009C0006701283088F4E22FF0E0EE0FFF1FE859AE
:1009D000FE4F808391832F5F2093670148E00E9440
:1009E000B3048091670108958FEF0895EF92FF920D
:1009F0001F93CF93DF9310918801111106C0DF91EF
:100A0000CF911F91FF90EF900895E0908901F090B1
:100A10008A01C0916701C1500C2E000CDD0BC7FD8F
:100A20000EC0FE01EE0FFF1FE859FE4F0190F0814E
:100A3000E02DB701812F099521978111F0CFE8E8CA
:100A4000F1E08381808384819581928381833396D1
:100A500081E0E53BF807A9F71092B5011092B701C4
:100A60001092B601C8CF0F931F93CF93DF93D82F67
:100A7000C92F8B0120916701222319F02150209367
:100A80006701E091670190E080E0EE2341F0E150E2
:100A9000FF0BEE0FFF1FE859FE4F808191814AE066
:100AA00070E060E00E94B304B8018D2F9C2FDF91AD
:100AB000CF911F910F910C94DF04813C41F470E0C1
:100AC00060E08AE995E00E94330580E00895823C69
:100AD00029F470E060E088E396E0F5CF81E00895C6
:100AE000843031F5809178019091790126E08E3D36
:100AF000920739F469E170E084E397E00E943305DE
:100B000010C08453974079F490915E01923058F070
:100B1000892F869596959695890F809353010E940B
:100B20005F0480E0089570E060E08AE995E0E6CF38
:100B300081E00895CF93DF93EB01883091F480E05A
:100B40000E945F0460E0809107010E945C02CD2B4F
:100B500021F080E0DF91CF91089581E080935F01E3
:100B6000F8CF813059F46931710598F380935F01B2
:100B70006C2F809107010E945C02EBCF8330C1F3A0
:100B8000813B99F481E090E00E9404020E945F049E
:100B900080915201811102C06897D8F261E070E043
:100BA00084E397E00E943305D4CF813EB9F38138C6
:100BB00041F480910A0190E00E9404020E945F04C7
:100BC000C8CF60915E0170E0813C51F3823B11F42B
:100BD00086E9F4CF823E11F480E0F0CF823C19F434
:100BE00066E970E0DDCF8339B9F3833C29F470E026
:100BF00060E08DE595E0D6CF843C39F40E94950401
:100C000070E060E084E696E0CDCF873CA9F4909157
:100C10000701892F82958F708F5F83708295807F07
:100C20009F70892B8093070160E00E945C020E9404
:100C3000F1020E9495048DCF873B99F4CE018F730A
:100C40009927892B09F094CF20910701822F8F706B
:100C50008F5F207F6BE00E947E0B922B90930701A9
:100C600087CF873E19F40E94F10273CF81E072CFE3
:100C7000282FCB01213C41F470E060E08AE995E047
:100C80000E94330580E00895223C29F470E060E082
:100C90008EED96E0F5CF213B49F46EE370E00E94C3
:100CA0008A0B892B79F70E949504ECCF213E51F4F1
:100CB0006EE370E00E948A0B6F5F609305010E94F3
:100CC000F102E0CF81E008950F931F93CF93C82FD7
:100CD0008B01873B79F480E00E945F04C8018F7329
:100CE0009927892B09F44FC0602F809106010E943B
:100CF0005C021BC080798039F9F48C2F8F708230B0
:100D0000C9F081E00E945F0460910A0170E0C43C78
:100D100041F0C43B09F50E9495041092BA0161E0CC
:100D200070E084E397E00E94330580E0CF911F914B
:100D30000F9108958AE0E6CF803811F480E0E2CF89
:100D4000C83099F560E0809106010E945C0281E064
:100D5000EDCFC330C9F6C8CFC73C11F5909106015D
:100D6000892F82958F708F5F83708295807F9F70AF
:100D7000892B8093060160E00E945C020E94F102D0
:100D80000E949504D2CF20910601822F8F708F5F31
:100D9000207F6BE00E947E0B922B90930601A4CFE4
:100DA000C73EA9F60E94F102C0CFC13091F60931C9
:100DB000110508F4BACFC0935F0196CF883029F4AB
:100DC00081E08093000180E00895813C39F470E077
:100DD00060E08AE995E00E943305F5CF823C29F472
:100DE00070E060E08DE595E0F6CF813B99F480916D
:100DF000040190910001890F823040F482E08093D9
:100E00000401809104010E945F04DDCF8937B8F3AB
:100E100088E7F5CF813E41F4809100018195809370
:100E200000010E94F102CFCF823B49F481E0809320
:100E3000000180910401833020F38150E0CF823E95
:100E400081F381E0089585E084B9109285011092C4
:100E500086010E94B301E1E6F0E080818160808339
:100E6000139A86EE83B908951F93CF93DF93482F8B
:100E70009B01E0910901D091080180915201C0913C
:100E80005101811101C0C1E0483029F04A30B9F464
:100E900020910A0130E0E217130630F4D21713064E
:100EA00019F010F020930A01C9010E9404028093F6
:100EB00053010E945F0481E08093010108C0413C1E
:100EC00059F470E060E08AE995E00E94330580E023
:100ED000DF91CF911F910895423C59F480915E01BA
:100EE000863920F486E98093530140C080910A013D
:100EF000FACF443C41F480E00E945F0470E060E07F
:100F000084E696E0E2CF9FE4940F923008F04BC065
:100F1000882339F0C90168E170E00E948A0B892BAF
:100F2000B1F680915E012115310549F5423B09F585
:100F30008FEF8093010110915E01809101016C2F70
:100F400070E0082E000C990B0E946D0B810F911D13
:100F50000E940402C82F80930A01181721F08D13F4
:100F600002C00E94A604C09353018C2F0E945F040C
:100F7000AECF8D17E8F6E817F0F281E0DACF27332D
:100F800041E0340710F08D1798F62D36324098F274
:100F9000E81788F20E94950470E060E084E696E02D
:100FA0000E943305C8CF9FE1940F923020F48091C6
:100FB0000101819581CF413009F0BFC02E33310549
:100FC00011F44093010130915D0120915E01432FA6
:100FD000421B550BCA0160913A0170913B016F5F52
:100FE0007F4F70933B0160933A01009709F46FCFF4
:100FF00040E052E097FF06C040E450E02D3810F486
:1010000040E051E05695479597FD01969595879557
:101010000097C1F74617570708F059CF321708F065
:1010200059C03FEF320F2FEF230F253908F057C07B
:101030008F9A822F90E0880F991FAC0147555E4F21
:10104000FA0165917491E0915E012E1708F049C094
:10105000E0916A00F0916B00EF2B09F042C06F3F06
:1010600023E0720709F03DC070936B0060936A0043
:1010700083589F4FFC0165917491E0916C00F09151
:101080006D00E617F70708F049C060916C00709199
:101090006D006F5F7F4F70936D0060936C00609187
:1010A0006A0070916B00FA014591549164177507BD
:1010B00061F440916C0050916D00FC018591949118
:1010C0004817590711F430935E0110923B011092BA
:1010D0003A01FDCE231708F0A6CF31E0A3CF8F98B9
:1010E000A8CFE0916A00F0916B00E617F70738F49B
:1010F00060916A0070916B006F5F7F4FB5CFE09198
:101100006A00F0916B006E177F0708F0B1CF609115
:101110006A0070916B0061507109A6CFE0916C007C
:10112000F0916D006E177F0708F0B9CF60916C00E9
:1011300070916D0061507109AECF4530A9F4809176
:101140005E01863908F4C3CE90E0821B930B282FF2
:10115000853991053CF08739910508F026E92093FF
:101160005D01B5CE25E9FBCF4630B1F490915E012B
:1011700080915301981708F0AACE290F311D90E0F5
:101180008217930734F0C9012539310514F485E934
:1011900090E080935D019BCE473069F490915D01B2
:1011A00080915E01891710F48F5FF3CF981708F0D4
:1011B0008ECE8150EECF433C89F491E0811190E0D6
:1011C000909352010E94F1020E94A60480915E0158
:1011D00090E00E94040280930A0185CE81E078CEDF
:1011E0000F931F93CF93109262018091B801909159
:1011F000B9019C012F5F3F4F88279078822B932B5A
:101200009093B9018093B801309160019FB181E062
:10121000292F247092FD80E0809360013817B9F087
:1012200010925F01809360019091BA01892F211182
:1012300037C080699F709F3089F58093BA0190E034
:1012400080E00E94A5011092B9011092B8010091AE
:10125000B8011091B90180915F01882371F1B80143
:1012600083E00E948A010E94F6040F731127012B6C
:1012700089F410923C010E942307C0913C01C111E6
:1012800005C00E94B30181E080937C01CF5FCF71E4
:10129000C0933C01CF911F910F9108958F5FCDCFE7
:1012A0008F7E95FD08C080688093BA018091B80157
:1012B0009091B901C6CF806CF7CFC091BA018C2F45
:1012C000807F803B49F470E060E081E00E948A0109
:1012D000C8010E94A501D1CFB80181E00E948A0116
:1012E000C4FF0FC0C5FDF4CF0831110530F21092D4
:1012F000B9011092B801C062C093BA0190E080E0D9
:10130000E8CFCC2309F4B9CFC5FF0AC01092BA01C7
:101310001092B9011092B80181E080935401ADCFD1
:101320000231110508F4A9CFC064C093BA0190E05E
:1013300080E00E94A501EACF8091870181110E947F
:101340002E038091620181110C94F00808950F938F
:101350001F93CF93DF93EC0108E017E0209731F45F
:1013600081E0DF91CF911F910F91089580915401F9
:101370002197811108C0C8010197F1F70E949C09CB
:101380000E94F604EBCF80E0ECCF2F932FB72F9382
:101390003F938F939F93AF93BF93EF93FF9380916E
:1013A00086018823E9F0E091850120B131B1F0E0B8
:1013B000EE0FFF1FDF01AF57BE4F2D933C93E35855
:1013C000FE4F808191818217930708F401962817B8
:1013D000390708F401979183808381E08093870126
:1013E00081E080938601FF91EF91BF91AF919F9132
:1013F0008F913F912F912FBF2F9118958F9381E05F
:10140000809362018F9118958F9381E080936101A1
:101410008F911895F89485B7877F85BF90E088ED08
:101420000FB6F894A8958FBD90B7977F90BF0FBE69
:1014300088E08CB988EF80BB83EA8093720081E0FA
:101440008093710084E082BB87BD8CB788608CBFBD
:10145000A89580E480BF0E942307789481E00E94D1
:10146000AA0170E060E080E795E00E94DF0410923E
:1014700054010E94950482E00E94AA01F89480E839
:1014800090E00E94B20B853A09F481C0789461E043
:1014900070E08AE995E00E94DF0483E4F82EEE24F0
:1014A000E39492E0D92E20E4C22ED1E00E94F6040B
:1014B0008091650190916601009751F06091630100
:1014C000709164010E9433051092660110926501CB
:1014D00080915F01882371F180E00E945F04A895EC
:1014E000F0BE1F989FB181E0292F247092FD80E00B
:1014F000809360012223B1F31092BA011092B901D6
:101500001092B801E09254018CB788608CBF1092A1
:101510008701109262011092610180915F01811137
:1015200062C0D0920C018CB7877F8CBF0E942307CA
:10153000A895C0BE0E949C09109254018091780128
:1015400090917901F6E08E3D9F0709F06EC0C09141
:101550000401CC0FC73908F0C6E914E08C2F0E94B3
:101560005F0485E090E00E94A709809104010E9439
:101570005F0481E490E00E94A709115079F780EDA3
:1015800092E00E94A70980E00E945F048FCF05E5EA
:1015900011E0C1E8D0E0CE010E94B20BF8018193C6
:1015A0008F012196C838D105B1F778948091550103
:1015B00080935201809156018093040180915701DC
:1015C000809305018091580180930B01809159010E
:1015D00080937A0180915A018093070180915B0189
:1015E0008093060154CF86B78F79806486BF86B713
:1015F000806186BF889586B78F7E86BF80916101A6
:10160000811110925F0180918701882331F0D0937E
:101610000C01D0937C010E942E03809162018823EB
:1016200009F47BCF0E94F00878CF25E08D35920732
:1016300069F580917B01C0E0EC2FF0E0E958FF4FA5
:10164000E4918E1708F506EAC11102C008E0C1E076
:1016500010E089E10E945F04C8010E94A70980E0B0
:101660000E945F048AEF90E00E94A709C15089F7A9
:101670008AE992E00E94A709882309F417CF88EE2F
:1016800093E00E94A70912CFCF5FD6CF8853964030
:10169000C9F480916001811109CF80910A010E94F3
:1016A0005F0484E690E00E94A70980E00E945F0446
:1016B0008091050190E068EE73E00E946D0B845606
:1016C0009109DFCF86B78F7986BF86B7806186BFE5
:1016D000889586B78F7E86BFE9CE0024552704C043
:1016E000080E591F880F991F009729F07695679566
:1016F000B8F37105B9F7802D952F0895991B79E0FE
:1017000004C0991F961708F0961B881F7A95C9F791
:1017100080950895AA1BBB1B51E107C0AA1FBB1FE0
:10172000A617B70710F0A61BB70B881F991F5A956D
:10173000A9F780959095BC01CD01089597FB072EE0
:1017400016F4009407D077FD09D00E948A0B07FC9D
:1017500005D03EF4909581959F4F089570956195C1
:101760007F4F0895E199FECF1FBA8EBBE09A99276B
:101770008DB30895262FE199FECF1FBA8EBBE09A54
:1017800081500DB2021639F01CBA2DBB0FB6F89479
:0C179000E29AE19A0FBE0895F894FFCF92
:10179C00010100049502371895013832020201004C
:1017AC00000000000000010000000000000000012B
:1017BC000000210123022503270429052C06FF061E
:0817CC009595010A05040300D4
:00000001FF
