:100000000C9420010C943D010C94F5090C943D01D5
:100010000C943D010C94EF090C943D010C943D01AE
:100020000C943D010C943D010C943D010C943D0158
:100030000C943D010C943D010C94B6090C943D01C7
:100040000C943D010C943D010C943D010C943D0138
:100050000C943D010C943D010C943D010C943D0128
:100060000C943D010C943D010C943D010C943D0118
:10007000010504141011151E2326282A6300000010
:100080000000000000000000000000000000000070
:100090000000000000000000000000000000000060
:1000A0000000000000000000000000000000000050
:1000B0000000000000000000000000000000000040
:1000C0000000000000000000000000000000000030
:1000D00000000000000000000000030506080A0CF4
:1000E0000E10121417191B1E202326292C2F32350F
:1000F000393C4043474B4F53575C60656A6F747996
:100100007F848A90969CA3A9B0B7BEC5CDD5DDE506
:10011000EDF6FF00000000000000000000000000FD
:1001200000000000000000000000000000000000CF
:1001300000000000000000000000000000000000BF
:1001400000000000000000000000000000000000AF
:10015000000C1015191E23292E343A40474D545CCB
:10016000636B737C858E97A1ACB6C1CDD9E5F2FFE8
:10017000FFFFFFFFFFFFFFFFFFFFFFFFFFFFFFFF8F
:10018000FFFFFFFFFFFFFFFFFFFFFFFFFFFFFFFF7F
:10019000FFFFFFFFFFFFFFFFFFFFFFFFFFFFFFFF6F
:1001A000FFFFFFFFFFFFFFFF000101020203030447
:1001B0000505060708090A0B0C0D11121314151674
:1001C000181A1C1E212326292C2F3236393D414571
:1001D0004A4F54595E646A71777E868E969EA7B0A8
:1001E000BAC4CFDAE6F2FFFFFFFFFFFFFFFFFFFF1A
:1001F000FFFFFFFFFFFFFFFFFFFFFFFFFFFFFFFF0F
:10020000FFFFFFFFFFFFFFFFFFFFFFFFFFFFFFFFFE
:10021000FFFFFFFFFFFFFFFFFFFFFFFFFFFFFFFFEE
:10022000FFFFFFFFFFFFFFFFFFFFFFFFFFFFFFFFDE
:10023000FFFFFFFFFFFFFFFFFFFFFFFFFFFF0000CC
:1002400011241FBECFEFD4E0DEBFCDBF11E0A0E090
:10025000B1E0E0E8F7E102C005900D92A833B107E4
:10026000D9F721E0A8E3B1E001C01D92AB3BB20792
:10027000E1F70E94FB090C94BE0B0C940000F8946B
:1002800098ED9FBD83BF78940895482F362F272F70
:10029000E8E8F1E090E080E0508151110BC063E0AC
:1002A00070E00E945F0BFC01E857FE4F40833183F2
:1002B000228305C0019633968031910569F7089530
:1002C000BC018091BA010C9445010F931F93CF9309
:1002D000C82F08EA17E0C15020F4CF911F910F9169
:1002E000089582E00E943F01C8010197F1F780E084
:1002F0000E943F01F0CF83B1886483B90895809153
:100300005E01883018F482E00C943F01823110F4D1
:1003100081E0FACF80E0F8CFCF93DF9300D00F9247
:10032000CDB7DEB7209134013091350140913601CF
:1003300029833A834B83FE01319650E040E0682FD9
:1003400070E0A1E0B0E09B01042E02C03595279536
:100350000A94E2F7922F937081919D0101C0220FC0
:100360008A95EAF7992329F09130C1F080B3822B66
:1003700019C080B32095822380BB82B3822382BBC5
:1003800081B3282321BB4E5F5F4F46305105D9F61C
:100390000F900F900F90DF91CF91089590B3822F1F
:1003A0008095892380BB82B3822B82BB81B3282BAB
:1003B000E9CFCF93C82F80935E0180935D01809138
:1003C0005F01811102C00E948C01C1110CC010920A
:1003D0006D0010926C0018BA10926B0010926A00B7
:1003E000CF910C947F01C1508C2F90E0FC01E75518
:1003F000FE4FE491F0E0F0936D00E0936C00FC019F
:10040000ED5EFE4FE491E8BB83589F4FFC01849161
:1004100090E090936B0080936A00E2CFCF92DF92DE
:10042000EF92FF920F931F93CF939C015091520133
:10043000852F90E0FC01EE5CFE4F40814093090166
:10044000805D9E4FFC018081809308014217130656
:1004500009F0D4F5821713061CF0511109C0822F40
:10046000CF911F910F91FF90EF90DF90CF90089563
:10047000841BE82EF12CC70166E070E00E94900B0F
:10048000609351016695E62FF0E010E000E0C7E0D0
:1004900086E0C82ED12CC801B6010E947C0B842FA7
:1004A000860FA82FB0E0B9016A1B7B0B77FF03C052
:1004B000BD01621B730BE617F70794F6C1500E0DD2
:1004C0001F1DC111E8CFCCCF842FCACFE82F862FB4
:1004D00090917B012FEF290F2C3118F480E00C94C0
:1004E0008C012E2F22952F70EF7030915F0131110A
:1004F00003C0233008F022E0E73010F4F0E02AC017
:10050000E73009F042C04091390150E04F5F5F4F42
:10051000E0910201F09103013196FB70F460F093D9
:100520000301E093020180915C018B5A80935C018E
:100530008491E0915C018E0F65E00E94700BBA011E
:10054000690F711DCB0166E070E00E94900B8093F3
:100550003901FC01E059FF4FE491233071F480919F
:10056000380190E0019663E170E00E947C0B80937B
:100570003801835F9E4FDC012C91222321F0213032
:10058000C1F12E2F220F822FAACFE830A9F490912B
:100590005F016FE0911101C063E0862351F4809107
:1005A000390190E0019666E070E00E94900B809324
:1005B0003901E0913901A2CF30915F01332381F0FD
:1005C00080E09D3118F4E0E0C8CF8E5FE82FF0E0C6
:1005D000E05EFE4F30819317C0F73197E0818ECFF8
:1005E000869563E00E94700BE92FF0E0EE0FFF1F8D
:1005F000B1CF2E2FC8CFCF93C0915E0189E18C0F70
:10060000873908F080E00E94D90182E00E946501EC
:100610008C2FCF910C94D901CF93C0915E0180E0D3
:100620000E94D90183E00E9465018C2FCF910C9428
:10063000D9010F931F93CF93DF9380915201809341
:1006400055018091040180935601809105018093AA
:10065000570180910B018093580180917A0180931A
:1006600059018091070180935A018091060180937E
:100670005B01F89405E511E0C1E8D0E0F801619173
:100680008F01CE010E94AC0B2196C838D105B1F77D
:1006900065EA80E890E00E94AC0B7894DF91CF91FE
:1006A0001F910F9108951092870130B181B120916F
:1006B0005C01329536953695337090E0880F991F1E
:1006C000880F991F830F911D820F80935C01809189
:1006D0007C01882309F44BC010927C018091850134
:1006E00090915F01992319F01F9810928501811153
:1006F00048C080910C0160917D0170917E0188233A
:1007000041F0609181017091820170937E0160934C
:100710007D01605F7F4FA6E076956795AA95E1F72A
:1007200080E098E50E947C0B6C5F7F4F7695679523
:1007300060937B0180914F018823D1F08150809399
:100740004F0180915F01811109C08EE884B981E079
:1007500080938501109286010E947B0180910C019B
:10076000882329F080910C01815080930C01089519
:100770006D3138F770E060E084E00E94450185E06B
:10078000DECF813059F780910C01811151C0609109
:100790007F0170918001605F7F4FCB0145E09695AE
:1007A00087954A95E1F750917A0140913E01E42FF7
:1007B000F0E0EE0FFF1FE15CFE4F20813181BC01B4
:1007C000621B730B9B01918380834F5F4770409343
:1007D0003E01660F771F660F771F680F791F8091A4
:1007E0000B0190E08D5E9E4F851B910957FD9395FF
:1007F0000597880F991F681B790B83E0161617065B
:100800000CF045C0615071098150C1F716161706EA
:100810000CF058C037FD75C080913D011816F4F5F5
:10082000861B80933D018DE084B91092850192CFA3
:1008300080918301909184019093800180937F0146
:10084000409635E0969587953A95E1F7909340016B
:1008500080933F0190934201809341019093440122
:100860008093430190934601809345019093480102
:100870008093470190934A018093490190934C01E2
:1008800080934B0190934E0180934D0180CF611571
:10089000710509F4B9CF6F5F7F4FB6CF660F771F31
:1008A0006530710564F0635071097595679588E14D
:1008B000861B80933D0185E00E944501B4CF61E035
:1008C00070E0F5CF6C3F8FEF7807DCF437FF19C08D
:1008D00080913D0187FF02C08450A2CF84EE861B29
:1008E00080933D0180917B018F3108F49CCF8CEF88
:1008F0009FEF9C01261B370BB9017595679586E024
:10090000DBCF80917B018E3108F48DCF70E060E009
:1009100087E0D2CFFF920F931F93CF93DF938C0189
:10092000D62FC72FF42E8091780190917901892BD1
:1009300031F0E0917801F091790189E00995109307
:10094000790100937801012B41F0E0917801F09159
:1009500079016D2F7C2F8F2D099581E080935401B3
:10096000DF91CF911F910F91FF9008952091670122
:10097000283088F4E22FF0E0EE0FFF1FE859FE4F19
:10098000808391832F5F2093670148E00E948A044F
:100990008091670108958FEF0895EF92FF921F9362
:1009A000CF93DF9310918801111106C0DF91CF9191
:1009B0001F91FF90EF900895E0908901F0908A01D7
:1009C000C0916701C1500C2E000CDD0BC7FD0EC09D
:1009D000FE01EE0FFF1FE859FE4F0190F081E02D60
:1009E000B701812F099521978111F0CFE8E8F1E057
:1009F000838180838481958192838183339681E092
:100A0000E53BF807A9F71092B5011092B7011092D3
:100A1000B601C8CF0F931F93CF93DF93D82FC92F61
:100A20008B0120916701222319F021502093670147
:100A3000E091670190E080E0EE2341F0E150FF0B90
:100A4000EE0FFF1FE859FE4F808191814AE070E070
:100A500060E00E948A04B8018D2F9C2FDF91CF9116
:100A60001F910F910C94B604813C41F470E060E05A
:100A700081E795E00E940A0580E00895823C29F410
:100A800070E060E08FE096E0F5CF81E0089584307B
:100A900031F5809178019091790126E0853B9207AC
:100AA00039F469E170E086E097E00E940A0510C021
:100AB0008650974079F490915E01923058F0892FDA
:100AC000869596959695890F809353010E94D9013A
:100AD00080E0089570E060E081E795E0E6CF81E096
:100AE0000895CF93DF93EB01883091F480E00E946A
:100AF000D90160E0809107010E946602CD2B21F0B0
:100B000080E0DF91CF91089581E080935F01F8CF7D
:100B1000813059F46931710598F380935F016C2F2E
:100B2000809107010E946602EBCF8330C1F3813BC5
:100B300099F481E090E00E940E020E94D901809118
:100B40005201811102C06897D8F261E070E086E03E
:100B500097E00E940A05D4CF813EB9F3813841F471
:100B600080910A0190E00E940E020E94D901C8CF34
:100B700060915E0170E0813C51F3823B11F486E9A3
:100B8000F4CF823E11F480E0F0CF823C19F466E9A4
:100B900070E0DDCF8339B9F3833C29F470E060E085
:100BA00084E395E0D6CF843C39F40E94FB0270E0E8
:100BB00060E08BE396E0CDCF873CA9F490910701EC
:100BC000892F82958F708F5F83708295807F9F7051
:100BD000892B8093070160E00E9466020E9419033E
:100BE0000E94FB028DCF873B99F4CE018F7399272A
:100BF000892B09F094CF20910701822F8F708F5F8E
:100C0000207F6BE00E94700B922B9093070187CF9F
:100C1000873E19F40E94190373CF81E072CF282F09
:100C2000CB01213C41F470E060E081E795E00E9457
:100C30000A0580E00895223C29F470E060E085EB2D
:100C400096E0F5CF213B49F46EE370E00E947C0B07
:100C5000892B79F70E94FB02ECCF213E51F46EE321
:100C600070E00E947C0B6F5F609305010E94190386
:100C7000E0CF81E008950F931F93CF93C82F8B018E
:100C8000873B79F480E00E94D901C8018F739927CE
:100C9000892B09F44FC0602F809106010E946602E3
:100CA0001BC080798039F9F48C2F8F708230C9F0A5
:100CB00081E00E94D90160910A0170E0C43C41F0DA
:100CC000C43B09F50E94FB021092BA0161E070E09A
:100CD00086E097E00E940A0580E0CF911F910F9176
:100CE000089584E1E6CF803811F480E0E2CFC83087
:100CF00099F560E0809106010E94660281E0EDCFE7
:100D0000C330C9F6C8CFC73C11F590910601892FB1
:100D100082958F708F5F83708295807F9F70892B03
:100D20008093060160E00E9466020E9419030E94FF
:100D3000FB02D2CF20910601822F8F708F5F207F20
:100D40006BE00E94700B922B90930601A4CFC73EDC
:100D5000A9F60E941903C0CFC13091F609311105DF
:100D600008F4BACFC0935F0196CF883029F481E0B0
:100D70008093000180E00895813C39F470E060E0E8
:100D800081E795E00E940A05F5CF823C29F470E0E6
:100D900060E084E395E0F6CF813B99F48091040113
:100DA00090910001890F823040F482E08093040129
:100DB000809104010E94D901DDCF8937B8F388E71B
:100DC000F5CF813E41F4809100018195809300012F
:100DD0000E941903CFCF823B49F481E08093000148
:100DE00080910401833020F38150E0CF823E81F373
:100DF00081E008958DE084B91092850110928601FA
:100E00000E947B01139A87EE83B908951F93CF93B5
:100E1000DF93482F9B01E0910901D0910801809157
:100E20005201C0915101811101C0C1E0483029F047
:100E30004A30B9F420910A0130E0E217130630F489
:100E4000D217130619F010F020930A01C9010E946D
:100E50000E02809353010E94D90181E08093010129
:100E600008C0413C59F470E060E081E795E00E94E1
:100E70000A0580E0DF91CF911F910895423C59F41B
:100E800080915E01863920F486E98093530140C049
:100E900080910A01FACF443C41F480E00E94D901DC
:100EA00070E060E08BE396E0E2CF9FE4940F923035
:100EB00008F04BC0882339F0C90168E170E00E9456
:100EC0007C0B892BB1F680915E012115310549F526
:100ED000423B09F58FEF8093010110915E018091F3
:100EE00001016C2F70E0082E000C990B0E945F0B23
:100EF000810F911D0E940E02C82F80930A011817BE
:100F000021F08D1302C00E940C03C09353018C2F5B
:100F10000E94D901AECF8D17E8F6E817F0F281E014
:100F2000DACF273341E0340710F08D1798F62D36CD
:100F3000324098F2E81788F20E94FB0270E060E00D
:100F40008BE396E00E940A05C8CF9FE1940F923090
:100F500020F480910101819581CF413009F0C7C013
:100F60002E33310511F44093010160915D01209110
:100F70005E01E62FE21BFF0BCF01E0913A01F091F9
:100F80003B013196F0933B01E0933A01009709F45D
:100F900070CF40E052E097FF06C040E450E02338B5
:100FA00010F440E051E05695479597FD01969595D0
:100FB00087950097C1F74E175F0708F05ACF621761
:100FC00008F062C06FEF620F8FEF860FA82FB0E0BE
:100FD000AD0147555E4FFA019491821708F059C050
:100FE00020916C0030916D00232B09F052C09F3F7F
:100FF00009F04FC08FEF90E090936D0080936C00EC
:101000009D012D5E3E4FF901849198B3981708F029
:1010100059C088B38F5F88BBCD0183589F4FFC01B7
:101020007491A0916A00B0916B00E72FF0E0AE17C9
:10103000BF0708F04EC0E0916A00F0916B00319656
:10104000F0936B00E0936A00A0916C00B0916D008A
:10105000FA0144914A171B0681F448B3F90124911F
:1010600042130BC020916A0030916B00FC01849107
:101070008217130611F460935E010E947F011092A3
:101080003B0110923A01F5CE261708F09DCF61E0A2
:101090009ACFE0916C00F0916D00292F30E08091A3
:1010A0006C0090916D00E217F30710F40196A4CF45
:1010B0002817390708F0A4CF80916C0090916D003B
:1010C00001979ACF98B3891708F0A6CF88B38150BB
:1010D000A2CFA0916A00B0916B00EA17FB0708F05D
:1010E000B3CFE0916A00F0916B003197A9CF453002
:1010F000A9F480915E018F3308F4BBCE90E0821B8F
:10110000930B282F8E3391053CF08739910508F019
:1011100026E920935D01ADCE2EE3FBCF4630B1F43E
:1011200090915E0180915301981708F0A2CE290F8B
:10113000311D90E08217930734F0C9012E33310539
:1011400014F48EE390E080935D0193CE473069F410
:1011500090915D0180915E01891710F48F5FF3CF4C
:10116000981708F086CE8150EECF433C89F491E089
:10117000811190E0909352010E9419030E940C0388
:1011800080915E0190E00E940E0280930A017DCE64
:1011900081E070CE0F931F93CF93109262018091E4
:1011A000B8019091B9019C012F5F3F4F882790783B
:1011B000822B932B9093B9018093B80130916001F9
:1011C0009FB181E0292F247092FD80E0809360011F
:1011D0003817B9F010925F01809360019091BA01C5
:1011E000892F211137C080699F709F3089F58093C6
:1011F000BA0190E080E00E9460011092B901109263
:10120000B8010091B8011091B90180915F01882364
:1012100071F1B80183E00E9445010E94CD040F7373
:101220001127012B89F410923C010E94FA06C0910B
:101230003C01C11105C00E947B0181E080937C01CB
:10124000CF5FCF71C0933C01CF911F910F91089553
:101250008F5FCDCF8F7E95FD08C080688093BA01E7
:101260008091B8019091B901C6CF806CF7CFC09141
:10127000BA018C2F807F803B49F470E060E081E010
:101280000E944501C8010E946001D1CFB80181E0F0
:101290000E944501C4FF0FC0C5FDF4CF0831110500
:1012A00030F21092B9011092B801C062C093BA0135
:1012B00090E080E0E8CFCC2309F4B9CFC5FF0AC0A5
:1012C0001092BA011092B9011092B80181E0809396
:1012D0005401ADCF0231110508F4A9CFC064C09309
:1012E000BA0190E080E00E946001EACF809187011E
:1012F00081110E9453038091620181110C94CA08EC
:101300000895EF92FF920F931F93CF93DF93EC0119
:1013100008E017E082ECE82EFF24F394209741F4D4
:1013200081E0DF91CF911F910F91FF90EF90089591
:1013300080915401811118C080915E01883078F449
:1013400082E00E943F01C7010197F1F780E00E940F
:101350003F010E9476090E94CD042197DFCF80E0F3
:101360000E943F01C801F0CF80E0DBCF2F932FB761
:101370002F933F938F939F93AF93BF93EF93FF93DD
:10138000809186018823E9F0E091850120B131B197
:10139000F0E0EE0FFF1FDF01AF57BE4F2D933C93E0
:1013A000E358FE4F808191818217930708F40196DC
:1013B0002817390708F401979183808381E080938F
:1013C000870181E080938601FF91EF91BF91AF91FA
:1013D0009F918F913F912F912FBF2F9118958F93B0
:1013E00081E0809362018F9118958F9381E08093C3
:1013F00061018F911895F89485B7877F85BF90E03C
:1014000088ED0FB6F894A8958FBD90B7977F90BFE1
:101410000FBE88E780BB88E08CB981E088B991EA8B
:10142000909372008093710091E89BBB8ABB84E02B
:1014300082BB87BD8CB788608CBFA89580E480BFD5
:101440000E94FA06789481E00E94650170E060E0F5
:1014500087E495E00E94B604109254010E94FB02BA
:10146000F89480E890E00E94A40B853A09F481C0CA
:10147000789461E070E081E795E00E94B60483E42F
:10148000F82EEE24E39492E0D92E20E4C22ED1E08F
:101490000E94CD048091650190916601009751F002
:1014A00060916301709164010E940A0510926601C7
:1014B0001092650180915F01882371F180E00E94A4
:1014C000D901A895F0BE1F989FB181E0292F247003
:1014D00092FD80E0809360012223B1F31092BA0163
:1014E0001092B9011092B801E09254018CB7886053
:1014F0008CBF10928701109262011092610180915D
:101500005F01811162C0D0920C018CB7877F8CBFC4
:101510000E94FA06A895C0BE0E9476091092540156
:101520008091780190917901F6E0853B9F0709F061
:101530006EC0C0910401CC0FC73908F0C6E914E0B1
:101540008C2F0E94D90185E090E00E948109809152
:1015500004010E94D90181E490E00E9481091150A8
:1015600079F780ED92E00E94810980E00E94D90124
:101570008FCF05E511E0C1E8D0E0CE010E94A40BB9
:10158000F80181938F012196C838D105B1F778947D
:1015900080915501809352018091560180930401FE
:1015A00080915701809305018091580180930B0130
:1015B0008091590180937A0180915A0180930701AB
:1015C00080915B018093060154CF86B78F79806448
:1015D00086BF86B7806186BF889586B78F7E86BFB7
:1015E00080916101811110925F01809187018823B0
:1015F00031F0D0930C01D0937C010E945303809171
:101600006201882309F47BCF0E94CA0878CF25E0C5
:101610008433920769F580917B01C0E0EC2FF0E004
:10162000E958FF4FE4918E1708F506EAC11102C090
:1016300008E0C1E010E089E10E94D901C8010E94E0
:10164000810980E00E94D9018AEF90E00E9481091F
:10165000C15089F78AE992E00E948109882309F440
:1016600017CF88EE93E00E94810912CFCF5FD6CFCB
:101670008F509640C9F480916001811109CF80910B
:101680000A010E94D90184E690E00E94810980E06D
:101690000E94D9018091050190E068EE73E00E94FC
:1016A0005F0B84569109DFCF86B78F7986BF86B7E7
:1016B000806186BF889586B78F7E86BFE9CE00247D
:1016C000552704C0080E591F880F991F009729F04D
:1016D00076956795B8F37105B9F7802D952F089524
:1016E000991B79E004C0991F961708F0961B881F74
:1016F0007A95C9F780950895AA1BBB1B51E107C0D5
:10170000AA1FBB1FA617B70710F0A61BB70B881F91
:10171000991F5A95A9F780959095BC01CD01089520
:1017200097FB072E16F4009407D077FD09D00E948E
:101730007C0B07FC05D03EF4909581959F4F089552
:10174000709561957F4F0895E199FECF1FBA8EBBCA
:10175000E09A99278DB30895262FE199FECF1FBAFD
:101760008EBBE09A81500DB2021639F01CBA2DBB27
:101770000FB6F894E29AE19A0FBE0895F894FFCF5D
:10178000010100043E02371982013E2D02020100D0
:101790000000000000000100000000000000000147
:1017A0000000210123022503270429052C06FF063A
:0817B00082820114050403000C
:00000001FF
