:10000000A7C0C1C082C7BFC0BEC0BDC0BCC0BBC04E
:100010003DC7B9C0B8C0B7C072C7B5C0B4C01E2311
:1000200026282A63000000000000000000000000F5
:1000300000000000000000000000000000000000C0
:1000400000000000000000000000000000000000B0
:1000500000000000000000000000000000000000A0
:10006000000000000000010304050708090B0C0E46
:100070000F1113141618191B1D1F21232527292BB7
:100080002D30323437393B3E404346484B4E515475
:10009000575A5D606366696D7073777A7E81858972
:1000A0008D9094989CA0A5A9ADB1B6BABFC3C8CD98
:1000B000D1D6DBE0E5EAEFF4FAFF01010202030327
:1000C000040405060708090A0C0D0E0F1113141677
:1000D000181A1D1F2224272A2D3033373B3E424653
:1000E0004B4F54595D63686E73797F868C939AA1E8
:1000F000A8B0B8C0C8D1D9E2ECF5FFFFFFFFFFFF01
:10010000FFFFFFFFFFFFFFFFFFFFFFFFFFFFFFFFFF
:10011000FFFFFFFFFFFFFFFFFFFFFFFFFFFFFFFFEF
:10012000FFFFFFFFFFFFFFFFFFFFFFFFFFFFFFFFDF
:10013000FFFFFFFFFFFFFFFFFFFFFFFFFFFFFFFFCF
:10014000FFFFFFFFFFFFFFFFFFFFFFFFFFFFFF00BE
:1001500011241FBECFE5D2E0DEBFCDBF10E0A0E688
:10016000B0E0EEEFF1E102C005900D92AC36B107C0
:10017000D9F720E0ACE6B0E001C01D92AB3EB2077B
:10018000E1F7C9D63AC83CCF482F362F272FE8EBE6
:10019000F0E090E080E0508151110AC063E070E02F
:1001A000EDD7FC01E854FF4F40833183228305C023
:1001B000019633968031910571F70895BC018091C5
:1001C000EA00E2CF90E822E048EA57E030E08150D0
:1001D00008F408950FB6F89496BD26BD0FBEFA0137
:1001E0003197F1F70FB6F89496BD36BD0FBEEFCF3D
:1001F00086B1886486B908950F931F93CF93DF93D8
:100200009C0140918400842F90E0FC01E659FF4F4F
:1002100060816093640088599F4FFC0180818093C6
:1002200063006217130609F09CF5821713061CF091
:10023000411106C0822FDF91CF911F910F91089538
:10024000861BC82FD0E0AE0155954795559547952B
:1002500040938300469550E0F0E0E0E075E0CF0188
:100260009695879596958795860F082F10E0D9016A
:10027000A01BB10BB7FF03C0D801A21BB30B4A17D9
:100280005B07CCF67150EC0FFD1F7111E8CFD3CF97
:10029000862FD1CF0F931F93CF93DF93809184004C
:1002A0008093870080916100809388008091620034
:1002B000809389008091660080938A008091AA00D3
:1002C00080938B00F89407E810E0C1E0D1E0F801DA
:1002D00061918F01CE017FD72196C630F1E0DF0713
:1002E000B1F765EA80E091E076D77894DF91CF911D
:1002F0001F910F91089580918E00863040F480E820
:1003000092E00FB6F89486BD96BD0FBE08958E306C
:1003100018F480E891E0F5CF80E890E0F2CF809388
:100320008E0080938D00811103C019BC18BCE3CFEF
:10033000815090E0FC01E654FF4FE491E9BD8C5DF3
:100340009F4FFC01849188BDF2CF80938500E7CF59
:10035000CF93C0918E0089E18C0F873908F080E03F
:10036000DEDF82E02FDF8C2FCF91D9CFCF93C091EA
:100370008E0080E0D4DF83E025DF8C2FCF91CFCFBC
:10038000FF920F931F93CF93DF938C01D62FC72F2C
:10039000F42E8091A8009091A900892B31F0E09172
:1003A000A800F091A90089E009951093A900009395
:1003B000A800012B41F0E091A800F091A9006D2F59
:1003C0007C2F8F2D099581E080938600DF91CF915E
:1003D0001F910F91FF90089520919700283080F48D
:1003E000E22FF0E0EE0FFF1FE856FF4F808391836E
:1003F0002F5F2093970048E0C3DF80919700089516
:100400008FEF0895EF92FF921F93CF93DF93109198
:10041000B800111106C0DF91CF911F91FF90EF90AE
:100420000895E090B900F090BA00C0919700C150D3
:100430000C2E000CDD0BC7FD0EC0FE01EE0FFF1FE2
:10044000E856FF4F0190F081E02DB701812F09950B
:1004500021978111F0CFE8EBF0E0838180838481E4
:10046000958192838183339680E0E53EF807A9F772
:100470001092E5001092E7001092E600C8CF0F93AB
:100480001F93CF93DF93D82FC92F8B012091970013
:10049000222319F0215020939700E091970090E0DB
:1004A00080E0EE2341F0E150FF0BEE0FFF1FE85616
:1004B000FF4F808191814AE070E060E061DFB80128
:1004C0008D2F9C2FDF91CF911F910F9185CFCF93CF
:1004D000DF93EB01883061F480E021DFCD2B21F048
:1004E00080E0DF91CF91089581E080938F00F8CF75
:1004F000813021F46931710598F3F7CF813BA9F47C
:1005000080918400882331F061E070E08CE894E011
:10051000B6DFE6CF81E090E06FDE01DF689700F3A1
:1005200061E070E085E393E0F3CF813EC9F3813869
:1005300031F48091650090E05FDEF1DED1CF609113
:100540008E0070E0813C71F3823B11F486E9F5CFB7
:10055000823E11F480E0F1CF823C19F466E970E04C
:10056000E1CF8339B9F3833C29F470E060E084EC97
:1005700092E0CECF843C31F4EBDE70E060E086EDBB
:1005800092E0C6CF81E0ADCF813C39F470E060E00D
:1005900087E692E074DF80E00895823C29F470E001
:1005A00060E081ED94E0F6CF81E00895CF93C82F0D
:1005B0002C2F2079203989F48C2F8F70823059F0BC
:1005C00081E0ADDEC43CC1F46091650070E085E37C
:1005D00093E055DF0DC084E1F4CF203811F480E0C2
:1005E000F0CFC13079F76931710510F0C0938F00F9
:1005F000C0E08C2FCF910895C43B79F4A9DE10920E
:10060000EA00C091840061E070E08CE894E0C111E0
:10061000E0CF85E393E033DFECCFC1E0EACF843075
:1006200011F58091A8009091A90024E0883F9207DD
:1006300031F469E170E085E393E021DF0DC085537B
:10064000934061F490918E00923040F0892F86950E
:1006500096959695890F79DE80E0089570E060E0C8
:1006600087E692E0EACF81E008951F93CF93DF936E
:10067000482F9B01D091630080918400882309F466
:1006800046C1E0918300483061F04A30D9F42091AE
:10069000650030E0811105C0809164008217130667
:1006A00030F4D217130619F010F020936500C90139
:1006B000A3DD4BDE81E08093600080E0DF91CF918D
:1006C0001F910895413C31F470E060E087E692E0CC
:1006D000D6DEF3CF423C51F480918E00863918F477
:1006E00086E933DEEACF80916500FBCF443C39F4E4
:1006F00080E015DE70E060E086ED92E0E9CF9FE4F7
:10070000940F9230D0F4882309F4E2C0C90168E163
:1007100070E045D5892B89F62115310509F4DAC039
:100720002F33310508F4DCC080918E008D1708F45A
:10073000D7C081E080938E00D3C09FE1940F9230A8
:1007400008F4BBCF413009F073C020918D00309187
:100750008E00422F431B550BCA0160916C007091B3
:100760006D006F5F7F4F70936D0060936C0000971A
:1007700009F4A3CF40E052E097FF06C040E450E008
:100780003A3610F440E051E05695479597FD0196B2
:10079000959587950097C1F74617570708F08DCFB5
:1007A000231778F52FEF230F7FEF720F872F90E03D
:1007B000AC0146545F4FFA016491731730F539B5B7
:1007C000311123C06F3F09F569BD8C5D9F4FFC015E
:1007D000349168B5631730F538B53F5F38BD39B52A
:1007E000FA014491341307C038B5FC0184913813E1
:1007F00002C020938E007FDD10926D0010926C007D
:100800005CCF321788F621E0CECF39B5361720F409
:1008100039B53F5F39BDD9CF39B56317B0F639B5B2
:100820003150F8CF68B53617D0F638B53150D6CF3D
:100830004530A9F480918E00823408F43ECF90E0D8
:10084000821B930B282F813491053CF08739910549
:1008500008F026E920938D0030CF21E4FBCF46300D
:10086000B1F490918E0080918500981708F025CF03
:10087000290F311D90E08217930734F0C90121340C
:10088000310514F481E490E080938D0016CF473059
:1008900069F490918D0080918E00891710F48F5F1C
:1008A000F3CF981708F009CF8150EECF433C71F495
:1008B00091E0811190E090938400ECDC57DD809111
:1008C0008E0090E099DC809365000BCF81E0F6CE3E
:1008D000232B31F48FEF423B09F081E080936000DD
:1008E00010918E00809160006E2F70E0082E000C39
:1008F000990B44D4810F911D7FDCC82F8093650034
:10090000181719F08D1301C031DD8C2FEACEE1E00C
:10091000483009F0BACEC0CE282FCB01322F3D7F10
:10092000383021F481E011DD80E00895213C31F47C
:1009300070E060E087E692E0A2DDF6CF223C49F469
:10094000809163008093650066E970E085E393E041
:10095000F3CF243C39F480E0E2DC70E060E086ED27
:1009600092E0EACF213B41F468E170E018D461E005
:1009700070E0892BC9F6EACF81E0233C89F490919D
:100980008400911180E08093840084DCEFDC80910E
:100990008E0090E031DC80936500682F70E0D6CF48
:1009A0000895282FCB01213C39F470E060E087E600
:1009B00092E065DD80E00895223C29F470E060E07B
:1009C00088EF94E0F6CF213B39F46EE370E0E7D393
:1009D000892B81F7BDDCEECF213E41F46EE370E060
:1009E000DED36F5F6093620055DCE4CF81E0089551
:1009F000883039F0813C39F470E060E087E692E0BD
:100A00003EDD80E00895823C29F470E060E084ECF3
:100A100092E0F6CF813B79F4809161008F5F8F3057
:100A200010F48FE002C08937C8F480936100809190
:100A3000610075DCE6CF813E11F42CDCE2CF823B15
:100A400079F480916100823018F0815080936100C8
:100A5000809161008F3028F3893748F388E7E5CF2C
:100A6000823E59F381E008950F931F93CF938091B5
:100A7000B700882309F45CC01092B70034B185B187
:100A800020918C00329536953695337090E0880F22
:100A9000991F880F991F830F911D820F80938C00DF
:100AA0008091AC00882309F443C01092AC0080917F
:100AB000B5008111A0C0809167006091AD00709178
:100AC000AE00882341F06091B1007091B200709344
:100AD000AE006093AD00605F7F4FA6E076956795AE
:100AE000AA95E1F780E098E55AD36B5F7F4F769542
:100AF00067956093AB0080918100882309F472C0F0
:100B000081508093810080918F00811108C08FEA0D
:100B100087B981E08093B5001092B60069DB8091BF
:100B20006700882329F080916700815080936700D7
:100B300080919200882309F451C010929200809114
:100B4000E8009091E9009C012F5F3F4F8827907843
:100B5000822B932B9093E9008093E80030919000D2
:100B600096B381E0292F287093FD80E08093900058
:100B70003817B9F09091EA0010928F00809390009E
:100B8000892F211102C180699F709F3009F0FBC03D
:100B90008093EA0090E080E011DB1092E90010926F
:100BA000E8000091E8001091E900C091EA008C2F64
:100BB000807F803B09F0F6C070E060E081E0E4DA1D
:100BC000C801FCDAC0916E00C11104C011DB81E0E4
:100BD0008093AC00CF5FCF71C0936E00CF911F9117
:100BE0000F9108956D3108F08ECF70E060E084E0E1
:100BF000CBDA85E086CF813009F091CF8091670014
:100C0000811150C06091AF007091B000605F7F4F64
:100C10009B0145E0369527954A95E1F7A091AA00FA
:100C200080917000E82FF0E0EE0FFF1FEF58FF4FAC
:100C300040815181B901641B750BAB013183208365
:100C40008F5F877080937000660F771F660F771F26
:100C50008091660090E08D5E9E4F8A1B9109A7FDF2
:100C60009395880F991F681B790B620F731F83E0A0
:100C7000161617060CF045C0615071098150C1F776
:100C8000161617060CF057C057FD74C080916F0000
:100C90001816F4F5861B80936F008CE287B91092CA
:100CA000B5003ACF8091B3009091B4009093B0001A
:100CB0008093AF00409635E0969587953A95E1F799
:100CC00090937200809371009093740080937300EE
:100CD00090937600809375009093780080937700CE
:100CE00090937A008093790090937C0080937B00AE
:100CF00090937E0080937D009093800080937F008E
:100D000081CF6115710509F4B9CF6F5F7F4FB6CF01
:100D1000660F771F653071055CF06350710975953A
:100D2000679588E1861B80936F0085E02DDAB5CF4B
:100D300061E070E0F6CF6C3F8FEF7807DCF457FF8F
:100D400019C080916F0087FF02C08450A3CF84EE4A
:100D5000861B80936F008091AB008F3108F49DCF8C
:100D60008CEF9FEF9C01261B370BB901759567959A
:100D700086E0DCCF8091AB008E3108F48ECF70E03E
:100D800060E087E0D3CF8F5F03CF8F7E95FD08C0F3
:100D900080688093EA008091E8009091E900FCCEA1
:100DA000806CF7CFB80181E0EFD9C4FF10C0C5FD5A
:100DB00007CF0831110508F405CF1092E900109211
:100DC000E800C062C093EA0090E080E0FACECC2355
:100DD00009F4F8CEC5FF0AC01092EA001092E900AB
:100DE0001092E80081E080938600ECCE023111057C
:100DF00008F4E8CEC064C093EA0090E080E0DED959
:100E0000EBCFBF92CF92DF92EF92FF920F931F939F
:100E1000CF93DF93EC0110E888E0E82E87E0F82E0E
:100E200002E092ECC92EDD24D394B12C209759F422
:100E300081E0DF91CF911F910F91FF90EF90DF90B4
:100E4000CF90BF9008958091860081111DC0909130
:100E50008E00963090F40FB6F89416BD06BD0FBE06
:100E6000C6010197F1F78B2D0FB6F89416BD86BD1C
:100E70000FBEFADDC7DA2197D9CF0FB6F89416BDA9
:100E800086BD0FBEC701EDCF80E0D3CF2F932FB724
:100E90002F933F938F939F93AF93BF93EF93FF93C2
:100EA0008091B6008823E9F0E091B50024B135B116
:100EB000F0E0EE0FFF1FDF01AF54BF4F2D933C93C7
:100EC000E355FF4F808191818217930708F40196C3
:100ED0002817390708F401979183808381E0809374
:100EE000B70081E08093B600FF91EF91BF91AF9181
:100EF0009F918F913F912F912FBF2F9118958F9395
:100F000081E0809392008F9118958F9381E0809378
:100F100091008F911895F89484B7877F84BF0FB69E
:100F2000F894A89581B5886181BD11BC0FBEB89AAF
:100F300081E083BF81EA8ABDB99A88E088BB85BB1E
:100F40008BB780628BBFA89581B5886181BD80E435
:100F500081BD8CE287B91092B5001092B60048D9D5
:100F600087EE86B9789481E02DD970E060E08FE05B
:100F700093E032DA10928600EBD9F89480E091E0A9
:100F800022D1853A09F488C0789461E070E087E660
:100F900092E022DAD1E082E0F82E9CE2E92E27EE00
:100FA000D22E30E4C32E2EDA8091950090919600D7
:100FB000009749F0609193007091940060DA10926C
:100FC00096001092950080918F00882309F43EC00E
:100FD00080E0A5D9A89584B7877F84BF81B5886153
:100FE00081BD11BC379896B381E0292F287093FDFD
:100FF00080E0809390002223B1F31092EA001092D7
:10100000E9001092E800D09386008BB780628BBF16
:1010100010928F0085B7877E806185BF85B780621B
:1010200085BF889585B78F7D85BFF09267008BB7A8
:101030008F7D8BBFE7B81092B5001092B600D8D85C
:10104000D6B8A89581B5886181BDC1BC0DDD10926F
:1010500086008091A8009091A90024E0883F920723
:1010600009F03EC0C0916100CC0FC73908F0C6E955
:1010700014E08C2F54D985E090E0C3DE80916100AC
:101080004ED981E490E0BDDE115099F780ED92E0F9
:10109000B8DE80E044D987CF07E810E0C1E0D1E0B6
:1010A000CE0191D0F80181938F012196C630F1E0F5
:1010B000DF07B1F778948091870080938400809156
:1010C0008800809361008091890080936200809104
:1010D0008A008093660080918B008093AA0055CF90
:1010E000E2E0843C9E0739F58091AB00C0E0EC2F34
:1010F000F0E0E25EFF4FE4918E17D8F406EAC111EA
:1011000002C008E0C1E010E089E109D9C80179DE38
:1011100080E005D98AEF90E074DEC150A9F78AE932
:1011200092E06FDE882309F43ECF88EE93E069DE1B
:101130003ACFCF5FDCCF815D9440A9F480919000DD
:10114000811131CF80916500EAD884E690E059DEC4
:1011500080E0E5D88091620090E068EE73E00ED008
:1011600084569109E4CF85B7877E85BF85B78062B5
:1011700085BF889585B78F7D85BF15CF00245527FE
:1011800004C0080E591F880F991F009729F0769503
:101190006795B8F37105B9F7802D952F0895AA1BAF
:1011A000BB1B51E107C0AA1FBB1FA617B70710F052
:1011B000A61BB70B881F991F5A95A9F78095909584
:1011C000BC01CD010895E199FECF9FBB8EBBE09A93
:1011D00099278DB30895262FE199FECF9FBB8EBB33
:1011E000E09A01970DB2021639F01CBA2DBB0FB66A
:0E11F000F894E29AE19A0FBE0895F894FFCFAA
:0C11FE000141027801412D02786E0114BD
:00000001FF
