:10000000A7C0C1C0E2C7BFC0BEC0BDC0BCC0BBC0EE
:100010009DC7B9C0B8C0B7C0D2C7B5C0B4C01E2351
:1000200026282A63000000000000000000000000F5
:1000300000000000000000000000000000000000C0
:1000400000000000000000000000000000000000B0
:1000500000000000000000000000000000000000A0
:10006000000000000000010304050708090B0C0E46
:100070000F1113141618191B1D1F21232527292BB7
:100080002D30323437393B3E404346484B4E515475
:10009000575A5D606366696D7073777A7E81858972
:1000A0008D9094989CA0A5A9ADB1B6BABFC3C8CD98
:1000B000D1D6DBE0E5EAEFF4FAFF01010202030327
:1000C000040405060708090A0C0D0E0F1113141677
:1000D000181A1D1F2224272A2D3033373B3E424653
:1000E0004B4F54595D63686E73797F868C939AA1E8
:1000F000A8B0B8C0C8D1D9E2ECF5FFFFFFFFFFFF01
:10010000FFFFFFFFFFFFFFFFFFFFFFFFFFFFFFFFFF
:10011000FFFFFFFFFFFFFFFFFFFFFFFFFFFFFFFFEF
:10012000FFFFFFFFFFFFFFFFFFFFFFFFFFFFFFFFDF
:10013000FFFFFFFFFFFFFFFFFFFFFFFFFFFFFFFFCF
:10014000FFFFFFFFFFFFFFFFFFFFFFFFFFFFFF00BE
:1001500011241FBECFE5D2E0DEBFCDBF10E0A0E688
:10016000B0E0E2E0F3E102C005900D92AE36B107D7
:10017000D9F720E0AEE6B0E001C01D92AE3EB20776
:10018000E1F729D7BCC83CCF482F362F272FEBEB00
:10019000F0E090E080E0508151110AC063E070E02F
:1001A0005CD8FC01E554FF4F40833183228305C0B6
:1001B000019633968031910571F70895BC018091C5
:1001C000ED00E2CF90E822E048EA57E030E08150CD
:1001D00008F408950FB6F89496BD26BD0FBEFA0137
:1001E0003197F1F70FB6F89496BD36BD0FBEEFCF3D
:1001F00086B1886486B90895CF92DF92EF92FF921C
:100200000F931F93CF939C0150918600852F90E010
:10021000FC01E459FF4F40814093660086599F4F8F
:10022000FC018081809365004217130609F0C4F534
:10023000821713061CF0511109C0822FCF911F9114
:100240000F91FF90EF90DF90CF900895841BE82EE0
:10025000F12CC70166E070E025D8609385006695B3
:10026000E62FF0E010E000E0C7E086E0C82ED12CD9
:10027000C801B60103D8842F860FA82FB0E0B901BA
:100280006A1B7B0B77FF03C0BD01621B730BE61774
:10029000F707A4F6C1500E0D1F1DC111E9CFCECF37
:1002A000842FCCCF0F931F93CF93DF938091860041
:1002B000809389008091620080938A00809163001E
:1002C00080938B008091680080938C008091AD00BA
:1002D00080938D008091640080938E00F89409E8EB
:1002E00010E0C1E0D1E0F80161918F01CE01F5D7B6
:1002F0002196C730F1E0DF07B1F765EA80E091E0D1
:10030000ECD77894DF91CF911F910F9108951092BF
:10031000BA0034B185B120918F003295369536956B
:10032000337090E0880F991F880F991F830F911DDC
:10033000820F80938F008091AF00882309F449C019
:100340001092AF008091B80090919200992319F01B
:1003500037981092B800811145C080916900609172
:10036000B0007091B100882341F06091B4007091A9
:10037000B5007093B1006093B000605F7F4FA6E05E
:1003800076956795AA95E1F780E098E577D76B5F5A
:100390007F4F769567956093AE00809183008823A8
:1003A000C9F081508093830080919200811108C030
:1003B0008FEA87B981E08093B8001092B90018DF06
:1003C00080916900882329F0809169008150809391
:1003D000690008956D3140F770E060E084E0D4DE9C
:1003E00085E0E0CF813061F780916900811150C0D4
:1003F0006091B2007091B300605F7F4F9B0145E058
:10040000369527954A95E1F7A091AD00809172004D
:10041000E82FF0E0EE0FFF1FED58FF4F40815181B4
:10042000B901641B750BAB01318320838F5F87702B
:1004300080937200660F771F660F771F80916800A8
:1004400090E08D5E9E4F8A1B9109A7FD9395880FC2
:10045000991F681B790B620F731F83E0161617062E
:100460000CF045C0615071098150C1F7161617068E
:100470000CF057C057FD74C0809171001816F4F548
:10048000861B809371008CE287B91092B80095CFDB
:100490008091B6009091B7009093B3008093B20022
:1004A000409635E0969587953A95E1F790937400DC
:1004B00080937300909376008093750090937800FA
:1004C0008093770090937A008093790090937C00DA
:1004D00080937B0090937E0080937D0090938000BA
:1004E00080937F00909382008093810081CF61157B
:1004F000710509F4B9CF6F5F7F4FB6CF660F771FD5
:10050000653071055CF0635071097595679588E1F8
:10051000861B8093710085E037DEB5CF61E070E027
:10052000F6CF6C3F8FEF7807DCF457FF19C080914E
:10053000710087FF02C08450A3CF84EE861B809396
:1005400071008091AE008F3108F49DCF8CEF9FEF4A
:100550009C01261B370BB9017595679586E0DCCFAA
:100560008091AE008E3108F48ECF70E060E087E0BD
:10057000D3CF80919100863040F480E892E00FB6AE
:10058000F89486BD96BD0FBE08958E3018F480E8AD
:1005900091E0F5CF80E890E0F2CFBC9AC49A08953C
:1005A000882319F0813021F0F8CFBC98C4980895C1
:1005B000BC98C49A0895CF93C82F809391008093DC
:1005C00090008091920081110AC091E0C11101C098
:1005D00090E081E0C23408F480E0890FE1DFC111CE
:1005E00004C019BC18BCCF91C4CFC1508C2F90E06F
:1005F000FC01E654FF4FE491E9BD8C5D9F4FFC0187
:10060000849188BDF0CFCF93C091910089E18C0F88
:10061000873908F080E0CFDF82E0D4DD8C2FCF91E6
:10062000CACFCF93C091910080E0C5DF83E0CADDDF
:100630008C2FCF91C0CF9091AE009D3110F480E00F
:10064000AFCF8770E1F7A9CFFF920F931F93CF939E
:10065000DF938C01D62FC72FF42E8091AB009091A1
:10066000AC00892B31F0E091AB00F091AC0089E057
:1006700009951093AC000093AB00012B41F0E09181
:10068000AB00F091AC006D2F7C2F8F2D099581E090
:1006900080938800DF91CF911F910F91FF90089573
:1006A00020919A00283080F4E22FF0E0EE0FFF1F37
:1006B000E556FF4F808391832F5F20939A0048E097
:1006C000C3DF80919A0008958FEF0895EF92FF9213
:1006D0001F93CF93DF931091BB00111106C0DF91E0
:1006E000CF911F91FF90EF900895E090BC00F090A3
:1006F000BD00C0919A00C1500C2E000CDD0BC7FD4F
:100700000EC0FE01EE0FFF1FE556FF4F0190F08176
:10071000E02DB701812F099521978111F0CFEBEBE7
:10072000F0E08381808384819581928381833396F5
:1007300080E0E83EF807A9F71092E8001092EA007E
:100740001092E900C8CF0F931F93CF93DF93D82F58
:10075000C92F8B0120919A00222319F02150209358
:100760009A00E0919A0090E080E0EE2341F0E150A1
:10077000FF0BEE0FFF1FE556FF4F808191814AE08E
:1007800070E060E061DFB8018D2F9C2FDF91CF9189
:100790001F910F9185CF813C39F470E060E085E0D6
:1007A00094E0D1DF80E00895823C29F470E060E0BD
:1007B0008FE794E0F6CF81E00895843021F58091B1
:1007C000AB009091AC0025E08230920731F469E1F2
:1007D00070E08EE495E0B7DF0FC08E54954071F461
:1007E00090919100923050F0892F8695969596952C
:1007F000890F80938700DFDE80E0089570E060E07D
:1008000085E094E0E8CF81E00895CF93DF93EB019A
:10081000883081F480E0CFDE809164008370C0DE98
:10082000CD2B21F080E0DF91CF91089581E080937E
:100830009200F8CF813051F46931710598F38093BB
:100840009200809164008370ABDEECCF833041F482
:10085000809164008370833029F7862FECDEE2CF2D
:10086000813B81F481E090E0C7DCA5DE80918600C9
:10087000811102C06897B0F261E070E08EE495E00B
:1008800062DFD0CF813EC1F3813831F480916700BF
:1008900090E0B2DC90DEC6CF6091910070E0813CC8
:1008A00069F3823B11F486E9F5CF823E11F480E0D2
:1008B000F1CF823C19F466E970E0E0CF8339B9F3F7
:1008C000833C29F470E060E08BEC93E0D9CF843C6A
:1008D00031F499DE70E060E086EA94E0D1CF873CA5
:1008E00061F49091640081E0890F83709C7F982B64
:1008F0009093640055DED6DC95CF81E094CF282F0D
:10090000CB01213C39F470E060E085E094E01BDF2E
:1009100080E00895223C29F470E060E082E095E0F8
:10092000F6CF213B39F46EE370E0A8D4892B81F730
:100930006ADEEECF213E41F46EE370E09FD46F5F3C
:1009400060936300AFDCE4CF81E00895CF93C82FBC
:10095000CB012C2F20792039C1F48C2F8F7082305D
:1009600091F081E028DE6091670070E0C43C39F0CE
:10097000C43B81F548DE1092ED0061E070E08EE44A
:1009800095E0E1DE1BC08AE0EDCF203811F480E075
:10099000E9CFC83039F4809164008695869500DEF1
:1009A00081E00DC0C13069F46931710538F0C09340
:1009B00092008091640086958695F2DD80E0CF916B
:1009C0000895C33081F6209164002C702C30B1F76B
:1009D00032DEF4CFC53C19F466E970E0D0CFC73CF5
:1009E000F9F690916400892F869586958F5F8370C4
:1009F000282F220F220F9370920F90936400D0DD66
:100A000051DCDCCF883029F481E08093600080E005
:100A10000895813C31F470E060E085E094E093DE7D
:100A2000F6CF823C29F470E060E08BEC93E0F7CFE6
:100A3000813B91F48091620090916000890F823037
:100A400038F482E08093620080916200B4DDDFCFF1
:100A50008937C0F388E7F6CF813E39F48091600092
:100A60008195809360001EDCD2CF823B49F481E007
:100A70008093600080916200833030F38150E2CF38
:100A8000823E89F381E008958CE287B91092B80024
:100A90001092B900ADDB87EE86B908951F93CF930E
:100AA000DF93482F9B01E0916600D0916500809113
:100AB0008600C0918500811101C0C1E0483029F055
:100AC0004A30A9F42091670030E0E217130630F4B1
:100AD000D217130619F010F020936700C9018CDBC0
:100AE0008093870068DD81E08093610007C0413C0E
:100AF00051F470E060E085E094E025DE80E0DF9175
:100B0000CF911F910895423C59F48091910086390C
:100B100020F486E9809387003BC080916700FACF7C
:100B2000443C39F480E047DD70E060E086EA94E020
:100B3000E4CF9FE4940F923008F044C0882331F052
:100B4000C90168E170E09AD3892BC1F680919100C8
:100B50002115310529F5423BE9F48FEF80936100BF
:100B600010919100809161006C2F70E0082E000CB4
:100B7000990B73D3810F911D3FDBC82F80936700C2
:100B8000181719F08D1301C04CDDC09387008C2F0E
:100B900012DDB4CF8D1708F7E81710F381E0DECF30
:100BA000273341E0340710F08D17B8F62D36324068
:100BB000B8F2E817A8F227DD70E060E086EA94E07A
:100BC000C2DDCECF9FE1940F923020F4809161007E
:100BD00081958ACF413009F078C02E33310511F468
:100BE000409361002091900030919100E22FE31B2F
:100BF000FF0BCF0160916E0070916F006F5F7F4FB0
:100C000070936F0060936E00309709F477CF40E0E7
:100C100052E0F7FF06C040E450E0313910F440E004
:100C200051E05695479597FD0196959587950097C4
:100C3000C1F74617570708F061CF231778F52FEF54
:100C4000230F7FEF720F872F90E0AC0146545F4F68
:100C5000FA016491731730F539B5311123C06F3F34
:100C600009F569BD8C5D9F4FFC01349168B5631730
:100C700030F538B53F5F38BD39B5FA0144913413CA
:100C800007C038B5FC018491381302C0209391004D
:100C900070DC10926F0010926E0030CF321788F621
:100CA00021E0CECF39B5361720F439B53F5F39BDD5
:100CB000D9CF39B56317B0F639B53150F8CF68B52B
:100CC0003617D0F638B53150D6CF4530A9F48091DB
:100CD0009100823408F412CF90E0821B930B282FEE
:100CE000813491053CF08739910508F026E920937D
:100CF000900004CF21E4FBCF4630B1F490919100F5
:100D000080918700981708F0F9CE290F311D90E0E7
:100D10008217930734F0C9012134310514F481E4BA
:100D200090E080939000EACE473069F49091900073
:100D300080919100891710F48F5FF3CF981708F016
:100D4000DDCE8150EECF433C71F491E0811190E013
:100D500090938600A7DA65DC8091910090E04CDAF0
:100D600080936700D7CE81E0CACE0F931F93CF93B5
:100D7000109295008091EB009091EC009C012F5F08
:100D80003F4F88279078822B932B9093EC00809391
:100D9000EB003091930096B381E0292F287093FDEA
:100DA00080E0809393003817B1F010929200809306
:100DB00093009091ED00892F211132C080699F70BE
:100DC0009F3061F58093ED0090E080E0F7D91092BC
:100DD000EC001092EB000091EB001091EC00809180
:100DE0009200882351F1B80183E0CED96FDC0F73F4
:100DF0001127012B79F41092700046DEC09170002B
:100E0000C11104C0F5D981E08093AF00CF5FCF71ED
:100E1000C0937000CF911F910F9108958F5FD2CF33
:100E20008F7E95FD08C080688093ED008091EB0077
:100E30009091EC00CBCF806CF7CFC091ED008C2F60
:100E4000807F803B39F470E060E081E09DD9C8018B
:100E5000B5D9D4CFB80181E097D9C4FF0FC0C5FD83
:100E6000F6CF0831110550F21092EC001092EB0011
:100E7000C062C093ED0090E080E0EACFCC2309F49B
:100E8000BDCFC5FF0AC01092ED001092EC00109289
:100E9000EB0081E080938800B1CF0231110508F4A6
:100EA000ADCFC064C093ED0090E080E087D9EBCF78
:100EB0008091BA0081112BDA80919500811155CF74
:100EC0000895BF92CF92DF92EF92FF920F931F93FC
:100ED000CF93DF93EC0110E888E0E82E87E0F82E4E
:100EE00002E092ECC92EDD24D394B12C209759F462
:100EF00081E0DF91CF911F910F91FF90EF90DF90F4
:100F0000CF90BF9008958091880081111DC090916D
:100F10009100963090F40FB6F89416BD06BD0FBE42
:100F2000C6010197F1F78B2D0FB6F89416BD86BD5B
:100F30000FBEBEDFCBDB2197D9CF0FB6F89416BD1D
:100F400086BD0FBEC701EDCF80E0D3CF2F932FB763
:100F50002F933F938F939F93AF93BF93EF93FF9301
:100F60008091B9008823E9F0E091B80024B135B14F
:100F7000F0E0EE0FFF1FDF01AC54BF4F2D933C9309
:100F8000E055FF4F808191818217930708F4019605
:100F90002817390708F401979183808381E08093B3
:100FA000BA0081E08093B900FF91EF91BF91AF91BA
:100FB0009F918F913F912F912FBF2F9118958F93D4
:100FC00081E0809395008F9118958F9381E08093B5
:100FD00094008F911895F89484B7877F84BF0FB6DB
:100FE000F894A89581B5886181BD11BC0FBEB89AEF
:100FF00081E083BF81EA8ABDB99A88E088BB85BB5E
:101000008BB780628BBFA89581B5886181BD80E474
:1010100081BD3ADD789481E0D5D870E060E08DED57
:1010200093E03EDB10928800EEDAF89480E091E0E5
:101030004CD1853A09F47BC0789461E070E085E09A
:1010400094E02EDB83E4F82EEE24E39492E0D92E94
:1010500020E4C22ED1E03ADB809198009091990073
:10106000009749F060919600709197006CDB1092A8
:1010700099001092980080919200882391F180E06D
:101080009ADAA89581B5886181BDF1BC379896B38D
:1010900081E0292F287093FD80E080939300222324
:1010A000B1F31092ED001092EC001092EB00E09280
:1010B00088008BB780628BBF1092BA0010929500A7
:1010C0001092940080919200811159C0D0926900D1
:1010D0008BB78F7D8BBFD8DCA89581B5886181BD2A
:1010E000C1BCE6DE109288008091AB009091AC000C
:1010F00025E08230920709F062C0C0916200CC0FF7
:10110000C73908F0C6E914E08C2F55DA85E090E085
:10111000D8DE809162004FDA81E490E0D2DE115097
:1011200099F780ED92E0CDDE80E045DA94CF09E8D2
:1011300010E0C1E0D1E0CE01C8D0F80181938F0169
:101140002196C730F1E0DF07B1F7789480918900EC
:101150008093860080918A008093620080918B004A
:101160008093630080918C008093680080918D0053
:101170008093AD0080918E00809364005ECF85B730
:10118000877E806185BF85B7806285BF889585B77A
:101190008F7D85BF80919400811110929200809183
:1011A000BA00882329F0D0936900D093AF00AFD85C
:1011B00080919500882309F485CFD7DD83CFE3E0C4
:1011C0008B3C9E0739F58091AE00C0E0EC2FF0E03B
:1011D000E25EFF4FE4918E17D8F406EAC11102C017
:1011E00008E0C1E010E089E1E6D9C8016ADE80E0EC
:1011F000E2D98AEF90E065DEC150A9F78AE992E072
:1012000060DE882309F427CF88EE93E05ADE23CFEF
:10121000CF5FDCCF8F579440A9F480919300811168
:101220001ACF80916700C7D984E690E04ADE80E05B
:10123000C2D98091630090E068EE73E00ED08456CE
:101240009109E4CF85B7877E85BF85B7806285BF6A
:10125000889585B78F7D85BFFECE0024552704C0B5
:10126000080E591F880F991F009729F076956795EA
:10127000B8F37105B9F7802D952F0895AA1BBB1BF4
:1012800051E107C0AA1FBB1FA617B70710F0A61B86
:10129000B70B881F991F5A95A9F780959095BC01A7
:1012A000CD01089597FB072E16F4009406D077FD24
:1012B00008D0E4DF07FC05D03EF4909581959F4F60
:1012C0000895709561957F4F0895E199FECF9FBB7A
:1012D0008EBBE09A99278DB30895262FE199FECF12
:1012E0009FBB8EBBE09A01970DB2021639F01CBA73
:1012F0002DBB0FB6F894E29AE19A0FBE0895F894C8
:02130000FFCF1D
:0E13020001014102097801412D027878010AAB
:00000001FF
