:100000000C94D5000C94F2000C94F2000C94770937
:100010000C94F2000C9471090C94F2000C94F20010
:100020000C94F2000C94F2000C94F2000C94F20088
:100030000C94F2000C94F2000C9438090C94F20029
:100040000C94F2000C94F2000C94F2000C94F20068
:100050000C94F2000C94F2000C94F2000C94F20058
:100060000C94F2000C94F2000C94F2000C94F20048
:10007000010504141011151E2326282A6300000010
:10008000000100010002000200030003000400045C
:10009000000500050006000700080009000A000B23
:1000A000000C000D000F00100011001200140015CC
:1000B00000170018001A001B001D001F002100235C
:1000C000002500270029002B002D003000320035CC
:1000D0000037003A003D003F004200450048004B19
:1000E000004F005200550059005C00600064006839
:1000F000006C007000740078007D00810086008A2A
:10010000008F00940099009E00A300A900AE00B4E7
:1001100000B900BF00C500CB00D100D700DE00E46D
:1001200000EB00F200F800FF0007010E0115011DB1
:100130000124012C0134013C0144014D0155015EB3
:100140000167017001790182018B0195019E01A86F
:1001500001B201BC01C601D101DB01E601F101FCE4
:1001600001070213021E022A02360242024E025BFD
:10017000026702740281028E029B02A802B602C4C8
:1001800002D202E002EE02FD020B031A0329033938
:1001900003480358036803780388039803A903BA44
:1001A00003CB03DC03ED03FF030011241FBECFEFDD
:1001B000D4E0DEBFCDBF11E0A0E0B1E0E2E8F6E1BF
:1001C00002C005900D92A833B107D9F721E0A8E34A
:1001D000B1E001C01D92AB3BB207E1F70E947D097F
:1001E0000C943F0B0C940000F89498ED9FBD83BFD6
:1001F00078940895482F362F272FE8E8F1E090E013
:1002000080E0508151110BC063E070E00E94E00A71
:10021000FC01E857FE4F40833183228305C00196DD
:1002200033968031910569F70895BC018091BA0138
:100230000C94FA000F931F93CF93C82F08EA17E08E
:10024000C15020F4CF911F910F91089582E00E9438
:10025000F400C8010197F1F780E00E94F400F0CFAC
:1002600083B1886483B9089580915E01823018F467
:1002700082E00C94F4008A3010F481E0FACF80E040
:10028000F8CF882321F0813031F0829A05C082981E
:1002900092988A9808958298929A8A9A0895CF930C
:1002A000DF9300D00F92CDB7DEB7209134013091AB
:1002B00035014091360129833A834B83FE01319603
:1002C00050E040E0682F70E0A1E0B0E09B01042E18
:1002D00002C0359527950A94E2F7922F9370819189
:1002E0009D0101C0220F8A95EAF7992329F09130E8
:1002F000C1F080B3822B19C080B32095822380BBCC
:1003000082B3822382BB81B3282321BB4E5F5F4F20
:1003100046305105D9F60F900F900F90DF91CF9195
:10032000089590B3822F8095892380BB82B3822B5E
:1003300082BB81B3282BE9CFCF93C82F80935E0176
:1003400080935D0180915F0181110DC00E944F017A
:1003500091E0C11101C090E081E0C33308F480E076
:10036000890F0E944101C11108C010926D001092C6
:100370006C006898CF910C943401689AC150EC2FAE
:10038000F0E0EE0FFF1FE358FF4F8591949190939B
:100390006D0080936C00EECFCF92DF92EF92FF92D0
:1003A0000F931F93CF939C0150915201852F90E0A2
:1003B000FC01EE5CFE4F408140930901805D9E4F41
:1003C000FC018081809308014217130609F0D4F5DF
:1003D000821713061CF0511109C0822FCF911F9173
:1003E0000F91FF90EF90DF90CF900895841BE82E3F
:1003F000F12CC70166E070E00E94110B609351017F
:100400006695E62FF0E010E000E0C7E086E0C82E39
:10041000D12CC801B6010E94FD0A842F860FA82F97
:10042000B0E0B9016A1B7B0B77FF03C0BD01621B03
:10043000730BE617F70794F6C1500E0D1F1DC1117F
:10044000E8CFCCCF842FCACFCF93E82F862F9091BF
:100450007B012FEF290F2C3138F480E00E944F01EF
:1004600080E0CF910C944101CE2FC295CF70EF70F8
:1004700020915F01211103C0C33008F0C2E0E730D2
:1004800010F4F0E02AC0E73009F045C020913901AE
:1004900030E02F5F3F4FE0910201F0910301319670
:1004A000FB70F460F0930301E093020180915C0122
:1004B0008B5A80935C018491E0915C018E0F65E022
:1004C0000E94F10AA901490F511DCA0166E070E0BE
:1004D0000E94110B80933901FC01E059FF4FE49118
:1004E000C33071F48091380190E0019663E170E0CF
:1004F0000E94FD0A80933801835F9E4FDC01CC91FE
:10050000CC23E9F1C13011F0EE0FC2E08E2F0E9432
:100510004F018C2FA6CFE830A9F490915F016FE0D6
:10052000911101C063E0862351F48091390190E07C
:10053000019666E070E00E94110B80933901E09112
:1005400039019FCF20915F01222381F080E09D310E
:1005500018F4E0E0C5CF8E5FE82FF0E0E05EFE4FDC
:1005600020819217C0F73197E0818BCF869563E0A9
:100570000E94F10AE92FF0E0EE0FFF1FAECFE0E09E
:10058000C5CFCF93C0915E0189E18C0F873908F008
:1005900080E00E949C0182E00E941A018C2FCF9182
:1005A0000C949C01CF93C0915E0180E00E949C015D
:1005B00083E00E941A018C2FCF910C949C010F9321
:1005C0001F93CF93DF9380915201809355018091C7
:1005D0000401809356018091050180935701809119
:1005E0000B018093580180917A0180935901809189
:1005F000070180935A018091060180935B0182E09C
:100600000E941A01F89405E511E0C1E8D0E0F80174
:1006100061918F01CE010E942D0B2196C838D10522
:10062000B1F765EA80E890E00E942D0B7894DF91A5
:10063000CF911F910F9108951092870130B181B130
:1006400020915C01329536953695337090E0880F95
:10065000991F880F991F830F911D820F80935C0152
:1006600080917C01882309F441C010927C01809123
:10067000850190915F01992319F01F9810928501CF
:10068000811143C080910C01882389F180918101FF
:100690009091820190937E0180937D014096969582
:1006A0008795807F9F7761EC72E00E94FD0A6093DE
:1006B0007B0180914F018823F9F0815080934F0195
:1006C00080915F01811109C08EE884B981E0809337
:1006D0008501109286010E94300180910C018823CF
:1006E00029F080910C01815080930C010895809134
:1006F0007D0190917E01D2CF6D3110F770E060E006
:1007000084E00E94FA0085E0D9CF813031F78091F2
:100710000C01811151C060917F0170918001605F77
:100720007F4FCB0135E0969587953A95E1F750914B
:100730007A0140913E01E42FF0E0EE0FFF1FE15CF3
:10074000FE4F20813181BC01621B730B9B019183A1
:1007500080834F5F477040933E01660F771F660F9F
:10076000771F680F791F80910B0190E08D5E9E4F7F
:10077000851B910957FD93950597880F991F681B55
:10078000790B83E0161617060CF045C0615071090D
:100790008150C1F7161617060CF055C037FD72C010
:1007A00080913D011816F4F5861B80933D0186E883
:1007B00084B9109285018DCF80918301909184013D
:1007C0009093800180937F01409625E096958795D0
:1007D0002A95E1F79093400180933F019093420165
:1007E000809341019093440180934301909346018B
:1007F00080934501909348018093470190934A016B
:100800008093490190934C0180934B0190934E014A
:1008100080934D0180CF6115710509F4B9CF6F5FE9
:100820007F4FB6CF660F771F6350710916161706F4
:1008300014F061E070E080E1861B80933D0185E06B
:100840000E94FA00B4CF6C3F8FEF7807DCF437FFDB
:1008500019C080913D0187FF02C08450A5CF8CEE66
:10086000861B80933D0180917B018F3108F49FCFDF
:100870008CEF9FEF9C01261B370BB901759567958F
:1008800086E0DECF80917B018E3108F490CF70E05E
:1008900060E087E0D5CFFF920F931F93CF93DF9354
:1008A0008C01D62FC72FF42E809178019091790179
:1008B000892B31F0E0917801F091790189E0099577
:1008C0001093790100937801012B41F0E0917801B8
:1008D000F09179016D2F7C2F8F2D099581E0809308
:1008E0005401DF91CF911F910F91FF9008952091B6
:1008F0006701283088F4E22FF0E0EE0FFF1FE8597F
:10090000FE4F808391832F5F2093670148E00E9410
:100910004B048091670108958FEF0895EF92FF9245
:100920001F93CF93DF9310918801111106C0DF91BF
:10093000CF911F91FF90EF900895E0908901F09082
:100940008A01C0916701C1500C2E000CDD0BC7FD60
:100950000EC0FE01EE0FFF1FE859FE4F0190F0811F
:10096000E02DB701812F099521978111F0CFE8E89B
:10097000F1E08381808384819581928381833396A2
:1009800081E0E53BF807A9F71092B5011092B70195
:100990001092B601C8CF0F931F93CF93DF93D82F38
:1009A000C92F8B0120916701222319F02150209338
:1009B0006701E091670190E080E0EE2341F0E150B3
:1009C000FF0BEE0FFF1FE859FE4F808191814AE037
:1009D00070E060E00E944B04B8018D2F9C2FDF91E6
:1009E000CF911F910F910C947704813C41F470E0FA
:1009F00060E082E395E00E94CB0480E00895823CB1
:100A000029F470E060E080ED95E0F5CF81E0089595
:100A1000843031F5809178019091790126E0863714
:100A2000920739F469E170E08CEC96E00E94CB0407
:100A300010C08C5C964079F490915E01923058F031
:100A4000892F869596959695890F809353010E94DC
:100A50009C0180E0089570E060E082E395E0E6CFDD
:100A600081E00895CF93DF93EB01883091F480E02B
:100A70000E949C0160E0809107010E942402CD2B1E
:100A800021F080E0DF91CF91089581E080935F01B4
:100A9000F8CF813059F46931710598F380935F0183
:100AA0006C2F809107010E942402EBCF8330C1F3A9
:100AB000813B99F481E090E00E94CC010E949C016E
:100AC00080915201811102C06897D8F261E070E014
:100AD0008CEC96E00E94CB04D4CF813EB9F38138F0
:100AE00041F480910A0190E00E94CC010E949C0197
:100AF000C8CF60915E0170E0813C51F3823B11F4FC
:100B000086E9F4CF823E11F480E0F0CF823C19F404
:100B100066E970E0DDCF8339B9F3833C29F470E0F6
:100B200060E085EF94E0D6CF843C39F40E94C102A6
:100B300070E060E08CEF95E0CDCF873CA9F4909118
:100B40000701892F82958F708F5F83708295807FD8
:100B50009F70892B8093070160E00E9424020E940D
:100B6000DF020E94C1028DCF873B99F4CE018F73C3
:100B70009927892B09F094CF20910701822F8F703C
:100B80008F5F207F6BE00E94F10A922B9093070108
:100B900087CF873E19F40E94DF0273CF81E072CFC6
:100BA000282FCB01213C41F470E060E082E395E026
:100BB0000E94CB0480E00895223C29F470E060E0BC
:100BC00086E796E0F5CF213B49F46EE370E00E94A2
:100BD000FD0A892B79F70E94C102ECCF213E51F426
:100BE0006EE370E00E94FD0A6F5F609305010E9452
:100BF000DF02E0CF81E008950F931F93CF93C82FBA
:100C00008B01873B79F480E00E949C01C8018F73BF
:100C10009927892B09F44FC0602F809106010E940B
:100C200024021BC080798039F9F48C2F8F708230B8
:100C3000C9F083E00E949C0160910A0170E0C43C0D
:100C400041F0C43B09F50E94C1021092BA0161E073
:100C500070E08CEC96E00E94CB0480E0CF911F9175
:100C60000F9108958AE0E6CF803811F480E0E2CF5A
:100C7000C83099F560E0809106010E94240281E06D
:100C8000EDCFC330C9F6C8CFC73C11F5909106012E
:100C9000892F82958F708F5F83708295807F9F7080
:100CA000892B8093060160E00E9424020E94DF02EB
:100CB0000E94C102D2CF20910601822F8F708F5FD8
:100CC000207F6BE00E94F10A922B90930601A4CF43
:100CD000C73EA9F60E94DF02C0CFC13091F60931AC
:100CE000110508F4BACFC0935F0196CF883029F47C
:100CF00081E08093000180E00895813C39F470E048
:100D000060E082E395E00E94CB04F5CF823C29F4B9
:100D100070E060E085EF94E0F6CF813B99F480913C
:100D2000040190910001890F823040F482E08093A9
:100D30000401809104010E949C01DDCF8937B8F342
:100D400088E7F5CF813E41F4809100018195809341
:100D500000010E94DF02CFCF823B49F481E0809303
:100D6000000180910401833020F38150E0CF823E66
:100D700081F381E0089586E884B91092850110928C
:100D800086010E943001E1E6F0E08081826080838C
:100D9000139A87EE83B908951F93CF93DF93482F5B
:100DA0009B01E0910901D091080180915201C0910D
:100DB0005101811101C0C1E0483029F04A30B9F435
:100DC00020910A0130E0E217130630F4D21713061F
:100DD00019F010F020930A01C9010E94CC01809300
:100DE00053010E949C0181E08093010108C0413CB5
:100DF00059F470E060E082E395E00E94CB0480E06B
:100E0000DF91CF911F910895423C59F480915E018A
:100E1000863920F486E98093530140C080910A010D
:100E2000FACF443C41F480E00E949C0170E060E015
:100E30008CEF95E0E2CF9FE4940F923008F04BC026
:100E4000882339F0C90168E170E00E94FD0A892B0E
:100E5000B1F680915E012115310549F5423B09F556
:100E60008FEF8093010110915E01809101016C2F41
:100E700070E0082E000C990B0E94E00A810F911D72
:100E80000E94CC01C82F80930A01181721F08D13FE
:100E900002C00E94D202C09353018C2F0E949C0179
:100EA000AECF8D17E8F6E817F0F281E0DACF2733FE
:100EB00041E0340710F08D1798F62D36324098F245
:100EC000E81788F20E94C10270E060E08CEF95E0C4
:100ED0000E94CB04C8CF9FE1940F923020F4809100
:100EE0000101819581CF413009F083C02E33310556
:100EF00011F44093010130915D0120915E01432F77
:100F0000421B550BCA0160913A0170913B016F5F22
:100F10007F4F70933B0160933A01009709F46FCFC4
:100F200040E052E097FF06C040E450E0203910F462
:100F300040E051E05695479597FD01969595879528
:100F40000097C1F74617570708F059CF321788F5B1
:100F50003FEF320F6FEF630FE62FF0E0EE0FFF1F52
:100F6000CF0183589F4FFC0145915491621728F59A
:100F700060916C0070916D00672BF9F44F3F23E096
:100F80005207D9F450936D0040936C0040916C006F
:100F900050916D00FC01859194914817590711F407
:100FA00030935E010E94340110923B0110923A018D
:100FB00026CF231778F631E0CCCF60916C0070918A
:100FC0006D006417750738F440916C0050916D0006
:100FD0004F5F5F4FD7CF60916C0070916D004617E7
:100FE0005707A0F640916C0050916D004150510997
:100FF000C9CF4530A9F480915E01833308F4FFCE58
:1010000090E0821B930B282F823391053CF08739A7
:10101000910508F026E920935D01F1CE22E3FBCF94
:101020004630B1F490915E0180915301981708F019
:10103000E6CE290F311D90E08217930734F0C901E5
:101040002233310514F482E390E080935D01D7CE22
:10105000473069F490915D0180915E01891710F429
:101060008F5FF3CF981708F0CACE8150EECF433C84
:1010700089F491E0811190E0909352010E94DF0287
:101080000E94D20280915E0190E00E94CC01809388
:101090000A01C1CE81E0B4CE0F931F93CF9310927B
:1010A00062018091B8019091B9019C012F5F3F4F7F
:1010B00088279078822B932B9093B9018093B80165
:1010C000309160019BB181E0292F247092FD80E076
:1010D000809360013817B9F010925F01809360012E
:1010E0009091BA01892F211137C080699F709F307C
:1010F00089F58093BA0190E080E00E94150110927A
:10110000B9011092B8010091B8011091B901809114
:101110005F01882371F1B80183E00E94FA000E9408
:101120008E040F731127012B89F410923C010E9449
:10113000BB06C0913C01C11105C00E94300181E095
:1011400080937C01CF5FCF71C0933C01CF911F9101
:101150000F9108958F5FCDCF8F7E95FD08C0806879
:101160008093BA018091B8019091B901C6CF806C8B
:10117000F7CFC091BA018C2F807F803B49F470E09B
:1011800060E081E00E94FA00C8010E941501D1CF01
:10119000B80181E00E94FA00C4FF0FC0C5FDF4CF82
:1011A0000831110530F21092B9011092B801C062F5
:1011B000C093BA0190E080E0E8CFCC2309F4B9CF26
:1011C000C5FF0AC01092BA011092B9011092B8017D
:1011D00081E080935401ADCF0231110508F4A9CF0D
:1011E000C064C093BA0190E080E00E941501EACF8C
:1011F0008091870181110E941C03809162018111FD
:101200000C944C080895EF92FF920F931F93CF9385
:10121000DF93EC0108E017E082ECE82EFF24F39462
:10122000209741F481E0DF91CF911F910F91FF90C2
:10123000EF90089580915401811118C080915E0152
:10124000823078F482E00E94F400C7010197F1F740
:1012500080E00E94F4000E94F8080E948E0421970A
:10126000DFCF80E00E94F400C801F0CF80E0DBCF48
:101270002F932FB72F933F938F939F93AF93BF934A
:10128000EF93FF93809186018823E9F0E091850137
:1012900020B131B1F0E0EE0FFF1FDF01AF57BE4FBD
:1012A0002D933C93E358FE4F8081918182179307E1
:1012B00008F401962817390708F401979183808371
:1012C00081E08093870181E080938601FF91EF9117
:1012D000BF91AF919F918F913F912F912FBF2F91F0
:1012E00018958F9381E0809362018F9118958F9369
:1012F00081E0809361018F911895F89485B7877F7D
:1013000085BF90E088ED0FB6F894A8958FBD90B793
:10131000977F90BF0FBE89E08CB98CE780BB83EAD2
:101320008093720081E08093710084E08EB988BD63
:101330008CB780618CBFA89580E480BF0E94BB06FB
:10134000789481E00E941A0170E060E088E095E006
:101350000E947704109254010E94C10282E00E9410
:101360001A01F89480E890E00E94250B853A09F470
:1013700081C0789461E070E082E395E00E94770498
:1013800083E4F82EEE24E39492E0D92E20E4C22EDA
:10139000D1E00E948E0480916501909166010097D2
:1013A00051F060916301709164010E94CB0410922E
:1013B00066011092650180915F01882371F180E0E0
:1013C0000E949C01A895F0BE1F989BB181E0292F37
:1013D000247092FD80E0809360012223B1F310928B
:1013E000BA011092B9011092B801E09254018CB781
:1013F00080618CBF1092870110926201109261018E
:1014000080915F01811162C0D0920C018CB78F7EF8
:101410008CBF0E94BB06A895C0BE0E94F80810921F
:1014200054018091780190917901F6E086379F0709
:1014300009F06EC0C0910401CC0FC73908F0C6E9AD
:1014400014E08C2F0E949C0185E090E00E9403092B
:10145000809104010E949C0181E490E00E940309B4
:10146000115079F780ED92E00E94030980E00E941C
:101470009C018FCF05E511E0C1E8D0E0CE010E94CC
:10148000250BF80181938F012196C838D105B1F75A
:1014900078948091550180935201809156018093F8
:1014A0000401809157018093050180915801809338
:1014B0000B018091590180937A0180915A018093A8
:1014C000070180915B018093060154CF86B78F7925
:1014D000806486BF86B7806186BF889586B78F7E19
:1014E00086BF80916101811110925F018091870117
:1014F000882331F0D0930C01D0937C010E941C030F
:1015000080916201882309F47BCF0E944C0878CF38
:1015100024E0853F920769F580917B01C0E0EC2FC4
:10152000F0E0E958FF4FE4918E1708F506EAC11183
:1015300002C008E0C1E010E089E10E949C01C801FE
:101540000E94030980E00E949C018AEF90E00E94C3
:101550000309C15089F78AE992E00E9403098823B0
:1015600009F417CF88EE93E00E94030912CFCF5FF2
:10157000D6CF805D9540C9F480916001811109CF7B
:1015800080910A010E949C0184E690E00E94030978
:1015900080E00E949C018091050190E068EE73E07C
:1015A0000E94E00A84569109DFCF86B78F7986BF03
:1015B00086B7806186BF889586B78F7E86BFE9CE65
:1015C0000024552704C0080E591F880F991F009743
:1015D00029F076956795B8F37105B9F7802D952FA9
:1015E0000895991B79E004C0991F961708F0961B7F
:1015F000881F7A95C9F780950895AA1BBB1B51E1F6
:1016000007C0AA1FBB1FA617B70710F0A61BB70B72
:10161000881F991F5A95A9F780959095BC01CD0117
:10162000089597FB072E16F4009407D077FD09D094
:101630000E94FD0A07FC05D03EF4909581959F4FCE
:101640000895709561957F4F0895E199FECF1FBA77
:101650008EBBE09A99278DB30895262FE199FECF8E
:101660001FBA8EBBE09A81500DB2021639F01CBA37
:101670002DBB0FB6F894E29AE19A0FBE0895F89444
:02168000FFCF9A
:1016820001010004960237198203322D0202010081
:101692000000000000000100000000000000000146
:1016A2000000210123022503270429052C06FF0639
:0816B2008282030A0504030013
:00000001FF
