:10000000A7C0C1C049C7BFC0BEC0BDC0BCC0BBC087
:1000100004C7B9C0B8C0B7C039C7B5C0B4C01E2383
:1000200026282A63000000000000000000000000F5
:1000300000000000000000000000000000000000C0
:1000400000000000000000000000000000000000B0
:1000500000000000000000000000000000000000A0
:10006000000000000000010304050708090B0C0E46
:100070000F1113141618191B1D1F21232527292BB7
:100080002D30323437393B3E404346484B4E515475
:10009000575A5D606366696D7073777A7E81858972
:1000A0008D9094989CA0A5A9ADB1B6BABFC3C8CD98
:1000B000D1D6DBE0E5EAEFF4FAFF01010202030327
:1000C000040405060708090A0C0D0E0F1113141677
:1000D000181A1D1F2224272A2D3033373B3E424653
:1000E0004B4F54595D63686E73797F868C939AA1E8
:1000F000A8B0B8C0C8D1D9E2ECF5FFFFFFFFFFFF01
:10010000FFFFFFFFFFFFFFFFFFFFFFFFFFFFFFFFFF
:10011000FFFFFFFFFFFFFFFFFFFFFFFFFFFFFFFFEF
:10012000FFFFFFFFFFFFFFFFFFFFFFFFFFFFFFFFDF
:10013000FFFFFFFFFFFFFFFFFFFFFFFFFFFFFFFFCF
:10014000FFFFFFFFFFFFFFFFFFFFFFFFFFFFFF00BE
:1001500011241FBECFE5D2E0DEBFCDBF10E0A0E688
:10016000B0E0E2EBF1E102C005900D92AE36B107CE
:10017000D9F720E0AEE6B0E001C01D92AD3EB20777
:10018000E1F790D614C83CCF482F362F272FEAEB43
:10019000F0E090E080E0508151110AC063E070E02F
:1001A000B4D7FC01E654FF4F40833183228305C05E
:1001B000019633968031910571F70895BC018091C5
:1001C000EC00E2CF90E822E048EA57E030E08150CE
:1001D00008F408950FB6F89496BD26BD0FBEFA0137
:1001E0003197F1F70FB6F89496BD36BD0FBEEFCF3D
:1001F00086B1886486B90895CF92DF92EF92FF921C
:100200000F931F93CF939C0150918600852F90E010
:10021000FC01E559FF4F40814093650087599F4F8E
:10022000FC018081809364004217130609F0C4F535
:10023000821713061CF0511109C0822FCF911F9114
:100240000F91FF90EF90DF90CF900895841BE82EE0
:10025000F12CC70166E070E07DD76093850066955C
:10026000E62FF0E010E000E0C7E086E0C82ED12CD9
:10027000C801B6015BD7842F860FA82FB0E0B90163
:100280006A1B7B0B77FF03C0BD01621B730BE61774
:10029000F707A4F6C1500E0D1F1DC111E9CFCECF37
:1002A000842FCCCF0F931F93CF93DF938091860041
:1002B000809389008091620080938A00809163001E
:1002C00080938B008091670080938C008091AC00BC
:1002D00080938D00F89409E810E0C1E0D1E0F801C6
:1002E00061918F01CE0151D72196C630F1E0DF0731
:1002F000B1F765EA80E091E048D77894DF91CF913B
:100300001F910F91089580919000863040F480E80D
:1003100092E00FB6F89486BD96BD0FBE08958E305C
:1003200018F480E891E0F5CF80E890E0F2CF809378
:10033000900080938F00811103C019BC18BCE3CFDB
:10034000815090E0FC01E654FF4FE491E9BD8C5DE3
:100350009F4FFC01849188BDF2CFCF93C091900054
:1003600089E18C0F873908F080E0E1DF82E02ADF45
:100370008C2FCF91DCCFCF93C091900080E0D7DF5E
:1003800083E020DF8C2FCF91D2CFFF920F931F936A
:10039000CF93DF938C01D62FC72FF42E8091AA0024
:1003A0009091AB00892B31F0E091AA00F091AB0065
:1003B00089E009951093AB000093AA00012B41F04E
:1003C000E091AA00F091AB006D2F7C2F8F2D099545
:1003D00081E080938800DF91CF911F910F91FF9072
:1003E000089520919900283080F4E22FF0E0EE0F7C
:1003F000FF1FE656FF4F808391832F5F2093990064
:1004000048E0C3DF8091990008958FEF0895EF923F
:10041000FF921F93CF93DF931091BA00111106C082
:10042000DF91CF911F91FF90EF900895E090BB0076
:10043000F090BC00C0919900C1500C2E000CDD0B57
:10044000C7FD0EC0FE01EE0FFF1FE656FF4F0190E5
:10045000F081E02DB701812F099521978111F0CF0F
:10046000EAEBF0E0838180838481958192838183AC
:10047000339680E0E73EF807A9F71092E700109264
:10048000E9001092E800C8CF0F931F93CF93DF933A
:10049000D82FC92F8B0120919900222319F02150C8
:1004A00020939900E091990090E080E0EE2341F0E4
:1004B000E150FF0BEE0FFF1FE656FF4F8081918149
:1004C0004AE070E060E061DFB8018D2F9C2FDF9182
:1004D000CF911F910F9185CFCF93DF93EB018830A0
:1004E00061F480E024DFCD2B21F080E0DF91CF911B
:1004F000089581E080939100F8CF813021F4693133
:10050000710598F3F7CF813B81F481E090E074DED0
:100510000EDF80918600811102C0689730F361E0A0
:1005200070E084E993E0B0DFE0CF813EC1F3813831
:1005300031F48091660090E05FDEF9DED6CF609105
:10054000900070E0813C69F3823B11F486E9F5CFBD
:10055000823E11F480E0F1CF823C19F466E970E04C
:10056000E0CF8339B9F3833C29F470E060E084EC98
:1005700092E0D9CF843C31F4F0DE70E060E086EDAB
:1005800092E0D1CF81E0B2CF813C39F470E060E0FD
:100590008CE692E079DF80E00895823C29F470E0F7
:1005A00060E08BE293E0F6CF81E00895CF93C82F0F
:1005B0002C2F20792039C9F48C2F8F70823099F03C
:1005C00081E0B5DE6091660070E0C43C41F081E0FE
:1005D000C43BB9F4C2DE1092EC0061E070E084E943
:1005E00093E052DF0DC08AE0ECCF203811F480E0B8
:1005F000E8CFC13039F76931710510F0C09391002F
:1006000080E0CF910895843021F58091AA009091E7
:10061000AB0023E08235920731F469E170E084E9B0
:1006200093E032DF0FC08459934071F490919000B1
:10063000923050F0892F869596959695890F8093E4
:10064000870075DE80E0089570E060E08CE692E05F
:10065000E8CF81E00895282FCB01213C39F470E0E8
:1006600060E08CE692E010DF80E00895223C29F4FF
:1006700070E060E082E593E0F6CF213B39F46EE371
:1006800070E054D5892B81F768DEEECF213E41F42E
:100690006EE370E04BD56F5F6093630003DEE4CFE1
:1006A00081E00895883029F481E08093600080E043
:1006B0000895813C31F470E060E08CE692E0E4DE85
:1006C000F6CF823C29F470E060E084EC92E0F7CF52
:1006D000813B91F48091620090916000890F82309B
:1006E00038F482E0809362008091620020DEDFCFE8
:1006F0008937C0F388E7F6CF813E39F480916000F6
:10070000819580936000CEDDD2CF823B49F481E0B9
:100710008093600080916200833030F38150E2CF9B
:10072000823E89F381E008951F93CF93DF93482F92
:100730009B01E0916500D091640080918600C0919A
:100740008500811101C0C1E0483029F04A30A9F488
:100750002091660030E0E217130630F4D21713063A
:1007600019F010F020936600C90146DD80938700E0
:10077000DEDD81E08093610007C0413C51F470E010
:1007800060E08CE692E080DE80E0DF91CF911F9107
:100790000895423C59F480919000863920F486E90E
:1007A000809387003BC080916600FACF443C39F4C7
:1007B00080E0BDDD70E060E086ED92E0E4CF9FE494
:1007C000940F923008F044C0882331F0C90168E1E9
:1007D00070E0ACD4892BC1F68091900021153105D1
:1007E00029F5423BE9F48FEF80936100109190006E
:1007F000809161006C2F70E0082E000C990B85D45D
:10080000810F911DF9DCC82F80936600181719F02D
:100810008D1301C0B0DDC09387008C2F88DDB4CF6D
:100820008D1708F7E81710F381E0DECF273341E09A
:10083000340710F08D17B8F62D363240B8F2E817AD
:10084000A8F28BDD70E060E086ED92E01DDECECF99
:100850009FE1940F923020F48091610081958ACFBE
:10086000413009F078C02E33310511F44093610016
:1008700020918F0030919000E22FE31BFF0BCF01FE
:1008800060916E0070916F006F5F7F4F70936F008B
:1008900060936E00309709F477CF40E052E0F7FFA5
:1008A00006C040E450E0383810F440E051E056957E
:1008B000479597FD0196959587950097C1F746173F
:1008C000570708F061CF231778F52FEF230F7FEF3D
:1008D000720F872F90E0AC0146545F4FFA0164918C
:1008E000731730F539B5311123C06F3F09F569BD74
:1008F0008C5D9F4FFC01349168B5631730F538B5B6
:100900003F5F38BD39B5FA014491341307C038B59B
:10091000FC018491381302C020939000F4DC109203
:100920006F0010926E0030CF321788F621E0CECFE4
:1009300039B5361720F439B53F5F39BDD9CF39B550
:100940006317B0F639B53150F8CF68B53617D0F621
:1009500038B53150D6CF4530A9F48091900082341B
:1009600008F412CF90E0821B930B282F813491055D
:100970003CF08739910508F026E920938F0004CFD9
:1009800021E4FBCF4630B1F4909190008091870034
:10099000981708F0F9CE290F311D90E082179307C0
:1009A00034F0C9012134310514F481E490E08093DE
:1009B0008F00EACE473069F490918F0080919000CB
:1009C000891710F48F5FF3CF981708F0DDCE8150B0
:1009D000EECF433C71F491E0811190E0909386005A
:1009E00061DCC9DC8091900090E006DC80936600B9
:1009F000D7CE81E0CACE0F931F93CF938091B900D9
:100A0000882309F45CC01092B90034B185B12091FB
:100A10008E00329536953695337090E0880F991F89
:100A2000880F991F830F911D820F80938E008091F4
:100A3000AE00882309F443C01092AE008091B70045
:100A40008111A0C0809168006091AF007091B000EA
:100A5000882341F06091B3007091B4007093B000AE
:100A60006093AF00605F7F4FA6E076956795AA958B
:100A7000E1F780E098E55AD36B5F7F4F76956795F5
:100A80006093AD0080918300882309F472C0815087
:100A90008093830080919100811108C08FEA87B90B
:100AA00081E08093B7001092B800A2DB80916800CB
:100AB000882329F08091680081508093680080919C
:100AC0009400882309F451C0109294008091EA00A8
:100AD0009091EB009C012F5F3F4F88279078822BED
:100AE000932B9093EB008093EA003091920096B3A1
:100AF00081E0292F287093FD80E0809392003817C1
:100B0000B9F09091EC001092910080939200892F9F
:100B1000211102C180699F709F3009F0FBC0809352
:100B2000EC0090E080E04ADB1092EB001092EA00CB
:100B30000091EA001091EB00C091EC008C2F807FB7
:100B4000803B09F0F6C070E060E081E01DDBC80189
:100B500035DBC0917000C11104C04ADB81E0809395
:100B6000AE00CF5FCF71C0937000CF911F910F91F6
:100B700008956D3108F08ECF70E060E084E004DB12
:100B800085E086CF813009F091CF80916800811196
:100B900050C06091B1007091B200605F7F4F9B01C7
:100BA00045E0369527954A95E1F7A091AC008091F4
:100BB0007200E82FF0E0EE0FFF1FED58FF4F40816D
:100BC0005181B901641B750BAB01318320838F5FA9
:100BD000877080937200660F771F660F771F809172
:100BE000670090E08D5E9E4F8A1B9109A7FD93954B
:100BF000880F991F681B790B620F731F83E016160D
:100C000017060CF045C0615071098150C1F71616E6
:100C100017060CF057C057FD74C08091710018166C
:100C2000F4F5861B809371008CE287B91092B700AF
:100C30003ACF8091B5009091B6009093B200809326
:100C4000B100409635E0969587953A95E1F79093F7
:100C50007400809373009093760080937500909356
:100C600078008093770090937A0080937900909336
:100C70007C0080937B0090937E0080937D00909316
:100C8000800080937F00909382008093810081CFC9
:100C90006115710509F4B9CF6F5F7F4FB6CF660F4D
:100CA000771F653071055CF0635071097595679524
:100CB00088E1861B8093710085E066DAB5CF61E03C
:100CC00070E0F6CF6C3F8FEF7807DCF457FF19C068
:100CD0008091710087FF02C08450A3CF84EE861BF1
:100CE000809371008091AD008F3108F49DCF8CEF1F
:100CF0009FEF9C01261B370BB9017595679586E020
:100D0000DCCF8091AD008E3108F48ECF70E060E0D2
:100D100087E0D3CF8F5F03CF8F7E95FD08C08068BB
:100D20008093EC008091EA009091EB00FCCE806C07
:100D3000F7CFB80181E028DAC4FF10C0C5FD07CFA6
:100D40000831110508F405CF1092EB001092EA006B
:100D5000C062C093EC0090E080E0FACECC2309F4AE
:100D6000F8CEC5FF0AC01092EC001092EB00109272
:100D7000EA0081E080938800ECCE0231110508F48E
:100D8000E8CEC064C093EC0090E080E017DAEBCFCF
:100D9000BF92CF92DF92EF92FF920F931F93CF9368
:100DA000DF93EC0110E888E0E82E87E0F82E02E0FF
:100DB00092ECC92EDD24D394B12C209759F481E014
:100DC000DF91CF911F910F91FF90EF90DF90CF9027
:100DD000BF9008958091880081111DC0909190006E
:100DE000963090F40FB6F89416BD06BD0FBEC6013E
:100DF0000197F1F78B2D0FB6F89416BD86BD0FBE87
:100E0000FADD05DB2197D9CF0FB6F89416BD86BD64
:100E10000FBEC701EDCF80E0D3CF2F932FB72F9315
:100E20003F938F939F93AF93BF93EF93FF938091E3
:100E3000B8008823E9F0E091B70024B135B1F0E0C3
:100E4000EE0FFF1FDF01AD54BF4F2D933C93E155D3
:100E5000FF4F808191818217930708F4019628172C
:100E6000390708F401979183808381E08093B9006A
:100E700081E08093B800FF91EF91BF91AF919F9176
:100E80008F913F912F912FBF2F9118958F9381E0D4
:100E9000809394008F9118958F9381E080939300B5
:100EA0008F911895F89484B7877F84BF0FB6F89414
:100EB000A89581B5886181BD11BC0FBEB89A81E04B
:100EC00083BF81EA8ABDB99A88E088BB85BB8BB7AE
:100ED00080628BBFA89581B5886181BD80E481BDAA
:100EE0008CE287B91092B7001092B80081D987EED2
:100EF00086B9789481E066D970E060E083E093E0A1
:100F000070DA1092880029DAF89480E091E035D107
:100F1000853A09F488C0789461E070E08CE692E04C
:100F200060DAD1E082E0F82E9CE2E92E27EED22EA4
:100F300030E4C32E6CDA809197009091980000976E
:100F400049F060919500709196009EDA1092980099
:100F50001092970080919100882309F43EC080E0B0
:100F6000E6D9A89584B7877F84BF81B5886181BDA4
:100F700011BC379896B381E0292F287093FD80E04B
:100F8000809392002223B1F31092EC001092EB00B8
:100F90001092EA00D09388008BB780628BBF1092CA
:100FA000910085B7877E806185BF85B7806285BFE8
:100FB000889585B78F7D85BFF09268008BB78F7D50
:100FC0008BBFE7B81092B7001092B80011D9D6B80D
:100FD000A89581B5886181BDC1BC0DDD10928800E6
:100FE0008091AA009091AB0023E08235920709F02E
:100FF0003EC0C0916200CC0FC73908F0C6E914E0CA
:101000008C2F95D985E090E0C3DE809162008FD966
:1010100081E490E0BDDE115099F780ED92E0B8DEFA
:1010200080E085D987CF09E810E0C1E0D1E0CE01AA
:10103000A4D0F80181938F012196C630F1E0DF073B
:10104000B1F77894809189008093860080918A001E
:101050008093620080918B008093630080918C006C
:101060008093670080918D008093AC0055CFE2E0C3
:10107000843C9E0739F58091AD00C0E0EC2FF0E094
:10108000E25EFF4FE4918E17D8F406EAC11102C068
:1010900008E0C1E010E089E14AD9C80179DE80E0CA
:1010A00046D98AEF90E074DEC150A9F78AE992E050
:1010B0006FDE882309F43ECF88EE93E069DE3ACFF5
:1010C000CF5FDCCF8B529340A9F4809192008111C5
:1010D00031CF809166002BD984E690E059DE80E024
:1010E00026D98091630090E068EE73E00ED08456BC
:1010F0009109E4CF85B7877E85BF85B7806285BFBC
:10110000889585B78F7D85BF15CF0024552704C0EE
:10111000080E591F880F991F009729F0769567953B
:10112000B8F37105B9F7802D952F0895AA1BBB1B45
:1011300051E107C0AA1FBB1FA617B70710F0A61BD7
:10114000B70B881F991F5A95A9F780959095BC01F8
:10115000CD01089597FB072E16F4009406D077FD75
:1011600008D0E4DF07FC05D03EF4909581959F4FB1
:101170000895709561957F4F0895E199FECF9FBBCB
:101180008EBBE09A99278DB30895262FE199FECF63
:101190009FBB8EBBE09A01970DB2021639F01CBAC4
:1011A0002DBB0FB6F894E29AE19A0FBE0895F89419
:0211B000FFCF6F
:0E11B200010141027801412D027878010A0006
:00000001FF
