:100000000C94D5000C94F2000C9488090C94F20026
:100010000C94F2000C9482090C94F2000C94F200FF
:100020000C94F2000C94F2000C94F2000C94F20088
:100030000C94F2000C94F2000C9449090C94F20018
:100040000C94F2000C94F2000C94F2000C94F20068
:100050000C94F2000C94F2000C94F2000C94F20058
:100060000C94F2000C94F2000C94F2000C94F20048
:10007000010504141011151E2326282A630100010E
:100080000002000200030003000400040005000653
:100090000006000700080009000A000B000C000D14
:1000A000000E000F001000110012001400150017C0
:1000B0000018001A001B001D001F00200022002451
:1000C00000260028002B002D002F003100340036C0
:1000D0000039003C003E004100440047004A004D0A
:1000E000005100540057005B005F00620066006A28
:1000F000006E00720076007A007F00830088008D19
:1001000000910096009B00A000A600AB00B000B6D6
:1001100000BC00C100C700CD00D300DA00E000E75A
:1001200000ED00F400FB0002010901100118011F9D
:100130000127012F0136013F0147014F015801609E
:1001400001690172017B0184018D019701A001AA5F
:1001500001B401BE01C901D301DD01E801F301FED3
:10016000010902150220022C023802440250025CEE
:10017000026902750282028F029C02AA02B702C5BE
:1001800002D302E102EF02FE020D031B032A033A2F
:1001900003490359036803780388039903A903BA41
:1001A00003CB03DC03ED03FF030011241FBECFEFDD
:1001B000D4E0DEBFCDBF11E0A0E0B1E0E6EBF6E1B8
:1001C00002C005900D92A833B107D9F721E0A8E34A
:1001D000B1E001C01D92AC3BB207E1F70E948E096D
:1001E0000C94590B0C940000482F362F272FE9E868
:1001F000F1E090E080E0508151110BC063E070E0CD
:100200000E94FA0AFC01E757FE4F408331832283A4
:1002100005C0019633968031910569F70895BC01B8
:100220008091BB010C94F40028E13FE1815008F477
:100230000895F9013197F1F7F9CF83B1886483B953
:100240000895CF93DF9300D00F92CDB7DEB7209102
:100250003401309135014091360129833A834B8333
:10026000FE01319650E040E0682F70E0A1E0B0E080
:100270009B01042E02C0359527950A94E2F7922F30
:10028000937081919D0101C0220F8A95EAF799230D
:1002900029F09130C1F080B3822B19C080B3209532
:1002A000822380BB82B3822382BB81B3282321BBFC
:1002B0004E5F5F4F46305105D9F60F900F900F906B
:1002C000DF91CF91089590B3822F8095892380BBD1
:1002D00082B3822B82BB81B3282BE9CFCF92DF92EE
:1002E000EF92FF920F931F93CF939C015091530174
:1002F000852F90E0FC01EE5CFE4F408140930901A8
:10030000805D9E4FFC018081809308014217130697
:1003100009F0D4F5821713061CF0511109C0822F81
:10032000CF911F910F91FF90EF90DF90CF900895A4
:10033000841BE82EF12CC70163E070E00E942B0BB8
:10034000609352016695E62FF0E010E000E0C4E013
:1003500083E0C82ED12CC801B6010E94170B842F50
:10036000860FA82FB0E0B9016A1B7B0B77FF03C093
:10037000BD01621B730BE617F70794F6C1500E0D13
:100380001F1DC111E8CFCCCF842FCACF90917C0123
:1003900080E09D3180F0E82FF0E0E05EFE4F2081AC
:1003A000921738F43197E081F0E0E059FF4F8491E3
:1003B00008958E5FF0CF0895CF93E82F862F909108
:1003C0007C0191509C3120F480E0CF910C9421016C
:1003D000CE2FC295CF70EF7090916001911103C044
:1003E000C33008F0C2E0E73010F4F0E029C0E73095
:1003F00059F52091390130E02F5F3F4FE091020124
:10040000F09103013196FB70F460F0930301E093E7
:10041000020180915D018B5A80935D018491E0918E
:100420005D018E0F65E00E940B0BA901490F511D64
:10043000CA0166E070E00E942B0B80933901FC0139
:10044000E059FF4FE4911CC090916001E83099F4AD
:100450006FE0911101C063E0862351F4809139016E
:1004600090E0019666E070E00E942B0B80933901CA
:10047000E0913901BACF9923D9F00E94C601E82F43
:10048000C33071F48091380190E0019663E170E02F
:100490000E94170B80933801835F9E4FDC01CC9143
:1004A000CC2321F0C13069F0CE2FCC0F8C2F8DCF13
:1004B000869563E00E940B0BE92FF0E0EE0FFF1F23
:1004C000BFCFCE2FF3CF0F931F93CF93DF938091A6
:1004D00053018093560180910401809357018091CC
:1004E00005018093580180910B01809359018091FF
:1004F0007B0180935A018091070180935B01809179
:10050000060180935C0182E00E941401F89406E5E4
:1005100011E0C1E8D0E0F80161918F01CE010E94A5
:10052000470B2196C838D105B1F765EA80E890E01D
:100530000E94470B7894DF91CF911F910F910895FE
:100540001092880130B181B120915D0132953695CC
:100550003695337090E0880F991F880F991F830F8D
:10056000911D820F80935D0180917D01882309F4A4
:1005700041C010927D018091860190916001992384
:1005800019F01F9810928601811143C080910C01CF
:10059000882389F1809182019091830190937F015A
:1005A00080937E01409696958795807F9F7761EC3A
:1005B00072E00E94170B60937C0180914F018823A9
:1005C000F9F0815080934F0180916001811109C041
:1005D0008EE884B981E080938601109287010E94A1
:1005E0001D0180910C01882329F080910C0181501C
:1005F00080930C01089580917E0190917F01D2CF6C
:100600006D3110F770E060E084E00E94F40085E056
:10061000D9CF813031F780910C01811151C06091A7
:10062000800170918101605F7F4FCB0145E096951D
:1006300087954A95E1F750917B0140913E01E42F67
:10064000F0E0EE0FFF1FE15CFE4F20813181BC0125
:10065000621B730B9B01918380834F5F47704093B4
:100660003E01660F771F660F771F680F791F809115
:100670000B0190E08D5E9E4F851B910957FD939570
:100680000597880F991F681B790B83E016161706CC
:100690000CF045C0615071098150C1F7161617065C
:1006A0000CF05AC037FD77C080913D011816F4F563
:1006B000861B80933D0186E884B9109286018DCF18
:1006C00080918401909185019093810180938001B4
:1006D000409635E0969587953A95E1F790934001DD
:1006E00080933F0190934201809341019093440194
:1006F0008093430190934601809345019093480174
:100700008093470190934A018093490190934C0153
:1007100080934B0190934E0180934D0180CF6115E2
:10072000710509F4B9CF6F5F7F4FB6CF660F771FA2
:100730006730710574F0635071097595679575950B
:10074000679580E2861B80933D0185E00E94F4005E
:10075000B2CF61E070E0F5CF6C3F8FEF7807DCF44B
:1007600037FF19C080913D0187FF02C08450A0CFA0
:100770008CED861B80933D0180917C018F3108F4C4
:100780009ACF8CEF9FEF9C01261B370BB901759513
:10079000679586E0DBCF80917C018E3108F48BCFAA
:1007A00070E060E087E0D2CFE82F80935F01809314
:1007B0005E01811106C010926D0010926C00689865
:1007C0000895689AE150F0E0EE0FFF1FE358FF4FE5
:1007D0008591949190936D0080936C00089580931F
:1007E00054010C94D403CF93C0915F0189E18C0F25
:1007F000873908F080E00E94D40382E00E9414014F
:100800008C2FCF910C94D403CF93C0915F0180E0E3
:100810000E94D40383E00E9414018C2FCF910C948A
:10082000D403FF920F931F93CF93DF938C01D62FA6
:10083000C72FF42E8091790190917A01892B31F0A4
:10084000E0917901F0917A0189E0099510937A019C
:1008500000937901012B41F0E0917901F0917A0147
:100860006D2F7C2F8F2D099581E080935501DF91AD
:10087000CF911F910F91FF9008952091680128302A
:1008800088F4E22FF0E0EE0FFF1FE759FE4F808360
:1008900091832F5F2093680148E00E9411048091AA
:1008A000680108958FEF0895EF92FF921F93CF9301
:1008B000DF9310918901111106C0DF91CF911F9133
:1008C000FF90EF900895E0908A01F0908B01C09125
:1008D0006801C1500C2E000CDD0BC7FD0EC0FE01DF
:1008E000EE0FFF1FE759FE4F0190F081E02DB70199
:1008F000812F099521978111F0CFE9E8F1E08381FB
:1009000080838481958192838183339681E0E63B65
:10091000F807A9F71092B6011092B8011092B7012A
:10092000C8CF0F931F93CF93DF93D82FC92F8B017D
:1009300020916801222319F0215020936801E09151
:10094000680190E080E0EE2341F0E150FF0BEE0FF4
:10095000FF1FE759FE4F808191814AE070E060E01F
:100960000E941104B8018D2F9C2FDF91CF911F9110
:100970000F910C943D04813C41F470E060E086EFFF
:1009800094E00E94910480E00895823C29F470E094
:1009900060E087E697E0F5CF81E00895843021F5A7
:1009A0008091790190917A0128E08E31920739F493
:1009B00069E170E08EE995E00E9491040EC08E59C5
:1009C000954069F490915F01923048F0892F8695A7
:1009D00096959695890F0E94EF0380E0089570E048
:1009E00060E086EF94E0E8CF81E00895CF93DF9355
:1009F000EB01883091F480E00E94D40360E08091A4
:100A000007010E94DC01CD2B21F080E0DF91CF9126
:100A1000089581E080936001F8CF813059F4693105
:100A2000710598F3809360016C2F809107010E94FB
:100A3000DC01EBCF8330C1F3813BC1F480915301E2
:100A4000882339F061E070E08BE197E00E94910427
:100A5000DCCF81E090E00E946E010E94D403689791
:100A6000A0F261E070E08EE995E0F0CF813EC9F33D
:100A7000813841F480910A0190E00E946E010E9449
:100A8000D403C3CF60915F0170E0813C61F3823B8E
:100A900011F486E9F4CF823E11F480E0F0CF823C7D
:100AA00019F466E970E0DFCF8339B9F3833C29F4A8
:100AB00070E060E08BEB94E0C9CF843C39F40E9495
:100AC000F30370E060E083E997E0C0CF873CA9F4CE
:100AD00090910701892F82958F708F5F8370829527
:100AE000807F9F70892B8093070160E00E94DC016A
:100AF0000E9463020E94F30388CF873BB1F481E038
:100B000080935101CE018F739927892B09F08CCFE7
:100B100020910701822F8F708F5F207F6BE00E94F2
:100B20000B0B922B909307017FCF873E29F41092F5
:100B300051010E94630269CF81E068CF1F93CF9378
:100B4000DF93482F9B01E0910901D091080180912A
:100B50005301882309F46AC1C0915201483051F011
:100B60004A30B9F420910A0130E0811103C0E21744
:100B7000130630F4D217130619F010F020930A016F
:100B8000C9010E946E010E94EF0381E08093010180
:100B900008C0413C59F470E060E086EF94E00E94A8
:100BA000910480E0DF91CF911F910895423C59F468
:100BB00080915F01863920F486E90E94EF03F1CF2E
:100BC00080910A01FACF443C41F480E00E94D403B2
:100BD00070E060E083E997E0E2CF9FE4940F923009
:100BE00008F047C0882339F0C90168E170E00E942D
:100BF000170B892BB1F680915F012115310529F57D
:100C0000423BE9F48FEF8093010110915F018091E5
:100C100001016C2F70E0082E000C990B0E94FA0A5B
:100C2000810F911D0E946E01C82F80930A01181731
:100C300021F08D1302C00E9404048C2FBECF8D17AB
:100C400008F7E81710F381E0DECF273341E03407DF
:100C500010F08D17B8F62D363240B8F2E817A8F22A
:100C60000E94F30370E060E083E997E00E94910442
:100C7000CCCF9FE1940F923020F4809101018195B7
:100C800085CF413009F07FC02E33310511F44093F8
:100C9000010130915E0120915F01432F421B550BF2
:100CA000CA0160913A0170913B016F5F7F4F709371
:100CB0003B0160933A01009709F473CF40E052E0A2
:100CC00097FF06C040E450E0233810F440E051E0C4
:100CD0005695479597FD0196959587950097C1F78D
:100CE0004617570708F05DCF321778F53FEF320F00
:100CF0006FEF630FE62FF0E0EE0FFF1FAF014358D9
:100D00005F4FFA0185919491621718F560916C001C
:100D100070916D00672BE9F48F3F23E09207C9F4CF
:100D200090936D0080936C0060916C0070916D00E9
:100D3000FA01859194916817790711F430935F0156
:100D400010923B0110923A012CCF231788F631E024
:100D5000CECF60916C0070916D006817790730F408
:100D600080916C0090916D000196DACF60916C00DB
:100D700070916D0086179707B8F680916C0090917E
:100D80006D000197CDCF4530A9F480915F01833389
:100D900008F407CF90E0821B930B282F8233910534
:100DA0003CF08739910508F026E920935E01F9CEE1
:100DB00022E3FBCF4630B1F490915F018091540162
:100DC000981708F0EECE290F311D90E08217930797
:100DD00034F0C9012233310514F482E390E08093AA
:100DE0005E01DFCE473069F490915E0180915F0132
:100DF000891710F48F5FF3CF981708F0D2CE815087
:100E0000EECF433C89F491E0811190E0909353013F
:100E10000E9463020E94040480915F0190E00E949E
:100E20006E0180930A01C9CE81E0BCCEC1E048309A
:100E300009F096CE9CCE282FCB01322F3D7F383043
:100E400029F481E00E94EF0380E00895213C39F409
:100E500070E060E086EF94E00E949104F5CF223CC0
:100E600049F48091080180930A0166E970E08EE9F7
:100E700095E0F2CF243C41F480E00E94D40370E07E
:100E800060E083E997E0E8CF213B49F468E170E056
:100E90000E94170B61E070E0892BB1F6E8CF81E08A
:100EA000233CA1F490915301911180E08093530170
:100EB0000E9463020E94040480915F0190E00E94FE
:100EC0006E0180930A01682F70E0D1CF0895282F1A
:100ED000CB01213C41F470E060E086EF94E00E9499
:100EE000910480E00895223C29F470E060E08EE1F6
:100EF00098E0F5CF213B49F46EE370E00E94170BB8
:100F0000892B79F70E94F303ECCF213E51F46EE375
:100F100070E00E94170B6F5F609305010E946302EF
:100F2000E0CF81E008950F931F93CF93C82F8B01DB
:100F3000873B91F480E00E94D40381E080935101CB
:100F4000C8018F739927892B09F45BC0602F8091AA
:100F500006010E94DC0121C08079803911F58C2FB7
:100F60008F708230E1F081E00E94D40360910A0129
:100F700070E08EE995E0C43C71F0C43B59F50E94E5
:100F8000F3031092BB01C091530161E070E0CC23E8
:100F9000C1F08BE197E00E949104C0E016C08AE0A6
:100FA000E3CF803811F480E0DFCFC830F1F560E0A6
:100FB000809106010E94DC01C1E007C0C330B1F698
:100FC000C5CF8EE995E00E9491048C2FCF911F919F
:100FD0000F910895C73C11F590910601892F8295D4
:100FE0008F708F5F83708295807F9F70892B809335
:100FF000060160E00E94DC010E9463020E94F3038C
:10100000CCCF20910601822F8F708F5F207F6BE005
:101010000E940B0B922B9093060198CFC73E61F66E
:10102000109251010E946302B8CFC13039F60931E4
:10103000110508F4B2CFC093600188CF883029F43D
:1010400081E08093000180E00895813C39F470E0F4
:1010500060E086EF94E00E949104F5CF823C29F491
:1010600070E060E08BEB94E0F6CF813B99F48091E7
:10107000040190910001890F823040F482E0809356
:101080000401809104010E94D403DDCF8937B8F3B5
:1010900088E7F5CF813E41F48091000181958093EE
:1010A00000010E946302CFCF823B49F481E080932C
:1010B000000180910401833020F38150E0CF823E13
:1010C00081F381E0089586E884B910928601109238
:1010D00087010E941D01E1E6F0E08081826080834B
:1010E000139A87EE83B908950F931F93CF931092AD
:1010F00063018091B9019091BA019C012F5F3F4F2C
:1011000088279078822B932B9093BA018093B90112
:10111000909161012FB1822F8095881F8827881FA9
:10112000809361019817B9F010926001809361017A
:101130009091BB01892F27FD37C080699F709F3038
:1011400089F58093BB0190E080E00E940F0110922E
:10115000BA011092B9010091B9011091BA018091C0
:101160006001882371F1B80183E00E94F4000E94BD
:1011700054040F731127012B89F410923C010E9433
:101180006308C0913C01C11105C00E941D0181E0AE
:1011900080937D01CF5FCF71C0933C01CF911F91B0
:1011A0000F9108958F5FCDCF8F7E95FD08C0806829
:1011B0008093BB018091B9019091BA01C6CF806C38
:1011C000F7CFC091BB018C2F807F803B49F470E04A
:1011D00060E081E00E94F400C8010E940F01D1CFBD
:1011E000B80181E00E94F400C4FF0FC0C5FDF4CF38
:1011F0000831110530F21092BA011092B901C062A3
:10120000C093BB0190E080E0E8CFCC2309F4B9CFD4
:10121000C5FF0AC01092BB011092BA011092B90129
:1012200081E080935501ADCF0231110508F4A9CFBB
:10123000C064C093BB0190E080E00E940F01EACF40
:101240008091880181110E94A00280916301811127
:101250000C94740808950F931F93CF93DF93EC01C0
:1012600008E017E0209731F481E0DF91CF911F91E2
:101270000F910895809155012197811108C0C801EF
:101280000197F1F70E9420090E945404EBCF80E0FF
:10129000ECCF2F932FB72F933F938F939F93AF93C1
:1012A000BF93EF93FF93809187018823E9F0E0914A
:1012B000860120B131B1F0E0EE0FFF1FDF01AE5724
:1012C000BE4F2D933C93E258FE4F8081918182174F
:1012D000930708F401962817390708F401979183BA
:1012E000808381E08093880181E080938701FF9172
:1012F000EF91BF91AF919F918F913F912F912FBF10
:101300002F9118958F9381E0809363018F911895A9
:101310008F9381E0809362018F911895F89485B73F
:10132000877F85BF90E088ED0FB6F894A8958FBDB4
:1013300090B7977F90BF0FBE89E08CB988E380BBE0
:1013400083E88093720081E08093710080E882BB23
:1013500087BD8CB788608CBFA89580E480BF0E9451
:101360006308789481E00E94140170E060E08EECE4
:1013700094E00E943D04109255010E94F30382E024
:101380000E941401F89480E890E00E943F0B853A97
:1013900009F48AC0789461E070E086EF94E00E94DE
:1013A0003D0483E4F82EEE24E39492E0D92E20E469
:1013B000C22ED1E00E945404809166019091670191
:1013C000009751F060916401709165010E94910451
:1013D000109267011092660180916001882371F17B
:1013E00080E00E94D403A895F0BE1F989FB1892F7A
:1013F0008095881F8827881F8093610197FFF6CF0B
:101400001092BB011092BA011092B901E0925501FD
:101410008CB788608CBF1092880110926301109283
:1014200062018091600181116BC0D0920C018CB778
:10143000877F8CBF0E946308A895C0BE0E942009C8
:10144000109255010091790110917A01809151011A
:10145000811105C00E94C601880F0E942101F8E099
:101460000E311F0709F06EC0C0910401CC0FC739BF
:1014700008F0C6E914E08C2F0E94D40385E090E0C8
:101480000E942B09809104010E94D40381E490E022
:101490000E942B09115079F780ED92E00E942B09F0
:1014A00080E00E94D40386CF06E511E0C1E8D0E0D9
:1014B000CE010E943F0BF80181938F012196C8381D
:1014C000D105B1F7789480915601809353018091B2
:1014D0005701809304018091580180930501809108
:1014E000590180930B0180915A0180937B01809177
:1014F0005B018093070180915C01809306014BCFD3
:1015000086B78F79806486BF86B7806186BF8895ED
:1015100086B78F7E86BF8091620181111092600133
:1015200080918801882331F0D0930C01D0937D0104
:101530000E94A00280916301882309F472CF0E9467
:1015400074086FCF84E00B3B180769F580917C012C
:10155000C0E0EC2FF0E0E958FF4FE4918E1708F55A
:1015600006EAC11102C008E0C1E010E089E10E9472
:10157000D403C8010E942B0980E00E94D4038AEFA3
:1015800090E00E942B09C15089F78AE992E00E94FD
:101590002B09882309F40ECF88EE93E00E942B09D3
:1015A00009CFCF5FD6CF07561740C9F480916101AC
:1015B000811100CF80910A010E94D40384E690E05B
:1015C0000E942B0980E00E94D4038091050190E0E5
:1015D00068EE73E00E94FA0A84569109DFCF86B75D
:1015E0008F7986BF86B7806186BF889586B78F7EE4
:1015F00086BFE0CE0024552704C0080E591F880F6F
:10160000991F009729F076956795B8F37105B9F79A
:10161000802D952F0895991B79E004C0991F961786
:1016200008F0961B881F7A95C9F780950895AA1B24
:10163000BB1B51E107C0AA1FBB1FA617B70710F0BD
:10164000A61BB70B881F991F5A95A9F780959095EF
:10165000BC01CD01089597FB072E16F4009407D026
:1016600077FD09D00E94170B07FC05D03EF490953A
:1016700081959F4F0895709561957F4F0895E199E9
:10168000FECF1FBA8EBBE09A99278DB30895262FFF
:10169000E199FECF1FBA8EBBE09A81500DB20216BF
:1016A00039F01CBA2DBB0FB6F894E29AE19A0FBE3E
:0616B0000895F894FFCF3D
:1016B60001010004320219198201323702020100C7
:1016C6000000000000000100000000000000000112
:1016D6000000210123022503270429052C06FF0605
:0816E6008282010A05040300E1
:00000001FF
